:100000000C9464000C948C000C948C000C944D07A0
:100010000C944D070C944D070C948C000C9499068D
:100020000C948C000C948C000C948C000C948C0020
:100030000C948C000C948C000C948C000C948C0010
:100040000C944F060C948C000C941B070C94F50632
:100050000C948C000C948C000C948C000C948C00F0
:100060000C948C000C948C000000000024002700ED
:100070002A0000000008000201000003040700003D
:1000800000000000000002000000002300260029FC
:100090000000000000250028002B000404040404D4
:1000A0000404040202020202020303030303030125
:1000B00002040810204080010204081020010204FC
:1000C00008102000C5078B0D11241FBECFEFD8E00C
:1000D000DEBFCDBF22E0A2E3B1E001C01D92A23796
:1000E000B207E1F711E0A0E0B1E0EAECF2E202C011
:1000F00005900D92A233B107D9F710E0C3E6D0E026
:1001000004C02197FE010E943E0FC236D107C9F7F5
:100110000E9481080C9458110C94000090E0FC019E
:10012000EE58FF4F2491FC01E155FF4F3491FC0143
:10013000E556FF4FE491EE23C9F0222339F0233036
:1001400001F1A8F4213019F1223029F1F0E0EE0F8D
:10015000FF1FEF56FF4FA591B4918FB7F894EC9124
:10016000611126C030953E233C938FBF0895273000
:10017000A9F02830C9F0243049F7809180008F7DA4
:1001800003C0809180008F7780938000DFCF84B59B
:100190008F7784BDDBCF84B58F7DFBCF8091B0009E
:1001A0008F778093B000D2CF8091B0008F7DF9CF50
:1001B0003E2BDACFCF93DF9390E0FC01E155FF4F68
:1001C000249185569F4FFC0184918823D1F090E0C3
:1001D000880F991FFC01E859FF4FA591B491FC01CC
:1001E000EF56FF4FC591D49161110EC09FB7F8949F
:1001F0008C91E22FE0958E238C932881E223E88373
:100200009FBFDF91CF9108958FB7F894EC91E22BC7
:10021000EC938FBFF6CFCF92DF92EF92FF92CF9306
:100220006C0180910001833049F08F3F09F44FC089
:10023000CF91FF90EF90DF90CF900895E6E8F0E047
:10024000C491C7FDF5CF61E083E00E94DA00CC23C2
:1002500019F0C23009F0D9C0F12CE12C68E478EE35
:1002600081E090E0A70196010E941F0FBA01A90149
:100270004150510961097109CC2309F406C1C2300A
:1002800009F094C04F3F51056105710509F00CF468
:10029000BAC064E274EF80E090E0A70196010E948A
:1002A0001F0FBA01A901415051096109710995E077
:1002B0008091B100887F892B8093B100C13009F40F
:1002C000BCC0C23009F4CEC0C111B2CF8AC083E035
:1002D00080930001E6E8F0E0C491CF3F09F4A8CF95
:1002E000C13021F150F0C23009F43EC0C7FDA0CFAB
:1002F00061E083E00E94DA00ACCF14BC15BC84B589
:10030000826084BD85B5816085BDEEE9F0E0E49151
:10031000F0E0EE0FFF1FEF56FF4F85919491E2EB57
:10032000F0E0E491E0939F01C0E08DCF1092800057
:10033000109281008091810088608093810080917B
:100340008100816080938100EEE9F0E0E491F0E0CB
:10035000EE0FFF1FEF56FF4F85919491E2EBF0E017
:10036000E491E0939E016FCF1092B0001092B10023
:100370008091B00082608093B0008091B100816074
:100380008093B100EEE9F0E0E491F0E0EE0FFF1FA2
:10039000EF56FF4F8591949190939D0180939C011E
:1003A000E2EBF0E0E491E0939B014DCF4F3F51052C
:1003B0006105710541F13CF162E17AE780E090E08E
:1003C000A70196010E941F0FBA01A90141505109CE
:1003D00061097109C11162C094E085B5887F892BDC
:1003E00085BD47BD8FEF9FEFDC018093A8019093FF
:1003F000A901A093AA01B093AB0180916E00826025
:1004000080936E0015CF94E053CF960150E040E00A
:1004100060E072E18AE790E00E941F0FBA01A90133
:100420004150510961097109C13009F047CF8091EC
:100430008100887F81608093810050938900409380
:1004400088008FEF9FEFDC018093A4019093A501BA
:10045000A093A601B093A70180916F008260809362
:100460006F00E6CE4093B3008FEF9FEFDC018093E7
:10047000A0019093A101A093A201B093A301809148
:100480007000826080937000D3CE93E04F3F51059F
:100490006105710511F00CF08FCF9FCF96E008CF6A
:1004A0001F93CF93DF93182FEB0161E00E94DA00D6
:1004B000209739F460E0812FDF91CF911F910C9448
:1004C0008E00CF3FD10511F461E0F5CFE12FF0E0D0
:1004D000EE58FF4FE491E33031F140F4E130B1F0F8
:1004E000E230E1F0C038D1057CF7E4CFE73029F104
:1004F000E83059F1E430B1F7809180008062809358
:100500008000D0938B00C0938A0004C084B58068BB
:1005100084BDC7BDDF91CF911F91089584B58062DE
:1005200084BDC8BDF7CF8091800080688093800033
:10053000D0938900C0938800EDCF8091B00080688F
:100540008093B000C093B300E5CF8091B00080628B
:100550008093B000C093B400DDCF8E508064809350
:100560007C0080917A00806480937A0080917A0088
:1005700086FDFCCF809178009091790008953FB777
:10058000F8948091970190919801A0919901B09170
:100590009A0126B5A89B05C02F3F19F00196A11D11
:1005A000B11D3FBFBA2FA92F982F8827BC01CD01BD
:1005B000620F711D811D911D42E0660F771F881F1C
:1005C000991F4A95D1F708958F929F92AF92BF924B
:1005D000CF92DF92EF92FF920E94BF024B015C012B
:1005E00088ECC82ED12CE12CF12C0E94BF02681996
:1005F00079098A099B09683E734081059105A8F332
:1006000021E0C21AD108E108F10888EE880E83E0E3
:10061000981EA11CB11CC114D104E104F10429F7F6
:10062000FF90EF90DF90CF90BF90AF909F908F9012
:100630000895FC01248135816217730748F4808195
:100640009181009729F0860F971FFC018081089502
:1006500080E008959091000189130BC0E6E8F0E076
:10066000E4919FEF90930001E13049F028F0E230EF
:1006700061F060E00C948E0010926E00FACF9091C1
:100680006F009D7F90936F00F4CF909170009D7FDD
:100690009093700091E09093B0009091B100987F9A
:1006A00094609093B1001092B300E3CFAF92BF92E9
:1006B000CF92DF92EF92FF920F931F93CF93DF932E
:1006C0006C017B018B01040F151FEB015E01AE185D
:1006D000BF08C017D10759F06991D601ED91FC917F
:1006E0000190F081E02DC6010995892B79F7C501AC
:1006F000DF91CF911F910F91FF90EF90DF90CF90FE
:10070000BF90AF900895CF93DF93FC014481558152
:10071000608171818CEA91E00E945603EC0142E015
:1007200050E06BE271E08CEA91E00E9456038C0F7E
:100730009D1FDF91CF910895FC01538D448D252F8E
:1007400030E0842F90E0821B930B541710F0CF966B
:10075000089501970895FC01918D828D981761F09D
:10076000A28DAE0FBF2FB11D5D968C91928D9F5FB4
:100770009F73928F90E008958FEF9FEF0895FC0193
:10078000918D828D981731F0828DE80FF11D858D46
:1007900090E008958FEF9FEF0895FC01918D228DD9
:1007A000892F90E0805C9F4F821B91098F7399275E
:1007B00008958CEA91E00E94CD0321E0892B09F491
:1007C00020E0822F089580E090E0892B29F00E949C
:1007D000D90381110C9400000895FC01A48DA80F89
:1007E000B92FB11DA35ABF4F2C91848D90E0019673
:1007F0008F739927848FA689B7892C93A089B18993
:100800008C91837080648C93938D848D981306C033
:100810000288F389E02D80818F7D80830895EF9297
:10082000FF920F931F93CF93DF93EC0181E0888FAA
:100830009B8D8C8D98131AC0E889F989808185FF7A
:1008400015C09FB7F894EE89FF896083E889F9891C
:1008500080818370806480839FBF81E090E0DF911E
:10086000CF911F910F91FF90EF900895F62E0B8D71
:1008700010E00F5F1F4F0F731127E02E8C8D8E112C
:100880000CC00FB607FCFACFE889F989808185FF93
:10089000F5CFCE010E94ED03F1CFEB8DEC0FFD2FD4
:1008A000F11DE35AFF4FF0829FB7F8940B8FEA894E
:1008B000FB8980818062CFCFCF93DF93EC01888D5D
:1008C0008823B9F0AA89BB89E889F9898C9185FDCB
:1008D00003C0808186FD0DC00FB607FCF7CF8C9159
:1008E00085FFF2CF808185FFEDCFCE010E94ED0321
:1008F000E9CFDF91CF910895209174013091750176
:100900002817390771F4909172018091730198173B
:1009100041F0E0917201F0E0EE5CFE4F808190E0EA
:1009200008958FEF9FEF08950895EF92FF920F9330
:100930001F93CF93DF93DC015C96ED90FC905D9765
:10094000E114F10479F481E090E013969C938E9386
:10095000129790E080E0DF91CF911F910F91FF906F
:10096000EF9008955196ED91FC91529750968C918D
:100970005097982F90950FB75E962C915E97122FF7
:10098000127021FD6095F8942081112319F1282B14
:100990002083E7012197F1F728E0462F50E03081CE
:1009A00060FF1AC0382B3083E7012197F1F7BA01B5
:1009B00075956795215089F7112381F080818923EE
:1009C00080830FBF5C968D919C910197F1F781E038
:1009D00090E0C1CF2923DCCF3923E5CF9081892B4B
:1009E000EFCF20917401309175012817390761F418
:1009F000809173012091720190E0805C9F4F821B77
:100A000091098F739927089590E080E008952091CF
:100A100074013091750128173907B9F4909172016A
:100A200080917301981789F0E0917201F0E0EE5C1B
:100A3000FE4F80812091720130E02F5F3F4F2F7376
:100A400033272093720190E008958FEF9FEF089570
:100A500090E080E00895CF93DF93EC0184E00E9462
:100A60008E00BE0186E0DF91CF910C945002CF93AF
:100A7000DF93EC0182E00E948E00BE0185E0DF91F1
:100A8000CF910C94500280917601813359F024F477
:100A900060E0803341F00895823359F061E08333A0
:100AA00049F0089561E080917701909178010C946C
:100AB000370560E080917701909178010C942B05C7
:100AC000CF93DF93809179018133C9F054F4C091C1
:100AD0007701D091780160E08033E1F0DF91CF9130
:100AE0000895823391F0C0917701D091780160E050
:100AF0008333A1F7CE010E94370561E00FC0C0919A
:100B00007701D091780161E0F5CFC0917701D09164
:100B1000780161E0CE010E94370560E0CE01DF91EF
:100B2000CF910C942B058EE480937601809379010C
:100B3000109278011092770160E090E080E00E94CE
:100B4000370560E090E080E00E942B0583E00E9482
:100B50002A0360E08AE00E948E0060E08BE00C9443
:100B60008E00FC0180819181009711F00C9402109D
:100B700008950F931F93CF93DF93EC0188819981A0
:100B8000009759F02A813B812617370730F081E022
:100B9000DF91CF911F910F9108958B016F5F7F4F70
:100BA0000E948B10009759F0998388831B830A83D6
:100BB0002C813D81232B59F7FC011082E8CF80E086
:100BC000E7CFEF92FF920F931F93CF93DF93EC0148
:100BD0007B018A01BA010E94B905288139818111FE
:100BE00014C02115310519F0C9010E9402101982A3
:100BF00018821D821C821B821A82CE01DF91CF9146
:100C00001F910F91FF90EF9008951D830C83B70102
:100C1000C9010E945111F1CFFB0101900020E9F7B9
:100C20003197AF01461B570B0C94E105CF93DF932F
:100C300000D0CDB7DEB7FC01118210821382128280
:100C4000158214822FE229831A82BE016F5F7F4FC3
:100C50000E940C060F900F90DF91CF9108956EE2E5
:100C600071E089E492E00C940C06FB01DC01119622
:100C70001C921E9213961C921E92129715961C920D
:100C80001E9214978617970749F06081718161154C
:100C9000710521F0448155810C94E10508951F925E
:100CA0000F920FB60F9211242F933F938F939F9320
:100CB000AF93BF938091930190919401A09195017E
:100CC000B09196013091920123E0230F2D3758F512
:100CD0000196A11DB11D20939201809393019093E1
:100CE0009401A0939501B093960180919701909102
:100CF0009801A0919901B0919A010196A11DB11D91
:100D00008093970190939801A0939901B0939A01D1
:100D1000BF91AF919F918F913F912F910F900FBEF7
:100D20000F901F90189526E8230F0296A11DB11D64
:100D3000D2CF1F920F920FB60F9211242F933F9391
:100D40004F935F936F937F938F939F93AF93BF93D3
:100D5000EF93FF938091A0019091A101A091A20136
:100D6000B091A301892B8A2B8B2BD1F190919B0100
:100D7000E0919C01F0919D01808189278083809181
:100D8000A0019091A101A091A201B091A301181618
:100D900019061A061B069CF48091A0019091A101EE
:100DA000A091A201B091A3010197A109B10980937B
:100DB000A0019093A101A093A201B093A301FF9180
:100DC000EF91BF91AF919F918F917F916F915F91C3
:100DD0004F913F912F910F900FBE0F901F9018953C
:100DE000809100010E942A03EACF1F920F920FB652
:100DF0000F9211242F933F934F935F936F937F93A1
:100E00008F939F93AF93BF93EF93FF938CEA91E0FF
:100E10000E94ED03FF91EF91BF91AF919F918F9150
:100E20007F916F915F914F913F912F910F900FBEE6
:100E30000F901F9018951F920F920FB60F921124CA
:100E40002F938F939F93EF93FF93E091BC01F091C9
:100E5000BD018081E091C201F091C30182FD1BC000
:100E600090818091C5018F5F8F732091C601821799
:100E700041F0E091C501F0E0E455FE4F958F80937D
:100E8000C501FF91EF919F918F912F910F900FBE10
:100E90000F901F9018958081F4CF1F920F920FB67C
:100EA0000F9211242F933F934F935F936F937F93F0
:100EB0008F939F93AF93BF93EF93FF93E091740150
:100EC000F0917501309749F0A685B7858585968D97
:100ED00091FF14C09C918923A1F4FF91EF91BF91E0
:100EE000AF919F918F917F916F915F914F913F91C2
:100EF0002F910F900FBE0F901F9018959C918923F2
:100F000061F7A389B4899C918589809589238C9305
:100F1000868997890197F1F7608D718DA685B785D0
:100F2000558538E020E0CB010197F1F7822F90E062
:100F300095958795282F4C91452309F020683150CD
:100F400091F7868D81FD20958091730190E0019647
:100F50008F73992730917201381799F0A09173011E
:100F6000B0E0AE5CBE4F2C9380937301828D938D65
:100F70000197F1F7A389B4898C919589892B8C937A
:100F8000ACCF868D8160868FF1CF1092AF01109229
:100F9000AE0188EE93E0A0E0B0E08093B0019093C2
:100FA000B101A093B201B093B3012BE031E03093D3
:100FB000AD012093AC0125EC30E03093B9012093D2
:100FC000B80124EC30E03093BB012093BA0120EC4F
:100FD00030E03093BD012093BC0121EC30E0309330
:100FE000BF012093BE0122EC30E03093C101209379
:100FF000C00126EC30E03093C3012093C20110926F
:10100000C5011092C6011092C7011092C80110923A
:101010005202109251028093530290935402A09373
:101020005502B09356028DE191E090935002809367
:101030004F0210926602109265021092680210929E
:10104000670210926A021092690210926C0210926A
:101050006B0260916D026E7F6D7F60936D0266958D
:10106000617081E068270E948E0061E081E00E944B
:10107000DA00E0EBF0E0E491E0935F02ECE9F0E00D
:10108000E491F0E0EE0FFF1FEF56FF4F8591949132
:10109000909361028093600260E080E00E94DA0039
:1010A00080916D0281FD04C061E080E00E948E00AD
:1010B00010925B02EFEAF0E0E491E0935C02EBE96E
:1010C000F0E0E491F0E0EE0FFF1FE957FF4F85914C
:1010D000949190935E0280935D0210924A02109266
:1010E000490210924C0210924B0210924E02109242
:1010F0004D0241E050E06EE271E089E492E00C9430
:10110000E105CF93DF93CDB7DEB72C970FB6F894F8
:10111000DEBF0FBECDBF789484B5826084BD84B538
:10112000816084BD85B5826085BD85B5816085BDE2
:1011300080916E00816080936E001092810080919A
:101140008100826080938100809181008160809322
:101150008100809180008160809380008091B10047
:1011600084608093B1008091B00081608093B00072
:1011700080917A00846080937A0080917A00826006
:1011800080937A0080917A00816080937A008091C8
:101190007A00806880937A001092C10061E082E05A
:1011A0000E94DA0061E085E00E94DA0061E084E0FC
:1011B0000E94DA0061E086E00E94DA0061E083E0EC
:1011C0000E94DA0061E08DE00E94DA0060E08CE0CD
:1011D0000E94DA0061E08AE00E94DA0061E08BE0C0
:1011E0000E94DA00E091BC01F091BD0182E08083B1
:1011F000E091B801F091B9011082E091BA01F0914B
:10120000BB018FEC80831092C401E091C001F0918A
:10121000C10186E08083E091BE01F091BF01808131
:1012200080618083E091BE01F091BF018081886080
:101230008083E091BE01F091BF018081806880834E
:10124000E091BE01F091BF0180818F7D808310927B
:101250006A0210926902109268021092670210925C
:101260006602109265028DE991E090936C02809382
:101270006B0290915B02963108F047C02DEB30E095
:1012800030936602209365022BE931E030936802C7
:10129000209367022CE231E030936A0220936902C6
:1012A0002091680084E0983048F031E09E3008F4E6
:1012B00030E081E001C0880F3A95EAF7822B8093F5
:1012C00068002DE630E0983050F02BE630E09E309C
:1012D00030F02CE630E0963110F030E020E0309332
:1012E000630220936202292F30E0983008F0CFC0CB
:1012F00081E001C0880F9A95EAF78093640280919B
:101300006B0290916C020197F1F7809169029091C4
:101310006A02892B49F1E0917401F091750122E094
:10132000EF34F20709F1309739F0A389B4899C9121
:101330008589809589238C9380916D028E7F80931F
:101340006D0210927301109272018FE492E09093FB
:10135000750180937401E0916202F09163028081D3
:1013600090916402892B808303E010E061E08AE0C1
:101370000E948E0061E08BE00E948E000E94E402D9
:1013800060E08AE00E948E0060E08BE00E948E00A8
:101390000E94E4020150110949F7AA24AA94B12C31
:1013A00080918A01811117C01092850110928401E9
:1013B0001092870110928601109289011092880183
:1013C00050E040E06DE271E084E891E00E94E105C8
:1013D00081E080938A018FE492E00E94F104892BDE
:1013E00009F48CC380E10E94AD0290938301809345
:1013F000820185E10E94AD0290938101809380017A
:1014000084E10E94AD0290937F0180937E0161E0B0
:101410008DE00E948E0083E090E00197F1F760E09C
:101420008DE00E948E0083EC90E00197F1F7EBEBEA
:10143000F0E09490E7EAF0E004910E94BF026B01B3
:101440007C0110E0000F111F09571F4FF801A591F3
:10145000B4918C918921981639F1F801A591B49134
:101460008C91892198127DC00E94BF022B013C0102
:10147000F801A591B4918C918921981609F47EC048
:101480000E94BF0264197509860997091CC09E3025
:1014900040F42850310981E001C0880F2A95EAF70D
:1014A0002CCF2E503109F7CF0E94BF026C197D0955
:1014B0008E099F096135734C8105910508F4C6CFEB
:1014C00060E070E0CB01611571058105910509F0BF
:1014D00062C010927A0110927B0110927C011092EE
:1014E0007D018CEC282E312C93E3492E512C26E6DD
:1014F000622E712C8FE492E00E94F104892B09F492
:10150000FDC28FE492E00E940705182F8F3209F088
:10151000CCC2C0908401D0908501C114D10449F09F
:10152000009188011091890176010115110509F0DA
:101530004CC070E060E084E891E00E9419038734B9
:1015400009F470C10CF07DC0833409F406C28534FF
:1015500009F496C06DE271E084E891E00E940C0607
:10156000C9CF0E94BF026C197D098E099F096135A0
:10157000734C8105910508F470CFA2CF0E94BF0281
:101580006C197D098E099F096135734C81059105A0
:1015900008F46ECF95CF0E94B60D28E23EE74CE0EE
:1015A0005DE30E94F10D20E030E040E05FE30E9447
:1015B000F10D0E94E90E60937A0170937B01809394
:1015C0007C0190937D018DCF740147018FEF881AC4
:1015D000980AF7018081082E000C990B0E94AB0D30
:1015E000892B91F7015011090C0D1D1DF801808107
:1015F000082E000C990B0E94AB0D892B31F00E15B3
:101600001F0518F001501109F1CF0F5F1F4FA801FE
:101610004E195F095093890140938801CE14DF046D
:1016200020F4B701C6010E944811E0918401F091B5
:1016300085018091880190918901E80FF91F10823E
:1016400078CF8035E9F0833509F084CF64E871E024
:10165000CE0107960E94350661E070E0CE01079644
:101660000E941903843609F47DC0CCF4813661F1FF
:10167000833609F43FC0CE0107960E94B10502C02F
:101680000E949305CE0101960E941606CE01019696
:101690000E948303CE0101960E94B1055BCF85367F
:1016A00009F49CC0863639F7BE01695F7F4FCE01D1
:1016B00001960E94350662E070E0CE0101960E941C
:1016C0001903809379012CC0BE01695F7F4FCE0161
:1016D00001960E94350662E070E0CE0101960E94FC
:1016E0001903809376010E944305CE0101960E9462
:1016F000B105C1CFBE01695F7F4FCE0101960E9447
:10170000350662E070E0CE0101960E941903823333
:10171000F9F04CF4803381F0813399F00E94430555
:101720000E946005E2CF8333D1F08433B9F7B092E1
:101730007801A0927701F2CF109278011092770190
:10174000EDCF81E490E09093780180937701E6CF2C
:10175000E2E8F0E0F0937801E0937701DFCF83ECEB
:1017600090E0F1CFBE01695F7F4FCE0101960E94EC
:10177000350662E070E0CE0101960E941903E0EDAB
:10178000E80FE83008F0B1CF0E2E000CFF0BE55348
:10179000F44F0C943E0FD30BD70BDC0BDF0BE20B9B
:1017A000E50BE80BEB0B83E00E942A039ECF86E05B
:1017B00091E00E940B0199CF86E291E0FACF8AE492
:1017C00091E0F7CF8DE591E0F4CF88E891E0F1CF9B
:1017D00088EB91E0EECF8EEE91E0EBCFBE01695F3A
:1017E0007F4FCE0101960E94350662E070E0CE0187
:1017F00001960E941903813389F044F461E080333B
:1018000009F073CF8AE00E948E006FCF823341F0DF
:1018100060E0833309F069CF8BE0F5CF60E0F2CF71
:1018200061E0FACF64E871E0CE0101960E943506CE
:1018300062E070E0CE0101960E941903813309F441
:1018400063C00CF041C0803309F44DC0CE01019655
:101850000E94B105CE0101960E941606BE016F5F7F
:101860007F4FCE0107960E943506E0904902F09026
:101870004A02E114F10409F463C000914D02109191
:101880004E0201151105B9F08B859C85080F191FB3
:10189000B801CE0107960E94B905882309F450C00B
:1018A0002F8138858B859C85B701820F931F0E94FD
:1018B00051111C870B87CE0107960E948303CE012E
:1018C00007960E94B105E6CE823381F1833309F099
:1018D000BDCF8091800190918101803991406CF061
:1018E0000E942F06B3CF8091820190918301843FA3
:1018F00091401CF40E942F06A9CF60E371E089E4B7
:1019000092E00E940C06A2CF80917A0190917B0117
:10191000A0917C01B0917D010197A109B1090F97B8
:10192000A105B10550F70E942F0690CF80917E014E
:1019300090917F018039914004F30E942F0686CF59
:101940008F819885009711F00E94021018861F82DF
:101950001C861B861A861986AECF64E871E0CE011C
:1019600001960E94350661E070E0CE0101960E946A
:101970001903813609F08ECE62E070E0CE01019647
:101980000E941903823399F1FCF4803331F18133E1
:1019900049F163E070E0CE0101960E941903E0ED89
:1019A000E80FE93008F076CE0E2E000CFF0BE55262
:1019B000F34F0C943E0F030D0E0D180D240D2F0D3B
:1019C000390D3F0D470D4D0D8333C1F0843309F7B9
:1019D000B0927801A0927701DCCF509278014092CA
:1019E0007701D7CF7092780160927701D2CF89E9E1
:1019F00090E09093780180937701CBCF309278017B
:101A000020927701C6CF60E090E080E00E94370529
:101A100060E090E080E00E942B053CCE00917701D1
:101A20001091780160E0C8010E94370560E015C0A0
:101A3000009177011091780160E0C8010E9437059C
:101A400060E0C8014E97E7CF0091770110917801CF
:101A500060E0C8010E94370561E0C801DCCF009159
:101A600077011091780161E0C8010E94370561E0BB
:101A7000E8CF009177011091780161E0EACF009101
:101A800077011091780161E0C8014E97E3CF009192
:101A900077011091780161E0C6CF00917701109134
:101AA000780160E0C8014E97BFCF682F8CEA91E0C3
:101AB0000E940F0419831A820091880110918901F4
:101AC0000F5F1F4FB80184E891E00E94B905882399
:101AD00009F410CD20918401309185018091880115
:101AE00090918901BE016F5F7F4F820F931F0E940B
:101AF00051111093890100938801FCCC80E090E0A3
:101B0000892B09F44DCC0E94D903882309F445CCD4
:101B10000E94000042CC89E492E00E94B1058DE170
:101B200091E09093500280934F02809174019091C4
:101B300075018F54924071F4E0916202F09163025A
:101B40009081809164028095892380831092750131
:101B500010927401089591110C945E0E803219F068
:101B600089508550C8F70895E89409C097FB3EF462
:101B700090958095709561957F4F8F4F9F4F9923DA
:101B8000A9F0F92F96E9BB279395F6958795779558
:101B90006795B795F111F8CFFAF4BB0F11F460FF18
:101BA0001BC06F5F7F4F8F4F9F4F16C0882311F070
:101BB00096E911C0772321F09EE8872F762F05C084
:101BC000662371F096E8862F70E060E02AF09A951F
:101BD000660F771F881FDAF7880F9695879597F914
:101BE00008950E94040E0C94780E0E946A0E38F03C
:101BF0000E94710E20F0952311F00C94610E0C944C
:101C0000670E11240C94AC0E0E94890E70F3959F00
:101C1000C1F3950F50E0551F629FF001729FBB27E3
:101C2000F00DB11D639FAA27F00DB11DAA1F649F7F
:101C30006627B00DA11D661F829F2227B00DA11D32
:101C4000621F739FB00DA11D621F839FA00D611DB8
:101C5000221F749F3327A00D611D231F849F600DD9
:101C6000211D822F762F6A2F11249F5750409AF002
:101C7000F1F088234AF0EE0FFF1FBB1F661F771F8E
:101C8000881F91505040A9F79E3F510580F00C9459
:101C9000610E0C94AC0E5F3FE4F3983ED4F386954E
:101CA00077956795B795F795E7959F5FC1F7FE2BF9
:101CB000880F911D9695879597F9089599278827FC
:101CC000089597F99F6780E870E060E008959FEFBE
:101CD00080EC089500240A941616170618060906C3
:101CE000089500240A941216130614060506089592
:101CF000092E0394000C11F4882352F0BB0F40F41A
:101D0000BF2B11F460FF04C06F5F7F4F8F4F9F4F59
:101D1000089557FD9058440F551F59F05F3F71F0DB
:101D20004795880F97FB991F61F09F3F79F0879542
:101D30000895121613061406551FF2CF4695F1DFCB
:101D400008C0161617061806991FF1CF869571055B
:101D5000610508940895E894BB2766277727CB018F
:101D600097F908952F923F924F925F926F927F92D0
:101D70008F929F92AF92BF92CF92DF92EF92FF929B
:101D80000F931F93CF93DF93CDB7DEB7CA1BDB0B47
:101D90000FB6F894DEBF0FBECDBF09942A883988EC
:101DA00048885F846E847D848C849B84AA84B984F3
:101DB000C884DF80EE80FD800C811B81AA81B981FF
:101DC000CE0FD11D0FB6F894DEBF0FBECDBFED0113
:101DD00008950E94F00E6894B1110C94AC0E089511
:101DE0000E94910E88F09F5798F0B92F9927B7510C
:101DF000B0F0E1F0660F771F881F991F1AF0BA95AF
:101E0000C9F714C0B13091F00E94AB0EB1E0089553
:101E10000C94AB0E672F782F8827B85F39F0B93F45
:101E2000CCF3869577956795B395D9F73EF4909561
:101E30008095709561957F4F8F4F9F4F0895052E28
:101E400097FB1EF400940E94360F57FD07D00E94A6
:101E5000440F07FC03D04EF40C94360F5095409578
:101E6000309521953F4F4F4F5F4F08959095809546
:101E7000709561957F4F8F4F9F4F0895EE0FFF1F15
:101E80000590F491E02D0994A1E21A2EAA1BBB1B28
:101E9000FD010DC0AA1FBB1FEE1FFF1FA217B30736
:101EA000E407F50720F0A21BB30BE40BF50B661F4C
:101EB000771F881F991F1A9469F760957095809510
:101EC00090959B01AC01BD01CF0108950F931F9325
:101ED000CF93DF938230910510F482E090E0E0919F
:101EE0007002F091710230E020E0B0E0A0E03097A5
:101EF00099F42115310509F44AC0281B390B243007
:101F00003105D8F58A819B816115710589F1FB0145
:101F100093838283FE0111C040815181028113812C
:101F200048175907E0F04817590799F4109761F0DE
:101F300012960C93129713961C933296CF01DF9151
:101F4000CF911F910F910895009370021093710229
:101F5000F4CF2115310551F04217530738F0A9018C
:101F6000DB019A01BD01DF01F801C1CFEF01F9CF1B
:101F70009093710280937002CDCFFE01E20FF31FA8
:101F8000819391932250310939832883D7CF2091AF
:101F90006E0230916F02232B41F4209103013091A6
:101FA000040130936F0220936E0220910101309161
:101FB00002012115310541F42DB73EB740910501CD
:101FC00050910601241B350BE0916E02F0916F02D7
:101FD000E217F307A0F42E1B3F0B2817390778F000
:101FE000AC014E5F5F4F2417350748F04E0F5F1F5F
:101FF00050936F0240936E02819391939FCFF0E0D4
:10200000E0E09CCFCF93DF930097E9F0FC0132979B
:1020100013821282A0917002B0917102ED0130E042
:1020200020E01097A1F420813181820F931F20912D
:102030006E0230916F022817390709F061C0F093E2
:102040006F02E0936E02DF91CF910895EA01CE17FF
:10205000DF07E8F54A815B819E0141155105B1F723
:10206000E901FB83EA8349915991C40FD51FEC170D
:10207000FD0761F4808191810296840F951FE9012B
:1020800099838883828193819B838A83F0E0E0E057
:1020900012968D919C9113970097B9F52D913C91D3
:1020A0001197CD010296820F931F20916E023091FD
:1020B0006F022817390739F6309751F510927102DF
:1020C00010927002B0936F02A0936E02BCCFD383C4
:1020D000C28340815181840F951FC817D90761F4CD
:1020E0004E5F5F4F88819981480F591F518340830C
:1020F0008A819B81938382832115310509F0B0CFBA
:10210000F0937102E09370029ECFFD01DC01C0CF1D
:1021100013821282D7CFB0E0A0E0E1E9F0E10C94A5
:10212000B40E8C01009751F4CB010E94660F8C0114
:10213000C801CDB7DEB7E0E10C94D00EFC01E60F8C
:10214000F71F9C0122503109E217F30708F49DC0E4
:10215000D901CD91DC911197C617D70798F0C530FA
:10216000D10530F3CE0104978617970708F3C61BF5
:10217000D70B2297C193D1936D937C93CF010E948B
:102180000210D6CF5B01AC1ABD0A4C018C0E9D1E0D
:10219000A0917002B0917102512C412CF12CE12CD4
:1021A000109731F580916E0290916F028815990514
:1021B00009F05CC04616570608F058C0809101012E
:1021C00090910201009741F48DB79EB740910501AF
:1021D00050910601841B950BE817F90708F055C0CC
:1021E000F0936F02E0936E02F90171836083A0CFD8
:1021F0008D919C91119712966C90129713967C90EA
:102200001397A815B90559F56C0142E0C40ED11C0D
:10221000CA14DB0420F1AC014A195B09DA011296F9
:10222000159780F06282738251834083D9016D9348
:102230007C93E114F10471F0D7011396FC93EE93B3
:10224000129776CF22968C0F9D1FF9019183808380
:10225000F301EFCFF0937102E093700269CF48165B
:10226000590608F42C017D01D3019ACFCB010E94BD
:10227000660F7C01009749F0AE01B8010E94481139
:10228000C8010E940210870153CF10E000E050CF38
:10229000FB01DC0102C001900D9241505040D8F783
:1022A0000895FB01DC0101900D920020E1F70895F3
:1022B00010E0C3E6D0E004C0FE010E943E0F21966C
:0A22C000C436D107C9F7F894FFCF28
:1022CA00FF000072028000000000000F0456039C09
:1022DA00035C04CD03AB03BF030000000095045662
:1022EA000328059404F10407057C040D0A00740010
:0222FA0066007C
:00000001FF
