:100000000C9464000C948C000C948C000C948C0068
:100010000C948C000C948C000C948C000C94BC09F7
:100020000C948C000C948C000C948C000C948C0020
:100030000C948C000C948C000C948C000C948C0010
:100040000C9472090C948C000C948C000C948C0011
:100050000C948C000C948C000C948C000C948C00F0
:100060000C948C000C948C000000000024002700ED
:100070002A000000000023002600290000000008DC
:10008000000201000003040700000000000000005F
:10009000010204081020408001020408102001021F
:1000A0000408102000000000250028002B00040494
:1000B0000404040404040202020202020303030310
:1000C000030302002910891011241FBECFEFD8E0CE
:1000D000DEBFCDBF11E0A0E0B1E0E6E7F9E202C08B
:1000E00005900D92A432B107D9F721E0A4E2B1E066
:1000F00001C01D92A03FB207E1F710E0C3E6D0E0D7
:1001000004C02197FE010E947C13C236D107C9F7B3
:100110000E945D0A0C94AE140C94000023E630E0BB
:10012000FC0150E040E0421753077CF4608171818C
:10013000A281B381A617B70724F4B183A083738388
:1001400062834F5F5F4F3296EECF2150310941F706
:1001500008958F929F92AF92BF92CF92DF92EF92CB
:10016000FF920F931F93FC014B01AA24BB24C52EC1
:10017000D62EE72EFF24BC2DA42F9091CD01B82CB4
:10018000992391F0A92FB0E0A89D9001A99D300D71
:10019000B89D300D1124B32E9C9D60011124BD2DFE
:1001A000949F80011124A12F4091D3012091CE0171
:1001B0003091CF018091D001481324C0CF01880F26
:1001C000991F8E0F9F1F820F931FE091D001E80FA0
:1001D000F92FF11DB082E091D101E80FF92FF11D47
:1001E000B0832091D201820F911DFC01A0831F9149
:1001F0000F91FF90EF90DF90CF90BF90AF909F90C6
:100200008F900895CF01880F991F880F991F820F33
:10021000931FFC01E40FF11D1082D7CF1F93CF93E2
:10022000DF9311E0180F2091CD011217A1F1C091B9
:10023000CE01D091CF01215070E060E061F08F3F9E
:10024000F1F430E050E040E06FEF7FEF80E090E0CD
:100250000E945311B901FE014091C9015091CA0198
:10026000CF018C1B9D0B8417950798F44081469F06
:10027000C001479F900D112490833196EDCF812FBF
:1002800090E0982F88270197622F70E00E94541306
:10029000E2CF1093CD01DF91CF911F91089583306C
:1002A00081F028F4813099F08230A9F008958730E8
:1002B000A9F08830C9F08430B1F4809180008F7D3E
:1002C00003C0809180008F7780938000089584B56B
:1002D0008F7784BD089584B58F7DFBCF8091B0006A
:1002E0008F778093B00008958091B0008F7DF9CF13
:1002F000CF93DF93282F30E0F901E458FF4F84912A
:10030000F901E057FF4FD491F901E255FF4FC49135
:10031000CC23A1F081110E944F01EC2FF0E0EE0FF1
:10032000FF1FEE58FF4FA591B491EC91ED2381E0B2
:1003300090E009F480E0DF91CF91089580E090E0B3
:10034000FACF1F93CF93DF93282F30E0F901E458C1
:10035000FF4F8491F901E057FF4FD491F901E25525
:10036000FF4FC491CC23A9F0162F81110E944F0199
:10037000EC2FF0E0EE0FFF1FEC55FF4FA591B4916D
:100380008FB7F894EC91111108C0D095DE23DC935F
:100390008FBFDF91CF911F910895DE2BF8CFCF93C0
:1003A000DF9390E0FC01E057FF4F249182559F4F6F
:1003B000FC0184918823C9F090E0880F991FFC010B
:1003C000E859FF4FA591B491FC01EC55FF4FC59141
:1003D000D49161110DC09FB7F8948C912095822320
:1003E0008C938881282328839FBFDF91CF91089524
:1003F000623051F49FB7F8943C91822F809583230B
:100400008C93E8812E2BEFCF8FB7F894EC912E2BA5
:100410002C938FBFEACF4F925F926F927F928F9211
:100420009F92AF92BF92CF92DF92EF92FF920F9383
:100430001F93CF93DF9300D000D01F92CDB7DEB7CC
:100440008C012A013B01809106018330C9F08F3F66
:1004500009F47FC00F900F900F900F900F90DF91D5
:10046000CF911F910F91FF90EF90DF90CF90BF90B1
:10047000AF909F908F907F906F905F904F90089576
:10048000E2ECF0E084918D8387FDE4CF61E083E0CE
:100490000E94CF018D81882321F09D81923009F047
:1004A0005CC14801B12CA12C60E072E18AE790E0C8
:1004B000A50198010E94531129833A834B835C83E1
:1004C00069017A0181E0C81AD108E108F1089FEFBB
:1004D000C916D104E104F10409F00CF413C160E47D
:1004E00072E48FE090E0A50198010E945311690128
:1004F0007A0181E0C81AD108E108F1089D819230A3
:1005000009F098C08FEFC816D104E104F10409F096
:100510000CF4DDC160E970ED83E090E0A501980185
:100520000E94531169017A0191E0C91AD108E108CA
:10053000F1088FEFC816D104E104F10411F00CF0BA
:10054000A3C183E09091B100987F892B8093B10083
:10055000E1C083E080930601E2ECF0E094919D839A
:100560009F3F09F477CF913029F158F0923009F488
:100570003FC08D8187FD6ECF61E083E00E94CF0197
:100580008CCF14BC15BC84B5826084BD85B58160F8
:1005900085BDE1EBF0E0E491F0E0EE0FFF1FEC55DC
:1005A000FF4F85919491E3E9F0E0E491E093DF015E
:1005B0001D826CCF1092800010928100809181008A
:1005C00088608093810080918100816080938100A8
:1005D000E1EBF0E0E491F0E0EE0FFF1FEC55FF4F90
:1005E00085919491E3E9F0E0E491E093DE014ECF50
:1005F0001092B0001092B1008091B00082608093A0
:10060000B0008091B10081608093B100E1EBF0E037
:10061000E491F0E0EE0FFF1FEC55FF4F85919491B0
:100620009093DD018093DC01E3E9F0E0E491E09355
:10063000DB012CCF9FEFC916D104E104F10409F0CE
:100640000CF489C068E478EE81E090E0A50198019F
:100650000E94531169017A0181E0C81AD108E108AA
:10066000F1089D81992309F428C19FEFC916D1048F
:10067000E104F10409F00CF41EC162E17AE780E0C4
:1006800090E0A50194010E94531169017A0181E073
:10069000C81AD108E108F1089D81992309F4EBC03B
:1006A0008FEFC816D104E104F10411F008F0BFC0C7
:1006B00086E048CF64E274EF80E090E0A501940109
:1006C0000E94531169017A0181E0C81AD108E1083A
:1006D000F10885E09FEFC916D104E104F10409F0A7
:1006E00008F430CF62E17AE780E090E0A501940160
:1006F0000E94531169017A0191E0C91AD108E108F9
:10070000F108CECF81E09D8191111CCF95B5987FE6
:10071000892B85BD2FEF3FEFA901411451046104DE
:10072000710409F043C09D81913009F45EC092309C
:1007300009F46DC091118ECEC7BC2093E8013093AF
:10074000E9014093EA015093EB0180916E008260D1
:1007500080936E007FCE82E0D6CFB12CA12C60E0DA
:1007600072E18AE790E0A50198010E9453116901A6
:100770007A0181E0C81AD108E108F108C114D10456
:1007800091E0E906F10404F591E08D81813011F6E4
:1007900080918100887F892B809381002FEF3FEF2C
:1007A000A9014114510461047104F9F0D801AA0FA0
:1007B000BB1FA30192010E94721128EE33E040E0BA
:1007C00050E00E948511AFCF68E478EE81E090E0C0
:1007D000A50198010E94531169017A0181E0C81AAC
:1007E000D108E108F10893E0D0CFD0928900C092FF
:1007F00088002093E4013093E5014093E601509393
:10080000E70180916F00826080936F0023CEC092D9
:10081000B3002093E0013093E1014093E201509353
:10082000E3018091700082608093700013CEC980D4
:10083000DA80EB80FC809AE0F594E794D794C79433
:100840009A95D1F791E0C91AD108E108F10887E03B
:1008500079CEC980DA80EB80FC808AE0F594E79459
:10086000D794C7948A95D1F791E0C91AD108E108C5
:10087000F10885E04BCF8FEFC816D104E104F104F5
:1008800009F038F784E042CF68E478EE81E090E048
:10089000A50198010E94531169017A0191E0C91ADA
:1008A000D108E108F1088FEFC816D104E104F10482
:1008B00011F00CF0FFCE84E045CE8FEFC816D104C6
:1008C000E104F10411F00CF0D8CE83E01FCF82E0F8
:1008D00039CE1F93CF93DF93182FEB0161E00E9475
:1008E000CF01209739F460E0812FDF91CF911F91E4
:1008F0000C94A101CF3FD10511F461E0F5CFE12FB8
:10090000F0E0E458FF4FE491E33031F140F4E1309E
:10091000B1F0E230E1F0C038D1057CF7E4CFE73048
:1009200029F1E83059F1E430B1F78091800080621C
:1009300080938000D0938B00C0938A0004C084B55C
:10094000806884BDC7BDDF91CF911F91089584B5A4
:10095000806284BDC8BDF7CF80918000806880939D
:100960008000D0938900C0938800EDCF8091B000C3
:1009700080688093B000C093B300E5CF8091B00051
:1009800080628093B000C093B400DDCF8E5080644D
:1009900080937C0080917A00806480937A008091BB
:1009A0007A0086FDFCCF80917800909179000895BF
:1009B0003FB7F8948091C1019091C201A091C30109
:1009C000B091C40126B5A89B05C02F3F19F0019630
:1009D000A11DB11D3FBFBA2FA92F982F8827BC0199
:1009E000CD01620F711D811D911D42E0660F771FC1
:1009F000881F991F4A95D1F708950F931F93CF939E
:100A0000DF93CDB7DEB729970FB6F894DEBF0FBEE0
:100A1000CDBF8091CE019091CF01892B09F47CC08C
:100A20000E94D8040091D4011091D5012091D601E3
:100A30003091D701601771078207930740F46093E4
:100A4000D4017093D5018093D6019093D701009182
:100A5000D4011091D5012091D6013091D701601BAE
:100A6000710B820B930B6C32714081059105C0F2C2
:100A7000F8948091C9019091CA019A838983E09189
:100A8000CE01F091CF01DF0111968081898790918D
:100A9000C501E091D801F091D9018091DA01992343
:100AA00009F445C09081982B98879081809589237F
:100AB0008F838F818C8388E08B8358856F814985F4
:100AC0003B812C8189819A81508347FD252F3A955E
:100AD0002083262F39F0441F00C0000060830000EF
:100AE00000C0F2CF38E04D9160830000019761F7BC
:100AF000F093D901E093D80149873B832C839A83F3
:100B0000898378940E94D8046093D4017093D501AE
:100B10008093D6019093D70129960FB6F894DEBF43
:100B20000FBECDBFDF91CF911F910F91089590819E
:100B3000982B98879081809589238F838F818E83CE
:100B400088E08D8358856F8149853D812E8189811B
:100B50009A81508347FD252F00C000C0208300C02C
:100B600000C000C000C000C060830000262F3A957E
:100B700041F0441F000000C000C000C000C000C021
:100B8000E8CF38E04D9100C0608300C0019709F7BD
:100B9000F093D901E093D80149873D832E83AFCFED
:100BA0008F929F92AF92BF92CF92DF92EF92FF927D
:100BB0004B015C010E94D8046B017C010E94D804A7
:100BC0006C197D098E099F09683E73408105910566
:100BD000A8F321E0821A9108A108B10888EEC80E96
:100BE00083E0D81EE11CF11C81149104A104B1041E
:100BF00029F7FF90EF90DF90CF90BF90AF909F903C
:100C00008F9008959091060189130BC0E2ECF0E0FB
:100C1000E4919FEF90930601E13049F028F0E23033
:100C200061F060E00C94A10110926E00FACF9091F7
:100C30006F009D7F90936F00F4CF909170009D7F27
:100C40009093700091E09093B0009091B100987FE4
:100C500094609093B1001092B300E3CFFC01AC011B
:100C6000465F5F4F8FEF9FEF2191922728E0BC01F5
:100C7000880F991F77FF04C031E2832730E1932763
:100C80002150A9F7E417F50779F70895CF92DF927D
:100C9000EF92FF92CF93DF936B017C01D0E0C0E035
:100CA0008091C7019091C801C817D90728F4B701EE
:100CB000A601CE010E94A9002196C430D10581F77A
:100CC000DF91CF91FF90EF90DF90CF900C94FD04D7
:100CD000CF93DF93EC014093A2015093A301609363
:100CE000A4017093A5019093AD018093AC01109283
:100CF0009E0110929D0161E0049709F060E082E09E
:100D00000E94A10161E0C530D10509F060E084E0F6
:100D10000E94A1012497229760F0CCE3D0E0BE01AD
:100D200085E00E946904BE0186E0DF91CF910C94BA
:100D30006904C6E4D0E0F3CFCF92DF92EF92FF9246
:100D4000CF93DF936B017C0170E060E085E00E944F
:100D5000690470E060E086E00E9469041092AD01D1
:100D60001092AC0180919501882309F44CC08091C8
:100D7000B0019091B101029709F045C0C091930173
:100D8000D09194018091960190919701C817D9074D
:100D9000E4F468EC70E080E090E00E94D005CE01C1
:100DA00001969093940180939301CC0FDD1FC15D58
:100DB000DE4FB701A60188819981DF91CF91FF9025
:100DC000EF90DF90CF900C9468061092950146E961
:100DD00050E060E070E08BE092E00E940B0266E978
:100DE00070E080E090E00E94D00546E950E060E0CD
:100DF00070E083E992E0DF91CF91FF90EF90DF9078
:100E0000CF900C940B02DF91CF91FF90EF90DF9089
:100E1000CF90089570E060E085E00E94690470E082
:100E200060E086E00E9469041092AD011092AC016E
:100E3000109295011092A1011092B1011092B0018F
:100E40001092AF011092AE01109299011092980188
:100E500060E07FEF80E090E00C944606CF93C82FCF
:100E600090E080E00E943D11C81731F06C2F90E0B7
:100E700080E0CF910C944511CF910895EF92FF92AD
:100E80000F931F93CF93DF93EC0190E080E00E94DB
:100E90003D11853A11F020E030C07E0101E010E004
:100EA000C8010E943D11F70181937F010F5F1F4F21
:100EB0000D301105A9F788819981AA81BB81813301
:100EC0009344A745B24439F78C819D81019719F766
:100ED0008E819F81885C910981159440E0F6888518
:100EE000998586369440B8F6CE010E942E0621E000
:100EF0004A855B854817590771F6822FDF91CF919C
:100F00001F910F91FF90EF9008952F923F924F9273
:100F10005F926F927F928F929F92AF92BF92CF9289
:100F2000DF92EF92FF920F931F93CF93DF93CDB792
:100F3000DEB7CC5AD1400FB6F894DEBF0FBECDBF9E
:100F400048EC50E060E070E08BE092E00E940B0221
:100F500060E082E00E94A10161E084E00E94A101C2
:100F6000CE0101967C016E0199ECC90ED11CC755CA
:100F7000DE4FD982C882C95AD14010E000E0C55581
:100F8000DE4FE882CB5AD140C455DE4FF882CC5AAE
:100F9000D140160124E6822E912CA12CB12C66E4BE
:100FA00070E085E00E94690466E470E086E00E94DB
:100FB000690462E370E080E090E00E94D00570E098
:100FC00060E085E00E94690470E060E086E00E94D5
:100FD00069046AE070E080E090E00E94D00580E162
:100FE0000E94C604081719070CF48C0184E10E94C2
:100FF000C604D7018D939D937D0185E10E94C604AF
:10100000F601819391936F018FB7F8944090BD01E1
:101010005090BE016090BF017090C0018FBF4091A1
:10102000C9015091CA0170E060E08091CE019091B9
:10103000CF010E94A714C301B201A50194010E942F
:101040008511237033278091C7019091C80128171B
:10105000390738F44FEF5FEF6FEF70E0C9010E947E
:10106000A9000E94FD04C755DE4F88819981C95AA5
:10107000D140E816F90609F092CF0E940A070853FA
:101080001F4F1093010100930001C555DE4F888169
:10109000CB5AD140C455DE4F9881CC5AD1400E94E2
:1010A0008E00C1010E948E002B853C85C354DF4F0A
:1010B00088819981CD5BD040280F391F9BE0F92EA4
:1010C000F29EC001F39E900D1124E4E1F0E0BF0117
:1010D0000E9468139B01D1011A964D915C91CB57E8
:1010E000DE4F88819981C558D140480F591FF49E21
:1010F000C001F59E900D1124BF010E946813620F7C
:10110000731F77FF02C06F5F7F4F75956795709370
:10111000050160930401C955DE4F19821882C75A30
:10112000D14081E393E4A7E5B2E4C356DE4F888360
:101130009983AA83BB83CD59D14081E090E0CF55FC
:10114000DE4F99838883C15AD140CD55DE4F198334
:101150000883C35AD140CB55DE4F79836883C55A83
:10116000D140085C11090115144008F0B9C0663679
:10117000744008F0B5C0CE0183569E4F0E942E06E3
:10118000C955DE4F99838883C75AD140CE018F5607
:101190009E4F0E943E07882309F45FC0C956DE4F68
:1011A00028813981C759D140CD55DE4F8881998139
:1011B000C35AD1402817390709F04FC0C756DE4F30
:1011C00028813981C959D140CB55DE4F8881998119
:1011D000C55AD1402817390709F03FC011E060E037
:1011E0007FEF80E090E00E94460648E552E060E034
:1011F00070E086E091E01123A1F044E650E060E069
:1012000070E083E992E00E940B0264E670E080E007
:1012100090E00E94D00544E650E060E070E080E19C
:1012200093E00E940B02C455DE4F0FB6F894DEBF68
:101230000FBECDBFDF91CF911F910F91FF90EF9027
:10124000DF90CF90BF90AF909F908F907F906F90E6
:101250005F904F903F902F90089580E00E942E075E
:10126000CE0183569E4F7C0101E010E0D701DD9056
:101270007D01C8010E943D11D81621F06D2DC801D5
:101280000E9445110F5F1F4F0D30110579F785EA58
:101290000E942E07CE018F569E4F0E943E07882344
:1012A000F9F0C956DE4F28813981C759D140CD5553
:1012B000DE4F88819981C35AD1402817390781F4BC
:1012C000C756DE4F28813981C959D140CB55DE4FF1
:1012D00088819981C55AD1402817390709F47ECFF2
:1012E00010E07DCF1F920F920FB60F9211242F9313
:1012F0003F938F939F93AF93BF938091BD01909144
:10130000BE01A091BF01B091C0013091BC0123E0AA
:10131000230F2D3758F50196A11DB11D2093BC0157
:101320008093BD019093BE01A093BF01B093C00113
:101330008091C1019091C201A091C301B091C401FB
:101340000196A11DB11D8093C1019093C201A0938C
:10135000C301B093C401BF91AF919F918F913F9111
:101360002F910F900FBE0F901F90189526E8230F16
:101370000296A11DB11DD2CF1F920F920FB60F92F0
:1013800011242F933F934F935F936F937F938F938A
:101390009F93AF93BF93EF93FF938091E001909160
:1013A000E101A091E201B091E301892B8A2B8B2B03
:1013B000D1F19091DB01E091DC01F091DD018081C0
:1013C000892780838091E0019091E101A091E20161
:1013D000B091E301181619061A061B069CF48091B9
:1013E000E0019091E101A091E201B091E301019748
:1013F000A109B1098093E0019093E101A093E2017A
:10140000B093E301FF91EF91BF91AF919F918F91C5
:101410007F916F915F914F913F912F910F900FBEF0
:101420000F901F901895809106010E940206EACF46
:10143000CF92DF92EF92FF920F931F93E82FF92F35
:1014400005C0015011092109310961F190819623EC
:101450009417B9F305C0015011092109310911F19F
:10146000908196239413F7CFC12CD12CE12CF12C31
:101470000AC08FEFC81AD80AE80AF80A0C151D0529
:101480002E053F0579F080818623841791F36C2D1A
:101490007D2D8E2D9F2D1F910F91FF90EF90DF904E
:1014A000CF90089560E070E080E090E01F910F9190
:1014B000FF90EF90DF90CF900895CF93DF93CDB75B
:1014C000DEB762970FB6F894DEBF0FBECDBF78943B
:1014D00084B5826084BD84B5816084BD85B5826039
:1014E00085BD85B5816085BD80916E0081608093EA
:1014F0006E00109281008091810082608093810053
:101500008091810081608093810080918000816062
:10151000809380008091B10084608093B1008091BD
:10152000B00081608093B00080917A0084608093E5
:101530007A0080917A00826080937A0080917A00AC
:10154000816080937A0080917A00806880937A002D
:101550001092C10061E082E00E94CF0161E085E06D
:101560000E94CF0161E084E00E94CF0161E086E04B
:101570000E94CF0161E083E00E94CF0161E08AE038
:101580000E94CF0161E08BE00E94CF0162E087E022
:101590000E94CF0162E088E00E94CF0161E08DE00F
:1015A0000E94CF0160E08CE00E94CF01CE01019645
:1015B0000E943E07882361F08F81988590930101F6
:1015C0008093000189859A85909305018093040199
:1015D00083E10E94C604BC01990F880B990B611529
:1015E00071058105910511F00E9434118091CB01A4
:1015F0009091CC0197FDD8C061E00E94CF0160E0DE
:101600008091CB010E94A10181E08093C601E0910D
:101610000201F0910301EE0FFF1FEF5EFE4F80818C
:101620000E940E010E94FD040E940A0722242394B6
:10163000312C8FB7F8944090BD015090BE0160905E
:10164000BF017090C0018FBF8EE00E94C6045C0194
:1016500021E02F87843691050CF01F868FE00E94D1
:10166000C6046C0141E0488B843691050CF0188A61
:1016700087E00E9478017C0181E0898BE114F1040C
:1016800009F0198A88E00E9478018C0191E09A8B18
:101690000115110509F01A8A80E10E94C6049E878F
:1016A0008D87809000019090010181E0ED85FE859D
:1016B0008E169F060CF080E08093B401F4E6AF161E
:1016C000B1040CF074C0B090270121E0B226B092B2
:1016D0009C0134E6C316D1040CF06BC0D0902601F7
:1016E00041E0D426D092B501EF2809F064C0F09013
:1016F000250151E0F526F0929B01012B09F05DC018
:101700001091240181E0182710939A019F859093EE
:101710002701E889E0932601F989F09325012A89B8
:10172000209324018091BB01882309F44CC080914F
:10173000B7019091B801A091B901B091BA01A3018C
:101740009201281B390B4A0B5B0BDA01C901893C5A
:101750009105A105B105B8F04092B7015092B801CA
:101760006092B9017092BA018091B60131E083278D
:101770008093B601882319F140E050E0BA0188EE69
:1017800093E00E940B02DD2039F01092BB0183E050
:101790000E9402060E940A0780E090E0892B09F46B
:1017A00048CF0E94000045CF1092C60130CFB12C27
:1017B0008ECFD12C97CFF12C9ECF10E0A5CF83E018
:1017C0000E940206E0CF80919801909199010097C4
:1017D00001F560E08AE00E94A10160E08BE00E94D8
:1017E000A1014D855E85841695060CF04AC0DD206A
:1017F00009F447C00E940A071092B3011092B20187
:101800004CE251E060E070E086E091E00E940B0263
:10181000C3CF60E08130910521F08330910531F430
:1018200061E08AE00E94A10161E0D8CF0297C9F689
:101830008091290190912A01A0912B01B0912C0156
:10184000A3019201281B390B4A0B5B0BDA01C9017A
:101850008B3F9105A105B10520F2409229015092DC
:101860002A0160922B0170922C010091280131E035
:10187000032700932801602F8AE00E94A101602FB6
:10188000ADCF8091B0019091B101009709F0CAC02D
:10189000FF2009F47FC00E94850784E10E94C604EE
:1018A0009093AB018093AA0185E10E94C6049093B6
:1018B000A9018093A8018091AC019091AD0100979E
:1018C00009F46ACF019709F050C260E08DE00E94F0
:1018D000A10183E090E00197F1F761E08DE00E94C3
:1018E000A10183E290E00197F1F760E08DE00E94B2
:1018F000A101ECE9F0E06491EAEBF0E08491E82FDB
:10190000F0E0EE0FFF1FEE58FF4F8591949108E82D
:1019100013E120E030E0462F0E94180A611571059E
:101920008105910529F06F5F7F4F8F4F9F4F9F700B
:101930000E94591226E933E44BE05DE30E94E7126E
:1019400020E030E040E05FE30E94E7120E942312B3
:101950006150710981099109633071058105910513
:1019600008F003C2F1E0F093BB011092AD011092B8
:10197000AC0170E060E085E00E94690470E060E026
:1019800086E00E94690460E070E08FEF90E00E94C2
:10199000460602CFBB2001F1809102019091030124
:1019A000019665E070E00E946813909303018093B4
:1019B0000201880F991FFC01EF5EFE4F80810E949B
:1019C0000E010E94FD0444E650E060E070E08AE40D
:1019D00091E00E940B0261CFDD2009F45ECF8D857E
:1019E0009E85881699060CF458CF1092AF0110927C
:1019F000AE0110922E0110922D0184E090E09093A0
:101A0000B1018093B00130929901209298016FEF5B
:101A10007FEF8FEF90E00E94460644E650E060E0E2
:101A200070E06FC02091AE013091AF0121153105FA
:101A300009F07DC0112309F444C03092B301209213
:101A4000B20180912D0190912E01019664E070E029
:101A50000E94681390932E0180932D01880F991F87
:101A6000FC01E55EFE4F008111811093B1010093EE
:101A7000B00144E650E060E070E088E891E00E9448
:101A80000B026FEF70E080E090E002301105B1F0E2
:101A90006FEF70E080E890E00330110579F060E0CE
:101AA00070E08FEF90E00130110541F00430110536
:101AB00009F0F3CE60E07FEF8FEF90E00E944606E2
:101AC000ECCEDD2009F4E9CE2091B2013091B301D2
:101AD0002130310509F0E1CE8130910511F00497F4
:101AE00099F4E2E0F0E0F093AF01E093AE0123E07F
:101AF00030E0309399012093980148EC50E060E089
:101B000070E08BE092E065CF3093AF012093AE019F
:101B100042E050E050939901409398011092970150
:101B2000109296011092A00110929F01E6CF823090
:101B3000910509F443C0C0F4019709F0AECE2230FC
:101B4000310509F0AACE8091AC019091AD01892BAD
:101B500009F0A3CEB110DCC0FF2009F4F4C0B3013A
:101B6000A20184E090E08BC08330910509F4A6C007
:101B7000049709F092CE2230310509F08ECEBB20B9
:101B800009F48BCE8091A101882309F4E4C010925E
:101B9000A10170E060E085E00E94690470E060E00F
:101BA00086E00E9469041092AD011092AC0148ECED
:101BB00050E060E070E088E891E00BCF2130310523
:101BC00009F03FC0B11018C0F11036C088E891E0AC
:101BD00045E050E0111114C0DD2009F45ECE82E032
:101BE00090E09093AF018093AE01E3E0F0E0F093DA
:101BF0009901E093980181CF8BE092E041E050E0C1
:101C00002091960130919701223331052CF7B901CB
:101C10006F5F7F4F7093970160939601220F331F80
:101C2000F901E15DFE4F5183408344E650E060E0FE
:101C300070E00E940B02D0CF8AE491E044E050E0D3
:101C4000DFCF2230310509F028CEBB20D9F08091BA
:101C500096019091970118161906A4F480919501A8
:101C600081111BCEF1E0F093950130929401209206
:101C70009301B301A20180912F01909130010E9444
:101C800068060BCEDD2009F408CE80919501811104
:101C900004CE3092AF012092AE01109297011092C3
:101CA000960122E030E0309399012093980148ECAE
:101CB00050E060E070E086E091E08BCE21303105AD
:101CC00099F4FF2009F488CF80919F019091A001A1
:101CD00001969093A00180939F0144E650E060E05C
:101CE00070E08AE491E0A5CF2230310509F0D5CD2E
:101CF000BB2099F080919F019091A00118161906C0
:101D000064F48091A1018111C8CD31E03093A1012B
:101D1000B301A20181E090E0B2CFDD2009F4BDCD96
:101D20008091A1018111B9CD3092AF012092AE0115
:101D30001092A00110929F0142E050E0509399014F
:101D400040939801B4CFB301A20185E090E0112344
:101D500009F4A3CD94CF51E05093A101B301A201A6
:101D600081E090E00E94680658CE8091AC0190918D
:101D7000AD018230910509F4ABC008F079C001973C
:101D800009F00ACDE090AA01F090AB01C090A80143
:101D9000D090A90187010C191D098091A60190918D
:101DA000A701B801681B790B072E000C880B990B53
:101DB0000E945B1220E030E040E05FE30E94E71207
:101DC0004B015C01B801012E000C880B990B0E949D
:101DD0005B122DEC3CEC4CEC5DE30E94E7129B01A6
:101DE000AC01C501B4010E94B7110E9423124B013E
:101DF0001093A7010093A6016CE370E068197909BC
:101E00006F3F710519F014F06FEF70E077FF02C0BB
:101E100070E060E085E00E946904B401645C7F4F7B
:101E20006F3F710519F014F06FEF70E077FF02C09B
:101E300070E060E086E00E94690480910401909166
:101E400005018E159F050CF0A7CC8C159D050CF097
:101E5000A3CC4092A2015092A3016092A40170927F
:101E6000A50122E030E03093AD012093AC0194CC89
:101E70008430910509F4A7C0059709F08DCC8091B5
:101E8000A2019091A301A091A401B091A501A30189
:101E90009201281B390B4A0B5B0BDA01C9018C320A
:101EA0009140A105B10508F477CC80919D019091F6
:101EB0009E012091A8013091A901009709F4A3C0C7
:101EC000019709F069CC2091AA013091AB01AFC014
:101ED0008091A2019091A301A091A401B091A501CC
:101EE000A3019201281B390B4A0B5B0BDA01C901D4
:101EF0008B369340A105B105F0F18091A1018823B3
:101F0000F9F08091B0019091B10184309105E9F030
:101F10000397B1F480919F019091A0010197909354
:101F2000A00180939F01181619067CF01092A10160
:101F30004CE251E060E070E08BE092E00E940B0226
:101F4000C301B2010E949C0627CC0E94E51022E04A
:101F500030E040E050E00E945311672B39F4B301A8
:101F6000A20184E090E00E94680616CCB301A201B1
:101F700085E090E0F8CF80910401909105012091D7
:101F8000A8013091A9014091AA015091AB014817D5
:101F9000590744F06DE270E02817390754F06CE3FC
:101FA00070E007C06CE370E00DE210E0281739071D
:101FB00014F40CE310E085E00E946904B80186E0A7
:101FC0000E946904E9CB8091A2019091A301A091A4
:101FD000A401B091A501A3019201281B390B4A0B62
:101FE0005B0BDA01C9018C329140A105B10508F4FF
:101FF000D3CB80919D0190919E01009789F420910F
:10200000AA013091AB0180910401909105018217E2
:1020100093070CF0C1CB30929E0120929D01BCCB66
:102020002091A8013091A901019709F0B5CB8091C9
:10203000040190910501821793070CF0ADCB8091BC
:10204000A101882309F47CCFB301A20181E090E0D3
:102050008ACF1092C6011092CD011092D401109235
:10206000D5011092D6011092D70181E08093D3015F
:102070008093D0011092D10192E09093D20180938D
:10208000C5018CE090E09093CA018093C9010E9441
:1020900082139093CF018093CE01009789F12CE0B9
:1020A000FC0111922A95E9F784E090E09093C80131
:1020B0008093C70189E090E09093CC018093CB019D
:1020C0008091C601882341F061E089E00E94CF0140
:1020D00060E089E00E94A101E7EBF0E0E491F0E02C
:1020E000EE0FFF1FEC55FF4F859194919093D9010E
:1020F0008093D801E9E9F0E0E491E093DA010895F2
:102100001092CA011092C9011092C8011092C70121
:10211000D1CF8091CE019091CF010E941E14809169
:10212000CB019091CC0197FD03C060E00C94CF01EE
:1021300008958F929F92AF92BF92CF92DF92EF92CB
:10214000FF92CF93DF93EC01688179818A819B8133
:10215000611571058105910521F464E279ED8BE546
:1021600097E02DE133EF41E050E00E945311490127
:102170005A019B01AC01A7EAB1E40E9472116B0104
:102180007C01ACEEB4EFA50194010E948011C60E53
:10219000D71EE81EF91EF7FE06C081E0C81AD10856
:1021A000E10880E8F80AC882D982EA82FB82C70186
:1021B000B6019F77DF91CF91FF90EF90DF90CF90A6
:1021C000BF90AF909F908F9008958F929F92AF9203
:1021D000BF92CF92DF92EF92FF92609107017091D0
:1021E00008018091090190910A016115710581052D
:1021F000910521F464E279ED8BE597E02DE133EF71
:1022000041E050E00E94531149015A019B01AC0189
:10221000A7EAB1E40E9472116B017C01ACEEB4EF4D
:10222000A50194010E948011C60ED71EE81EF91E5A
:10223000F7FE06C081E0C81AD108E10880E8F80A74
:10224000C0920701D0920801E0920901F0920A01C0
:10225000C701B6019F77FF90EF90DF90CF90BF90BE
:10226000AF909F908F90089560930701709308013D
:102270008093090190930A010895F999FECF92BDC8
:1022800081BDF89A992780B50895262FF999FECF38
:102290001FBA92BD81BD20BD0FB6F894FA9AF99A83
:1022A0000FBE01960895052E97FB1EF400940E9420
:1022B0006A1157FD07D00E94851107FC03D04EF428
:1022C0000C946A1150954095309521953F4F4F4F92
:1022D0005F4F089590958095709561957F4F8F4FD2
:1022E0009F4F08950E94A711A59F900DB49F900D38
:1022F000A49F800D911D11240895B7FF0C947211B5
:102300000E947211821B930B0895A1E21A2EAA1B40
:10231000BB1BFD010DC0AA1FBB1FEE1FFF1FA21795
:10232000B307E407F50720F0A21BB30BE40BF50B92
:10233000661F771F881F991F1A9469F7609570951B
:10234000809590959B01AC01BD01CF010895A29F9E
:10235000B001B39FC001A39F700D811D1124911D79
:10236000B29F700D811D1124911D08955058BB27F7
:10237000AA270E94CE110C94AD120E949F1238F031
:102380000E94A61220F039F49F3F19F426F40C9411
:102390009C120EF4E095E7FB0C949612E92F0E9434
:1023A000BE1258F3BA17620773078407950720F027
:1023B00079F4A6F50C94E0120EF4E0950B2EBA2FEA
:1023C000A02D0B01B90190010C01CA01A00111243B
:1023D000FF27591B99F0593F50F4503E68F11A16E7
:1023E000F040A22F232F342F4427585FF3CF469578
:1023F00037952795A795F0405395C9F77EF41F169A
:10240000BA0B620B730B840BBAF09150A1F0FF0F63
:10241000BB1F661F771F881FC2F70EC0BA0F621F4F
:10242000731F841F48F4879577956795B795F7953F
:102430009E3F08F0B0CF9395880F08F09927EE0FD4
:102440009795879508950E942A126894B1110C946B
:10245000E11208950E94C61288F09F5798F0B92F94
:102460009927B751B0F0E1F0660F771F881F991FC9
:102470001AF0BA95C9F714C0B13091F00E94E01279
:10248000B1E008950C94E012672F782F8827B85F89
:1024900039F0B93FCCF3869577956795B395D9F721
:1024A0003EF490958095709561957F4F8F4F9F4F2B
:1024B0000895E89409C097FB3EF490958095709537
:1024C00061957F4F8F4F9F4F9923A9F0F92F96E980
:1024D000BB279395F695879577956795B795F111F5
:1024E000F8CFFAF4BB0F11F460FF1BC06F5F7F4F92
:1024F0008F4F9F4F16C0882311F096E911C07723A4
:1025000021F09EE8872F762F05C0662371F096E8AC
:10251000862F70E060E02AF09A95660F771F881F7B
:10252000DAF7880F9695879597F9089597F99F6739
:1025300080E870E060E008959FEF80EC089500244B
:102540000A941616170618060906089500240A9418
:1025500012161306140605060895092E0394000C9E
:1025600011F4882352F0BB0F40F4BF2B11F460FF2D
:1025700004C06F5F7F4F8F4F9F4F089557FD905856
:10258000440F551F59F05F3F71F04795880F97FB37
:10259000991F61F09F3F79F08795089512161306F1
:1025A0001406551FF2CF4695F1DF08C01616170620
:1025B0001806991FF1CF8695710561050894089555
:1025C000E894BB2766277727CB0197F908950E94E7
:1025D000FA120C94AD120E949F1238F00E94A612BB
:1025E00020F0952311F00C9496120C949C12112457
:1025F0000C94E1120E94BE1270F3959FC1F3950FE7
:1026000050E0551F629FF001729FBB27F00DB11D76
:10261000639FAA27F00DB11DAA1F649F6627B00D06
:10262000A11D661F829F2227B00DA11D621F739FEF
:10263000B00DA11D621F839FA00D611D221F749FFD
:102640003327A00D611D231F849F600D211D822F44
:10265000762F6A2F11249F5750409AF0F1F088236B
:102660004AF0EE0FFF1FBB1F661F771F881F915098
:102670005040A9F79E3F510580F00C9496120C949F
:10268000E1125F3FE4F3983ED4F386957795679522
:10269000B795F795E7959F5FC1F7FE2B880F911DC2
:1026A0009695879597F90895AA1BBB1B51E107C022
:1026B000AA1FBB1FA617B70710F0A61BB70B881FD2
:1026C000991F5A95A9F780959095BC01CD01089561
:1026D00097FB072E16F4009407D077FD09D00E94CF
:1026E000541307FC05D03EF4909581959F4F0895B3
:1026F000709561957F4F0895EE0FFF1F0590F4913F
:10270000E02D09940F931F93CF93DF9382309105AF
:1027100010F482E090E0E091EE01F091EF0130E002
:1027200020E0B0E0A0E0309799F42115310509F4DC
:102730004AC0281B390B24303105D8F58A819B818A
:102740006115710589F1FB0193838283FE0111C03C
:10275000408151810281138148175907E0F04817E1
:10276000590799F4109761F012960C9312971396EB
:102770001C933296CF01DF91CF911F910F91089555
:102780000093EE011093EF01F4CF2115310551F0C4
:102790004217530738F0A901DB019A01BD01DF019F
:1027A000F801C1CFEF01F9CF9093EF018093EE01D3
:1027B000CDCFFE01E20FF31F819391932250310997
:1027C00039832883D7CF2091EC013091ED01232B61
:1027D00041F420910D0130910E013093ED012093D1
:1027E000EC0120910B0130910C012115310541F4D0
:1027F0002DB73EB740910F0150911001241B350BAE
:10280000E091EC01F091ED01E217F307A0F42E1B2B
:102810003F0B2817390778F0AC014E5F5F4F241744
:10282000350748F04E0F5F1F5093ED014093EC01C8
:10283000819391939FCFF0E0E0E09CCFCF93DF9323
:102840000097E9F0FC01329713821282A091EE0109
:10285000B091EF01ED0130E020E01097A1F420816C
:102860003181820F931F2091EC013091ED012817E7
:10287000390709F061C0F093ED01E093EC01DF91BD
:10288000CF910895EA01CE17DF07E8F54A815B8111
:102890009E0141155105B1F7E901FB83EA83499196
:1028A0005991C40FD51FEC17FD0761F48081918108
:1028B0000296840F951FE901998388838281938111
:1028C0009B838A83F0E0E0E012968D919C911397B0
:1028D0000097B9F52D913C911197CD010296820F89
:1028E000931F2091EC013091ED012817390739F63B
:1028F000309751F51092EF011092EE01B093ED0177
:10290000A093EC01BCCFD383C28340815181840F5B
:10291000951FC817D90761F44E5F5F4F8881998171
:10292000480F591F518340838A819B8193838283FF
:102930002115310509F0B0CFF093EF01E093EE01DE
:102940009ECFFD01DC01C0CF13821282D7CFDC0104
:1029500001C06D9341505040E0F7089510E0C3E688
:10296000D0E004C0FE010E947C132196C436D1073A
:06297000C9F7F894FFCF47
:10297600580202005802FF010000000000F001802A
:10298600000A0032006400B400FF000400010002E7
:04299600000300003A
:00000001FF
