:100000000C9464000C948C000C948C000C948C0068
:100010000C948C000C948C000C948C000C94D808DC
:100020000C948C000C948C000C948C000C948C0020
:100030000C948C000C948C000C948C000C948C0010
:100040000C948E080C948C000C948C000C948C00F6
:100050000C948C000C948C000C948C000C948C00F0
:100060000C948C000C948C000000000024002700ED
:100070002A000000000023002600290000000008DC
:10008000000201000003040700000000000000005F
:10009000010204081020408001020408102001021F
:1000A0000408102000000000250028002B00040494
:1000B0000404040404040202020202020303030310
:1000C000030302008A0FEA0F11241FBECFEFD8E00E
:1000D000DEBFCDBF11E0A0E0B1E0EAE1F8E202C08E
:1000E00005900D92AA32B107D9F721E0AAE2B1E05A
:1000F00001C01D92AA3FB207E1F710E0C3E6D0E0CD
:1001000004C02197FE010E94CE12C236D107C9F762
:100110000E9479090C9400140C94000023E630E04E
:10012000FC0150E040E0421753077CF4608171818C
:10013000A281B381A617B70724F4B183A083738388
:1001400062834F5F5F4F3296EECF2150310941F706
:1001500008958F929F92AF92BF92CF92DF92EF92CB
:10016000FF920F931F93FC014B01AA24BB24C52EC1
:10017000D62EE72EFF24BC2DA42F9091D701B82CAA
:10018000992391F0A92FB0E0A89D9001A99D300D71
:10019000B89D300D1124B32E9C9D60011124BD2DFE
:1001A000949F80011124A12F4091DD012091D8015D
:1001B0003091D9018091DA01481324C0CF01880F12
:1001C000991F8E0F9F1F820F931FE091DA01E80F96
:1001D000F92FF11DB082E091DB01E80FF92FF11D3D
:1001E000B0832091DC01820F911DFC01A0831F913F
:1001F0000F91FF90EF90DF90CF90BF90AF909F90C6
:100200008F900895CF01880F991F880F991F820F33
:10021000931FFC01E40FF11D1082D7CF1F93CF93E2
:10022000DF9311E0180F2091D7011217A1F1C091AF
:10023000D801D091D901215070E060E061F08F3F8A
:10024000F1F430E050E040E06FEF7FEF80E090E0CD
:100250000E949E10B901FE014091D3015091D4013A
:10026000CF018C1B9D0B8417950798F44081469F06
:10027000C001479F900D112490833196EDCF812FBF
:1002800090E0982F88270197622F70E00E949F12BC
:10029000E2CF1093D701DF91CF911F910895833062
:1002A00081F028F4813099F08230A9F008958730E8
:1002B000A9F08830C9F08430B1F4809180008F7D3E
:1002C00003C0809180008F7780938000089584B56B
:1002D0008F7784BD089584B58F7DFBCF8091B0006A
:1002E0008F778093B00008958091B0008F7DF9CF13
:1002F000CF93DF93282F30E0F901E458FF4F84912A
:10030000F901E057FF4FD491F901E255FF4FC49135
:10031000CC23A1F081110E944F01EC2FF0E0EE0FF1
:10032000FF1FEE58FF4FA591B491EC91ED2381E0B2
:1003300090E009F480E0DF91CF91089580E090E0B3
:10034000FACF1F93CF93DF93282F30E0F901E458C1
:10035000FF4F8491F901E057FF4FD491F901E25525
:10036000FF4FC491CC23A9F0162F81110E944F0199
:10037000EC2FF0E0EE0FFF1FEC55FF4FA591B4916D
:100380008FB7F894EC91111108C0D095DE23DC935F
:100390008FBFDF91CF911F910895DE2BF8CFCF93C0
:1003A000DF9390E0FC01E057FF4F249182559F4F6F
:1003B000FC0184918823C9F090E0880F991FFC010B
:1003C000E859FF4FA591B491FC01EC55FF4FC59141
:1003D000D49161110DC09FB7F8948C912095822320
:1003E0008C938881282328839FBFDF91CF91089524
:1003F000623051F49FB7F8943C91822F809583230B
:100400008C93E8812E2BEFCF8FB7F894EC912E2BA5
:100410002C938FBFEACF4F925F926F927F928F9211
:100420009F92AF92BF92CF92DF92EF92FF920F9383
:100430001F93CF93DF9300D000D01F92CDB7DEB7CC
:100440008C012A013B0180910C018330C9F08F3F60
:1004500009F47FC00F900F900F900F900F90DF91D5
:10046000CF911F910F91FF90EF90DF90CF90BF90B1
:10047000AF909F908F907F906F905F904F90089576
:10048000E2ECF0E084918D8387FDE4CF61E083E0CE
:100490000E94CF018D81882321F09D81923009F047
:1004A0005CC14801B12CA12C60E072E18AE790E0C8
:1004B000A50198010E949E1029833A834B835C8397
:1004C00069017A0181E0C81AD108E108F1089FEFBB
:1004D000C916D104E104F10409F00CF413C160E47D
:1004E00072E48FE090E0A50198010E949E106901DE
:1004F0007A0181E0C81AD108E108F1089D819230A3
:1005000009F098C08FEFC816D104E104F10409F096
:100510000CF4DDC160E970ED83E090E0A501980185
:100520000E949E1069017A0191E0C91AD108E10880
:10053000F1088FEFC816D104E104F10411F00CF0BA
:10054000A3C183E09091B100987F892B8093B10083
:10055000E1C083E080930C01E2ECF0E094919D8394
:100560009F3F09F477CF913029F158F0923009F488
:100570003FC08D8187FD6ECF61E083E00E94CF0197
:100580008CCF14BC15BC84B5826084BD85B58160F8
:1005900085BDE1EBF0E0E491F0E0EE0FFF1FEC55DC
:1005A000FF4F85919491E3E9F0E0E491E093E90154
:1005B0001D826CCF1092800010928100809181008A
:1005C00088608093810080918100816080938100A8
:1005D000E1EBF0E0E491F0E0EE0FFF1FEC55FF4F90
:1005E00085919491E3E9F0E0E491E093E8014ECF46
:1005F0001092B0001092B1008091B00082608093A0
:10060000B0008091B10081608093B100E1EBF0E037
:10061000E491F0E0EE0FFF1FEC55FF4F85919491B0
:100620009093E7018093E601E3E9F0E0E491E09341
:10063000E5012CCF9FEFC916D104E104F10409F0C4
:100640000CF489C068E478EE81E090E0A50198019F
:100650000E949E1069017A0181E0C81AD108E10860
:10066000F1089D81992309F428C19FEFC916D1048F
:10067000E104F10409F00CF41EC162E17AE780E0C4
:1006800090E0A50194010E949E1069017A0181E029
:10069000C81AD108E108F1089D81992309F4EBC03B
:1006A0008FEFC816D104E104F10411F008F0BFC0C7
:1006B00086E048CF64E274EF80E090E0A501940109
:1006C0000E949E1069017A0181E0C81AD108E108F0
:1006D000F10885E09FEFC916D104E104F10409F0A7
:1006E00008F430CF62E17AE780E090E0A501940160
:1006F0000E949E1069017A0191E0C91AD108E108AF
:10070000F108CECF81E09D8191111CCF95B5987FE6
:10071000892B85BD2FEF3FEFA901411451046104DE
:10072000710409F043C09D81913009F45EC092309C
:1007300009F46DC091118ECEC7BC2093F2013093A5
:10074000F3014093F4015093F50180916E008260B3
:1007500080936E007FCE82E0D6CFB12CA12C60E0DA
:1007600072E18AE790E0A50198010E949E1069015C
:100770007A0181E0C81AD108E108F108C114D10456
:1007800091E0E906F10404F591E08D81813011F6E4
:1007900080918100887F892B809381002FEF3FEF2C
:1007A000A9014114510461047104F9F0D801AA0FA0
:1007B000BB1FA30192010E94BD1028EE33E040E070
:1007C00050E00E94D010AFCF68E478EE81E090E076
:1007D000A50198010E949E1069017A0181E0C81A62
:1007E000D108E108F10893E0D0CFD0928900C092FF
:1007F00088002093EE013093EF014093F001509375
:10080000F10180916F00826080936F0023CEC092CF
:10081000B3002093EA013093EB014093EC01509335
:10082000ED018091700082608093700013CEC980CA
:10083000DA80EB80FC809AE0F594E794D794C79433
:100840009A95D1F791E0C91AD108E108F10887E03B
:1008500079CEC980DA80EB80FC808AE0F594E79459
:10086000D794C7948A95D1F791E0C91AD108E108C5
:10087000F10885E04BCF8FEFC816D104E104F104F5
:1008800009F038F784E042CF68E478EE81E090E048
:10089000A50198010E949E1069017A0191E0C91A90
:1008A000D108E108F1088FEFC816D104E104F10482
:1008B00011F00CF0FFCE84E045CE8FEFC816D104C6
:1008C000E104F10411F00CF0D8CE83E01FCF82E0F8
:1008D00039CE1F93CF93DF93182FEB0161E00E9475
:1008E000CF01209739F460E0812FDF91CF911F91E4
:1008F0000C94A101CF3FD10511F461E0F5CFE12FB8
:10090000F0E0E458FF4FE491E33031F140F4E1309E
:10091000B1F0E230E1F0C038D1057CF7E4CFE73048
:1009200029F1E83059F1E430B1F78091800080621C
:1009300080938000D0938B00C0938A0004C084B55C
:10094000806884BDC7BDDF91CF911F91089584B5A4
:10095000806284BDC8BDF7CF80918000806880939D
:100960008000D0938900C0938800EDCF8091B000C3
:1009700080688093B000C093B300E5CF8091B00051
:1009800080628093B000C093B400DDCF8E5080644D
:1009900080937C0080917A00806480937A008091BB
:1009A0007A0086FDFCCF80917800909179000895BF
:1009B0003FB7F8948091CB019091CC01A091CD01EB
:1009C000B091CE0126B5A89B05C02F3F19F0019626
:1009D000A11DB11D3FBFBA2FA92F982F8827BC0199
:1009E000CD01620F711D811D911D42E0660F771FC1
:1009F000881F991F4A95D1F708950F931F93CF939E
:100A0000DF93CDB7DEB729970FB6F894DEBF0FBEE0
:100A1000CDBF8091D8019091D901892B09F47CC078
:100A20000E94D8040091DE011091DF012091E001C5
:100A30003091E101601771078207930740F46093DA
:100A4000DE017093DF018093E0019093E10100915A
:100A5000DE011091DF012091E0013091E101601B86
:100A6000710B820B930B6C32714081059105C0F2C2
:100A7000F8948091D3019091D4019A838983E09175
:100A8000D801F091D901DF01119680818987909179
:100A9000CF01E091E201F091E3018091E40199231B
:100AA00009F445C09081982B98879081809589237F
:100AB0008F838F818C8388E08B8358856F814985F4
:100AC0003B812C8189819A81508347FD252F3A955E
:100AD0002083262F39F0441F00C0000060830000EF
:100AE00000C0F2CF38E04D9160830000019761F7BC
:100AF000F093E301E093E20149873B832C839A83DF
:100B0000898378940E94D8046093DE017093DF019A
:100B10008093E0019093E10129960FB6F894DEBF2F
:100B20000FBECDBFDF91CF911F910F91089590819E
:100B3000982B98879081809589238F838F818E83CE
:100B400088E08D8358856F8149853D812E8189811B
:100B50009A81508347FD252F00C000C0208300C02C
:100B600000C000C000C000C060830000262F3A957E
:100B700041F0441F000000C000C000C000C000C021
:100B8000E8CF38E04D9100C0608300C0019709F7BD
:100B9000F093E301E093E20149873D832E83AFCFD9
:100BA0008F929F92AF92BF92CF92DF92EF92FF927D
:100BB0004B015C010E94D8046B017C010E94D804A7
:100BC0006C197D098E099F09683E73408105910566
:100BD000A8F321E0821A9108A108B10888EEC80E96
:100BE00083E0D81EE11CF11C81149104A104B1041E
:100BF00029F7FF90EF90DF90CF90BF90AF909F903C
:100C00008F90089590910C0189130BC0E2ECF0E0F5
:100C1000E4919FEF90930C01E13049F028F0E2302D
:100C200061F060E00C94A10110926E00FACF9091F7
:100C30006F009D7F90936F00F4CF909170009D7F27
:100C40009093700091E09093B0009091B100987FE4
:100C500094609093B1001092B300E3CFCF92DF92F3
:100C6000EF92FF92CF93DF936B017C01D0E0C0E065
:100C70008091D1019091D201C817D90728F4B7010A
:100C8000A601CE010E94A9002196C430D10581F7AA
:100C9000DF91CF91FF90EF90DF90CF900C94FD0407
:100CA000CF93DF93EC014093A8015093A901609387
:100CB000AA017093AB019093B7018093B601109293
:100CC000A4011092A30161E0049709F060E082E0C2
:100CD0000E94A10161E0C530D10509F060E084E027
:100CE0000E94A1012497229760F0CCE3D0E0BE01DE
:100CF00085E00E946904BE0186E0DF91CF910C94EB
:100D00006904C6E4D0E0F3CFCF92DF92EF92FF9276
:100D1000CF93DF936B017C0170E060E085E00E947F
:100D2000690470E060E086E00E9469041092B701F7
:100D30001092B60180919B01882309F44CC08091E8
:100D4000BA019091BB01029709F045C0C091990189
:100D5000D0919A0180919C0190919D01C817D9076B
:100D6000E4F468EC70E080E090E00E94D005CE01F1
:100D7000019690939A0180939901CC0FDD1FCB5C73
:100D8000DE4FB701A60188819981DF91CF91FF9055
:100D9000EF90DF90CF900C94500610929B0146E9A3
:100DA00050E060E070E08BE092E00E940B0266E9A8
:100DB00070E080E090E00E94D00546E950E060E0FD
:100DC00070E083E992E0DF91CF91FF90EF90DF90A8
:100DD000CF900C940B02DF91CF91FF90EF90DF90BA
:100DE000CF90089570E060E085E00E94690470E0B3
:100DF00060E086E00E9469041092B7011092B6018B
:100E000010929B011092A7011092BB011092BA019F
:100E10001092B9011092B80110929F0110929E0198
:100E200060E07FEF80E090E00C942E062F923F92DE
:100E30004F925F926F927F928F929F92AF92BF92EA
:100E4000CF92DF92EF92FF920F931F93CF93DF9396
:100E5000CDB7DEB7C459D1400FB6F894DEBF0FBE90
:100E6000CDBF48EC50E060E070E08BE092E00E9483
:100E70000B0260E082E00E94A10161E084E00E9438
:100E8000A101CE0101967C016E0199ECC90ED11C25
:100E9000CF56DE4FD982C882C159D14010E000E060
:100EA000CD56DE4FE882C359D140CC56DE4FF88292
:100EB000C459D140160184E6882E912CA12CB12C66
:100EC00066E470E085E00E94690466E470E086E014
:100ED0000E94690462E370E080E090E00E94D00527
:100EE00070E060E085E00E94690470E060E086E008
:100EF0000E9469046AE070E080E090E00E94D00502
:100F000080E10E94C604081719070CF48C0184E1E3
:100F10000E94C604F701819391937F0185E10E94AD
:100F2000C604F601819391936F018FB7F8944090B6
:100F3000C7015090C8016090C9017090CA018FBF6D
:100F40004091D3015091D40170E060E08091D801CC
:100F50009091D9010E94F913C301B201A501940136
:100F60000E94D010237033278091D1019091D2013B
:100F70002817390738F44FEF5FEF6FEF70E0C901C2
:100F80000E94A9000E94FD04CF56DE4F88819981FE
:100F9000C159D1408E159F0509F092CF0E94F206EB
:100FA00008531F4F1093010100930001CD56DE4FEF
:100FB0008881C359D140CC56DE4F9881C459D14065
:100FC0000E948E00C1010E948E004D895E89CB5423
:100FD000DF4F88819981C55BD040841B950B80359C
:100FE00091057CF0F10124893589C358DE4F888151
:100FF0009981CD57D140821B930B803591050CF020
:1010000040C070E060E085E00E94690470E060E04C
:1010100086E00E94690460E070E08FEF90E00E943B
:101020002E0648EC50E060E070E086E091E00E941F
:101030000B0268EC70E080E090E00E94D00548EC84
:1010400050E060E070E086E091E00E940B02CC5638
:10105000DE4F0FB6F894DEBF0FBECDBFDF91CF914C
:101060001F910F91FF90EF90DF90CF90BF90AF90C6
:101070009F908F907F906F905F904F903F902F90B8
:101080000895CD54DF4FE881F981C35BD040C55846
:10109000DE4F68817981CB57D140CA018E0F9F1FE7
:1010A00097FD01969595879590930701809306018A
:1010B000C901860F971F97FD019695958795909387
:1010C0000501809304015093B5014093B401F0935E
:1010D0000B01E0930A013093B1012093B0017093AA
:1010E00009016093080160E07FEF80E090E00E94DA
:1010F0002E0644E650E060E070E083E992E00E9452
:101100000B0264E670E080E090E00E94D00544E6C7
:1011100050E060E070E080E193E097CF1F920F9283
:101120000FB60F9211242F933F938F939F93AF93FA
:10113000BF938091C7019091C801A091C901B0915E
:10114000CA013091C60123E0230F2D3758F50196CF
:10115000A11DB11D2093C6018093C7019093C801C2
:10116000A093C901B093CA018091CB019091CC01A9
:10117000A091CD01B091CE010196A11DB11D80932A
:10118000CB019093CC01A093CD01B093CE01BF9140
:10119000AF919F918F913F912F910F900FBE0F9024
:1011A0001F90189526E8230F0296A11DB11DD2CFDE
:1011B0001F920F920FB60F9211242F933F934F93CC
:1011C0005F936F937F938F939F93AF93BF93EF93AF
:1011D000FF938091EA019091EB01A091EC01B09115
:1011E000ED01892B8A2B8B2BD1F19091E501E091B8
:1011F000E601F091E7018081892780838091EA01EF
:101200009091EB01A091EC01B091ED011816190637
:101210001A061B069CF48091EA019091EB01A091C3
:10122000EC01B091ED010197A109B1098093EA01A8
:101230009093EB01A093EC01B093ED01FF91EF913E
:10124000BF91AF919F918F917F916F915F914F91DE
:101250003F912F910F900FBE0F901F901895809186
:101260000C010E940206EACFCF92DF92EF92FF922A
:101270000F931F93E82FF92F05C001501109210981
:10128000310961F1908196239417B9F305C001509B
:1012900011092109310911F1908196239413F7CF97
:1012A000C12CD12CE12CF12C0AC08FEFC81AD80A1E
:1012B000E80AF80A0C151D052E053F0579F0808116
:1012C0008623841791F36C2D7D2D8E2D9F2D1F91DC
:1012D0000F91FF90EF90DF90CF90089560E070E065
:1012E00080E090E01F910F91FF90EF90DF90CF9002
:1012F0000895CF93DF93CDB7DEB728970FB6F89454
:10130000DEBF0FBECDBF789484B5826084BD84B546
:10131000816084BD85B5826085BD85B5816085BDF0
:1013200080916E00816080936E00109281008091A8
:101330008100826080938100809181008160809330
:101340008100809180008160809380008091B10055
:1013500084608093B1008091B00081608093B00080
:1013600080917A00846080937A0080917A00826014
:1013700080937A0080917A00816080937A008091D6
:101380007A00806880937A001092C10061E082E068
:101390000E94CF0161E085E00E94CF0161E084E01E
:1013A0000E94CF0161E086E00E94CF0161E083E00E
:1013B0000E94CF0161E08AE00E94CF0161E08BE0F2
:1013C0000E94CF0162E087E00E94CF0162E088E0E6
:1013D0000E94CF0161E08DE00E94CF0160E08CE0CF
:1013E0000E94CF0183E10E94C604BC01990F880BC3
:1013F000990B611571058105910511F00E949510F9
:101400008091D5019091D60197FDE1C061E00E94E5
:10141000CF0160E08091D5010E94A10181E080931D
:10142000D001E0910201F0910301EE0FFF1FE95E90
:10143000FE4F80810E940E010E94FD040E94F20670
:1014400022242394312C12E0612E712C8FB7F89452
:101450008090C7019090C801A090C901B090CA01C6
:101460008FBF8EE00E94C6046C0121E02B8384367E
:1014700091050CF01B828FE00E94C6047C0141E0C4
:101480004C83843691050CF01C8287E00E94780121
:101490008C0181E08D830115110509F01D8288E022
:1014A0000E94780198878F8391E09E83EF81F88571
:1014B000EF2B09F01E8280E10E94C6049A83898383
:1014C000409000015090010181E029813A8142164B
:1014D00053060CF080E08093BE0134E6C316D104BD
:1014E0000CF078C0D0902D0141E0D426D092A2011A
:1014F00054E6E516F1040CF06FC0F0902C0181E089
:10150000F826F092BF01012B09F068C010912B0161
:1015100091E019271093A101EF81F885EF2B09F0D5
:101520005FC0F0912A0121E0F227FF833F813093D1
:10153000A0014B8140932D015C8150932C018D8142
:1015400080932B019E8190932A018091C50188236D
:1015500009F44CC08091C1019091C201A091C301D6
:10156000B091C401A5019401281B390B4A0B5B0BF8
:10157000DA01C901893C9105A105B105B8F0809255
:10158000C1019092C201A092C301B092C4018091A6
:10159000C00131E083278093C001882319F140E026
:1015A00050E0BA0188EE93E00E940B02FF2039F070
:1015B0001092C50183E00E9402060E94F20680E0BC
:1015C00090E0892B09F442CF0E9400003FCF109297
:1015D000D00127CFD12C8ACFF12C93CF10E09ACF16
:1015E0001F82A4CF83E00E940206E0CF80919E017B
:1015F00090919F01009701F560E08AE00E94A101AF
:1016000060E08BE00E94A10189819A814816590609
:101610000CF04BC0FF2009F448C00E94F206109263
:10162000BD011092BC014CE251E060E070E086E048
:1016300091E00E940B02C3CF60E08130910521F060
:101640008330910531F461E08AE00E94A10161E0FC
:10165000D8CF0297C9F680912F0190913001A091C7
:101660003101B0913201A5019401281B390B4A0BBD
:101670005B0BDA01C9018B3F9105A105B10520F291
:1016800080922F0190923001A0923101B0923201EC
:1016900030912E0141E034273B8330932E01632F9C
:1016A0008AE00E94A1016B81ACCF8091BA01909138
:1016B000BB01009709F0CAC0112309F47FC00E9442
:1016C000160784E10E94C6049093B3018093B2018F
:1016D00085E10E94C6049093AF018093AE01809192
:1016E000B6019091B701009709F469CF019709F00D
:1016F0004DC260E08DE00E94A10183E090E001977F
:10170000F1F761E08DE00E94A10183E290E0019792
:10171000F1F760E08DE00E94A101ECE9F0E0649156
:10172000EAEBF0E08491E82FF0E0EE0FFF1FEE58B7
:10173000FF4F8591949108E813E120E030E0462FB7
:101740000E943409611571058105910529F06F5FCB
:101750007F4F8F4F9F4F9F700E94A41126E933E463
:101760004BE05DE30E94321220E030E040E05FE3B6
:101770000E9432120E946E11615071098109910913
:10178000633071058105910508F000C2F1E0F09326
:10179000C5011092B7011092B60170E060E085E0DB
:1017A0000E94690470E060E086E00E94690460E0E5
:1017B00070E08FEF90E00E942E0601CFDD2001F156
:1017C0008091020190910301019665E070E00E9412
:1017D000B3129093030180930201880F991FFC01BB
:1017E000E95EFE4F80810E940E010E94FD0444E6E6
:1017F00050E060E070E08AE491E00E940B0261CF6B
:10180000FF2009F45ECFE981FA814E165F060CF4E1
:1018100058CF1092B9011092B80110923401109271
:10182000330184E090E09093BB018093BA01309241
:101830009F0120929E016FEF7FEF8FEF90E00E945B
:101840002E0644E650E060E070E077C02091B801D9
:101850003091B9012115310509F083C0FF81FF23C3
:1018600009F44DC03092BD012092BC01809133013A
:1018700090913401019664E070E00E94B31290935D
:10188000340180933301880F991FFC01EF5DFE4FF7
:10189000208131813A8329833093BB012093BA019F
:1018A00044E650E060E070E088E891E00E940B02BE
:1018B00049815A816FEF70E080E090E0423051053D
:1018C00041F089819A81039739F46FEF70E080E8E5
:1018D00090E00E942E06F5CEE981FA8160E070E08A
:1018E0008FEF90E03197A9F329813A8124303105B7
:1018F00009F0E7CE60E07FEF8FEF90E0EACFFF20C6
:1019000009F4DFCE2091BC013091BD0121303105B9
:1019100009F0D7CE8130910511F0049789F47092C7
:10192000B9016092B80143E050E050939F014093A9
:101930009E0148EC50E060E070E08BE092E05DCF0B
:101940003093B9012093B80170929F0160929E017B
:1019500010929D0110929C011092A6011092A50177
:10196000E8CF8230910509F443C0C0F4019709F033
:10197000A8CE2230310509F0A4CE8091B601909115
:10198000B701892B09F09DCED110D8C0112309F4DD
:10199000EAC0B501A40184E090E089C083309105DC
:1019A00009F4A2C0049709F08CCE2230310509F069
:1019B00088CEDD2009F485CE8091A701882309F423
:1019C000DBC01092A70170E060E085E00E9469042E
:1019D00070E060E086E00E9469041092B701109206
:1019E000B60148EC50E060E070E088E891E005CF97
:1019F00021303105F1F5D11032C0111135C05F81B0
:101A00005523F9F088E891E045E050E020919C01F1
:101A100030919D0122333105A4F4B9016F5F7F4FEE
:101A200070939D0160939C01220F331FF901EB5CC1
:101A3000FE4F5183408344E650E060E070E00E9436
:101A40000B02FF2009F43DCE7092B9016092B801FB
:101A500083E090E090939F0180939E016ACF8BE09A
:101A600092E041E050E0D2CF8AE491E044E050E0DF
:101A7000CDCF2230310509F024CEDD20D9F0809180
:101A80009C0190919D0118161906A4F480919B0168
:101A9000811117CE91E090939B0130929A01209290
:101AA0009901B501A40180913501909136010E9400
:101AB000500607CEFF2009F404CE80919B018111CE
:101AC00000CE3092B9012092B80110929D0110927F
:101AD0009C0170929F0160929E0148EC50E060E092
:101AE00070E086E091E089CE2130310599F4112330
:101AF00009F4A7CF8091A5019091A601019690933A
:101B0000A6018093A50144E650E060E070E08AE41D
:101B100091E095CF2230310509F0D3CDDD2099F049
:101B20008091A5019091A6011816190664F4809180
:101B3000A7018111C6CDE1E0E093A701B501A401A1
:101B400081E090E0B4CFFF2009F4BBCD8091A701E4
:101B50008111B7CD3092B9012092B8011092A6013F
:101B60001092A501B6CFFF81B501A40185E090E0F8
:101B7000FF2309F4A6CD9BCF21E02093A701B50157
:101B8000A40181E090E00E9450065BCE8091B601F6
:101B90009091B7018230910509F40CC108F0DDC0C5
:101BA000019709F00CCD8091B4019091B50140905E
:101BB000B2015090B30140910A0150910B01481BB2
:101BC000590B4E315105D4F0D201A81BB90B28EEA8
:101BD00033E00E94C7129A01550F440B550B0E9427
:101BE0009E103A832983293E334024F088EE93E007
:101BF0009A838983E981FA81F7FF02C01A821982E8
:101C00008091B0019091B1010091AE011091AF01AE
:101C10004091080150910901481B590B4E31510563
:101C2000ACF0D801A81BB90B28EE33E00E94C71214
:101C30009A01550F440B550B0E949E10293EF3E06C
:101C40003F0714F028EE33E037FF02C030E020E019
:101C500049815A81421B530B5A834983CA014D96CD
:101C6000CB9710F41A8219828091AC019091AD014A
:101C700069817A81681B790B072E000C880B990B00
:101C80000E94A6112DEC3CEC4CE45EE30E94321263
:101C90006B017C01E981FA81BF01FF0F880B990B71
:101CA0000E94A6112DEC3CEC4CEC5DE30E9432123C
:101CB0009B01AC01C701B6010E9402110E946E1186
:101CC00029813A813093AD012093AC017A836983F5
:101CD0006135710524F080E590E09A838983E9817C
:101CE000FA81E03BFF4F24F440EB5FEF5A834983D6
:101CF0006CE370E089819A81681B790B77FF02C0E1
:101D000070E060E085E00E94690469817A81645C2A
:101D10007F4F77FF02C070E060E086E00E946904B8
:101D20008091060190910701841595050CF047CC30
:101D30008091040190910501801791070CF03FCC30
:101D40008092A8019092A901A092AA01B092AB0141
:101D50007092B7016092B60132CC8430910509F4DB
:101D600087C0059709F02BCC8091A8019091A9011B
:101D7000A091AA01B091AB01A5019401281B390BD8
:101D80004A0B5B0BDA01C9018C329140A105B10508
:101D900008F415CC8091A3019091A401009709F05B
:101DA000ADC02091AE013091AF01809104019091BE
:101DB000050182C08091A8019091A901A091AA017A
:101DC000B091AB01A5019401281B390B4A0B5B0BA9
:101DD000DA01C9018B369340A105B105F0F180917C
:101DE000A7018823F9F08091BA019091BB0184305A
:101DF0009105E9F00397B1F48091A5019091A601B6
:101E000001979093A6018093A501181619067CF0FE
:101E10001092A7014CE251E060E070E08BE092E0AC
:101E20000E940B02C501B4010E948406C8CB0E9427
:101E3000461022E030E040E050E00E949E10672B08
:101E400039F4B501A40184E090E00E945006B7CBBC
:101E5000B501A40185E090E0F8CF6CE370E085E087
:101E60000E9469046CE370E086E00E946904A7CBDD
:101E70008091A8019091A901A091AA01B091AB0114
:101E8000A5019401281B390B4A0B5B0BDA01C90130
:101E90008C329140A105B10508F491CB8091A3014A
:101EA0009091A401009789F42091B2013091B3017F
:101EB0008091060190910701821793070CF07FCB68
:101EC0003092A4012092A3017ACB019709F077CB3D
:101ED0002091AE013091AF018091040190910501F4
:101EE000821793070CF06BCB8091A701882309F42C
:101EF00099CFB501A40181E090E0A7CF019709F047
:101F00005ECB2091B2013091B30180910601909196
:101F10000701E6CF1092D0011092D7011092DE0196
:101F20001092DF011092E0011092E10181E08093B4
:101F3000DD018093DA011092DB0192E09093DC01E5
:101F40008093CF018CE090E09093D4018093D301F3
:101F50000E94D4129093D9018093D801009789F1FF
:101F60002CE0FC0111922A95E9F784E090E090932F
:101F7000D2018093D10189E090E09093D6018093C3
:101F8000D5018091D001882341F061E089E00E9471
:101F9000CF0160E089E00E94A101E7EBF0E0E4916D
:101FA000F0E0EE0FFF1FEC55FF4F85919491909359
:101FB000E3018093E201E9E9F0E0E491E093E401D8
:101FC00008951092D4011092D3011092D201109270
:101FD000D101D1CF8091D8019091D9010E94701385
:101FE0008091D5019091D60197FD03C060E00C94DB
:101FF000CF0108958F929F92AF92BF92CF92DF92BE
:10200000EF92FF92CF93DF93EC01688179818A810F
:102010009B81611571058105910521F464E279EDDB
:102020008BE597E02DE133EF41E050E00E949E10F8
:1020300049015A019B01AC01A7EAB1E40E94BD101D
:102040006B017C01ACEEB4EFA50194010E94CB10B2
:10205000C60ED71EE81EF91EF7FE06C081E0C81A9C
:10206000D108E10880E8F80AC882D982EA82FB82B6
:10207000C701B6019F77DF91CF91FF90EF90DF907E
:10208000CF90BF90AF909F908F9008958F929F9226
:10209000AF92BF92CF92DF92EF92FF9260910D01CB
:1020A00070910E0180910F019091100161157105E1
:1020B0008105910521F464E279ED8BE597E02DE14E
:1020C00033EF41E050E00E949E1049015A019B010C
:1020D000AC01A7EAB1E40E94BD106B017C01ACEE3B
:1020E000B4EFA50194010E94CB10C60ED71EE81EC6
:1020F000F91EF7FE06C081E0C81AD108E10880E8A1
:10210000F80AC0920D01D0920E01E0920F01F092F8
:102110001001C701B6019F77FF90EF90DF90CF903D
:10212000BF90AF909F908F90089560930D01709332
:102130000E0180930F01909310010895052E97FBD7
:102140001EF400940E94B51057FD07D00E94D010D5
:1021500007FC03D04EF40C94B51050954095309583
:1021600021953F4F4F4F5F4F089590958095709503
:1021700061957F4F8F4F9F4F08950E94F210A59F4A
:10218000900DB49F900DA49F800D911D1124089572
:10219000B7FF0C94BD100E94BD10821B930B0895D5
:1021A000A1E21A2EAA1BBB1BFD010DC0AA1FBB1F5B
:1021B000EE1FFF1FA217B307E407F50720F0A21BCD
:1021C000B30BE40BF50B661F771F881F991F1A943A
:1021D00069F760957095809590959B01AC01BD0164
:1021E000CF010895A29FB001B39FC001A39F700DBE
:1021F000811D1124911DB29F700D811D1124911D0F
:1022000008955058BB27AA270E9419110C94F81161
:102210000E94EA1138F00E94F11120F039F49F3F3A
:1022200019F426F40C94E7110EF4E095E7FB0C94F6
:10223000E111E92F0E94091258F3BA1762077307D8
:102240008407950720F079F4A6F50C942B120EF470
:10225000E0950B2EBA2FA02D0B01B90190010C01B6
:10226000CA01A0011124FF27591B99F0593F50F4CE
:10227000503E68F11A16F040A22F232F342F442726
:10228000585FF3CF469537952795A795F04053951E
:10229000C9F77EF41F16BA0B620B730B840BBAF0EE
:1022A0009150A1F0FF0FBB1F661F771F881FC2F759
:1022B0000EC0BA0F621F731F841F48F4879577956D
:1022C0006795B795F7959E3F08F0B0CF9395880F27
:1022D00008F09927EE0F9795879508950E9475113C
:1022E0006894B1110C942C1208950E94111288F078
:1022F0009F5798F0B92F9927B751B0F0E1F0660FCA
:10230000771F881F991F1AF0BA95C9F714C0B1300A
:1023100091F00E942B12B1E008950C942B12672FBC
:10232000782F8827B85F39F0B93FCCF38695779539
:102330006795B395D9F73EF4909580957095619522
:102340007F4F8F4F9F4F0895E89409C097FB3EF44D
:1023500090958095709561957F4F8F4F9F4F9923F2
:10236000A9F0F92F96E9BB279395F6958795779570
:102370006795B795F111F8CFFAF4BB0F11F460FF30
:102380001BC06F5F7F4F8F4F9F4F16C0882311F088
:1023900096E911C0772321F09EE8872F762F05C09C
:1023A000662371F096E8862F70E060E02AF09A9537
:1023B000660F771F881FDAF7880F9695879597F92C
:1023C000089597F99F6780E870E060E008959FEFB7
:1023D00080EC089500240A941616170618060906BC
:1023E000089500240A94121613061406050608958B
:1023F000092E0394000C11F4882352F0BB0F40F413
:10240000BF2B11F460FF04C06F5F7F4F8F4F9F4F52
:10241000089557FD9058440F551F59F05F3F71F0D4
:102420004795880F97FB991F61F09F3F79F087953B
:102430000895121613061406551FF2CF4695F1DFC4
:1024400008C0161617061806991FF1CF8695710554
:10245000610508940895E894BB2766277727CB0188
:1024600097F908950E9445120C94F8110E94EA1100
:1024700038F00E94F11120F0952311F00C94E11135
:102480000C94E71111240C942C120E94091270F381
:10249000959FC1F3950F50E0551F629FF001729F09
:1024A000BB27F00DB11D639FAA27F00DB11DAA1F18
:1024B000649F6627B00DA11D661F829F2227B00D65
:1024C000A11D621F739FB00DA11D621F839FA00DF0
:1024D000611D221F749F3327A00D611D231F849F40
:1024E000600D211D822F762F6A2F11249F57504097
:1024F0009AF0F1F088234AF0EE0FFF1FBB1F661F12
:10250000771F881F91505040A9F79E3F510580F0DA
:102510000C94E1110C942C125F3FE4F3983ED4F339
:10252000869577956795B795F795E7959F5FC1F77E
:10253000FE2B880F911D9695879597F90895AA1BF4
:10254000BB1B51E107C0AA1FBB1FA617B70710F09E
:10255000A61BB70B881F991F5A95A9F780959095D0
:10256000BC01CD01089597FB072E16F4009407D007
:1025700077FD09D00E949F1207FC05D03EF490958C
:1025800081959F4F0895709561957F4F08950E94A2
:10259000F210B7FF0895821B930B0895EE0FFF1FF3
:1025A0000590F491E02D09940F931F93CF93DF933F
:1025B0008230910510F482E090E0E091F801F09112
:1025C000F90130E020E0B0E0A0E0309799F4211567
:1025D000310509F44AC0281B390B24303105D8F5E0
:1025E0008A819B816115710589F1FB019383828347
:1025F000FE0111C0408151810281138148175907A2
:10260000E0F04817590799F4109761F012960C936F
:10261000129713961C933296CF01DF91CF911F91A1
:102620000F9108950093F8011093F901F4CF21154B
:10263000310551F04217530738F0A901DB019A0127
:10264000BD01DF01F801C1CFEF01F9CF9093F9018E
:102650008093F801CDCFFE01E20FF31F8193919398
:102660002250310939832883D7CF2091F601309148
:10267000F701232B41F42091130130911401309381
:10268000F7012093F60120911101309112012115DB
:10269000310541F42DB73EB7409115015091160117
:1026A000241B350BE091F601F091F701E217F307D7
:1026B000A0F42E1B3F0B2817390778F0AC014E5FB2
:1026C0005F4F2417350748F04E0F5F1F5093F701F7
:1026D0004093F601819391939FCFF0E0E0E09CCF8F
:1026E000CF93DF930097E9F0FC01329713821282B7
:1026F000A091F801B091F901ED0130E020E01097D0
:10270000A1F420813181820F931F2091F601309135
:10271000F7012817390709F061C0F093F701E0933A
:10272000F601DF91CF910895EA01CE17DF07E8F5B2
:102730004A815B819E0141155105B1F7E901FB8397
:10274000EA8349915991C40FD51FEC17FD0761F435
:10275000808191810296840F951FE9019983888376
:10276000828193819B838A83F0E0E0E012968D91D1
:102770009C9113970097B9F52D913C911197CD013C
:102780000296820F931F2091F6013091F7012817CE
:10279000390739F6309751F51092F9011092F80186
:1027A000B093F701A093F601BCCFD383C2834081DD
:1027B0005181840F951FC817D90761F44E5F5F4F91
:1027C00088819981480F591F518340838A819B8159
:1027D000938382832115310509F0B0CFF093F9017D
:1027E000E093F8019ECFFD01DC01C0CF138212827D
:1027F000D7CFDC0101C06D9341505040E0F7089500
:1028000010E0C3E6D0E004C0FE010E94CE12219683
:0A281000C436D107C9F7F894FFCFD2
:10281A005802020058025802FF03FF03FF0100009A
:10282A00000000FA0180000A0032006400B400FFD0
:0A283A00000400010002000300008A
:00000001FF
