:100000000C9464000C948C000C948C000C948C0068
:100010000C948C000C948C000C948C000C94FD08B7
:100020000C948C000C948C000C948C000C948C0020
:100030000C948C000C948C000C948C000C948C0010
:100040000C94B3080C948C000C948C000C948C00D1
:100050000C948C000C948C000C948C000C948C00F0
:100060000C948C000C948C000000000024002700ED
:100070002A000000000023002600290000000008DC
:10008000000201000003040700000000000000005F
:10009000010204081020408001020408102001021F
:1000A0000408102000000000250028002B00040494
:1000B0000404040404040202020202020303030310
:1000C000030302004710A71011241FBECFEFD8E092
:1000D000DEBFCDBF11E0A0E0B1E0E4E9F9E202C08B
:1000E00005900D92AA32B107D9F722E0AAE2B1E059
:1000F00001C01D92A831B207E1F710E0C3E6D0E0DD
:1001000004C02197FE010E948B13C236D107C9F7A4
:100110000E949E090C94BD140C94000023E630E06C
:10012000FC0150E040E0421753077CF4608171818C
:10013000A281B381A617B70724F4B183A083738388
:1001400062834F5F5F4F3296EECF2150310941F706
:1001500008958F929F92AF92BF92CF92DF92EF92CB
:10016000FF920F931F93FC014B01AA24BB24C52EC1
:10017000D62EE72EFF24BC2DA42F90918201B82CFF
:10018000992391F0A92FB0E0A89D9001A99D300D71
:10019000B89D300D1124B32E9C9D60011124BD2DFE
:1001A000949F80011124A12F409188012091830107
:1001B0003091840180918501481324C0CF01880FBC
:1001C000991F8E0F9F1F820F931FE0918501E80FEB
:1001D000F92FF11DB082E0918601E80FF92FF11D92
:1001E000B08320918701820F911DFC01A0831F9194
:1001F0000F91FF90EF90DF90CF90BF90AF909F90C6
:100200008F900895CF01880F991F880F991F820F33
:10021000931FFC01E40FF11D1082D7CF1F93CF93E2
:10022000DF9311E0180F209182011217A1F1C09104
:100230008301D0918401215070E060E061F08F3F34
:10024000F1F430E050E040E06FEF7FEF80E090E0CD
:100250000E945B11B901FE0140917E0150917F0126
:10026000CF018C1B9D0B8417950798F44081469F06
:10027000C001479F900D112490833196EDCF812FBF
:1002800090E0982F88270197622F70E00E945C13FE
:10029000E2CF10938201DF91CF911F9108958330B7
:1002A00081F028F4813099F08230A9F008958730E8
:1002B000A9F08830C9F08430B1F4809180008F7D3E
:1002C00003C0809180008F7780938000089584B56B
:1002D0008F7784BD089584B58F7DFBCF8091B0006A
:1002E0008F778093B00008958091B0008F7DF9CF13
:1002F000CF93DF93282F30E0F901E458FF4F84912A
:10030000F901E057FF4FD491F901E255FF4FC49135
:10031000CC23A1F081110E944F01EC2FF0E0EE0FF1
:10032000FF1FEE58FF4FA591B491EC91ED2381E0B2
:1003300090E009F480E0DF91CF91089580E090E0B3
:10034000FACF1F93CF93DF93282F30E0F901E458C1
:10035000FF4F8491F901E057FF4FD491F901E25525
:10036000FF4FC491CC23A9F0162F81110E944F0199
:10037000EC2FF0E0EE0FFF1FEC55FF4FA591B4916D
:100380008FB7F894EC91111108C0D095DE23DC935F
:100390008FBFDF91CF911F910895DE2BF8CFCF93C0
:1003A000DF9390E0FC01E057FF4F249182559F4F6F
:1003B000FC0184918823C9F090E0880F991FFC010B
:1003C000E859FF4FA591B491FC01EC55FF4FC59141
:1003D000D49161110DC09FB7F8948C912095822320
:1003E0008C938881282328839FBFDF91CF91089524
:1003F000623051F49FB7F8943C91822F809583230B
:100400008C93E8812E2BEFCF8FB7F894EC912E2BA5
:100410002C938FBFEACF4F925F926F927F928F9211
:100420009F92AF92BF92CF92DF92EF92FF920F9383
:100430001F93CF93DF9300D000D01F92CDB7DEB7CC
:100440008C012A013B0180910C018330C9F08F3F60
:1004500009F47FC00F900F900F900F900F90DF91D5
:10046000CF911F910F91FF90EF90DF90CF90BF90B1
:10047000AF909F908F907F906F905F904F90089576
:10048000E2ECF0E084918D8387FDE4CF61E083E0CE
:100490000E94CF018D81882321F09D81923009F047
:1004A0005CC14801B12CA12C60E072E18AE790E0C8
:1004B000A50198010E945B1129833A834B835C83D9
:1004C00069017A0181E0C81AD108E108F1089FEFBB
:1004D000C916D104E104F10409F00CF413C160E47D
:1004E00072E48FE090E0A50198010E945B11690120
:1004F0007A0181E0C81AD108E108F1089D819230A3
:1005000009F098C08FEFC816D104E104F10409F096
:100510000CF4DDC160E970ED83E090E0A501980185
:100520000E945B1169017A0191E0C91AD108E108C2
:10053000F1088FEFC816D104E104F10411F00CF0BA
:10054000A3C183E09091B100987F892B8093B10083
:10055000E1C083E080930C01E2ECF0E094919D8394
:100560009F3F09F477CF913029F158F0923009F488
:100570003FC08D8187FD6ECF61E083E00E94CF0197
:100580008CCF14BC15BC84B5826084BD85B58160F8
:1005900085BDE1EBF0E0E491F0E0EE0FFF1FEC55DC
:1005A000FF4F85919491E3E9F0E0E491E093070235
:1005B0001D826CCF1092800010928100809181008A
:1005C00088608093810080918100816080938100A8
:1005D000E1EBF0E0E491F0E0EE0FFF1FEC55FF4F90
:1005E00085919491E3E9F0E0E491E09306024ECF27
:1005F0001092B0001092B1008091B00082608093A0
:10060000B0008091B10081608093B100E1EBF0E037
:10061000E491F0E0EE0FFF1FEC55FF4F85919491B0
:100620009093050280930402E3E9F0E0E491E09303
:1006300003022CCF9FEFC916D104E104F10409F0A5
:100640000CF489C068E478EE81E090E0A50198019F
:100650000E945B1169017A0181E0C81AD108E108A2
:10066000F1089D81992309F428C19FEFC916D1048F
:10067000E104F10409F00CF41EC162E17AE780E0C4
:1006800090E0A50194010E945B1169017A0181E06B
:10069000C81AD108E108F1089D81992309F4EBC03B
:1006A0008FEFC816D104E104F10411F008F0BFC0C7
:1006B00086E048CF64E274EF80E090E0A501940109
:1006C0000E945B1169017A0181E0C81AD108E10832
:1006D000F10885E09FEFC916D104E104F10409F0A7
:1006E00008F430CF62E17AE780E090E0A501940160
:1006F0000E945B1169017A0191E0C91AD108E108F1
:10070000F108CECF81E09D8191111CCF95B5987FE6
:10071000892B85BD2FEF3FEFA901411451046104DE
:10072000710409F043C09D81913009F45EC092309C
:1007300009F46DC091118ECEC7BC20931002309386
:100740001102409312025093130280916E00826056
:1007500080936E007FCE82E0D6CFB12CA12C60E0DA
:1007600072E18AE790E0A50198010E945B1169019E
:100770007A0181E0C81AD108E108F108C114D10456
:1007800091E0E906F10404F591E08D81813011F6E4
:1007900080918100887F892B809381002FEF3FEF2C
:1007A000A9014114510461047104F9F0D801AA0FA0
:1007B000BB1FA30192010E947A1128EE33E040E0B2
:1007C00050E00E948D11AFCF68E478EE81E090E0B8
:1007D000A50198010E945B1169017A0181E0C81AA4
:1007E000D108E108F10893E0D0CFD0928900C092FF
:1007F000880020930C0230930D0240930E02509318
:100800000F0280916F00826080936F0023CEC092B0
:10081000B300209308023093090240930A025093D8
:100820000B028091700082608093700013CEC980AB
:10083000DA80EB80FC809AE0F594E794D794C79433
:100840009A95D1F791E0C91AD108E108F10887E03B
:1008500079CEC980DA80EB80FC808AE0F594E79459
:10086000D794C7948A95D1F791E0C91AD108E108C5
:10087000F10885E04BCF8FEFC816D104E104F104F5
:1008800009F038F784E042CF68E478EE81E090E048
:10089000A50198010E945B1169017A0191E0C91AD2
:1008A000D108E108F1088FEFC816D104E104F10482
:1008B00011F00CF0FFCE84E045CE8FEFC816D104C6
:1008C000E104F10411F00CF0D8CE83E01FCF82E0F8
:1008D00039CE1F93CF93DF93182FEB0161E00E9475
:1008E000CF01209739F460E0812FDF91CF911F91E4
:1008F0000C94A101CF3FD10511F461E0F5CFE12FB8
:10090000F0E0E458FF4FE491E33031F140F4E1309E
:10091000B1F0E230E1F0C038D1057CF7E4CFE73048
:1009200029F1E83059F1E430B1F78091800080621C
:1009300080938000D0938B00C0938A0004C084B55C
:10094000806884BDC7BDDF91CF911F91089584B5A4
:10095000806284BDC8BDF7CF80918000806880939D
:100960008000D0938900C0938800EDCF8091B000C3
:1009700080688093B000C093B300E5CF8091B00051
:1009800080628093B000C093B400DDCF8E5080644D
:1009900080937C0080917A00806480937A008091BB
:1009A0007A0086FDFCCF80917800909179000895BF
:1009B0003FB7F8948091760190917701A0917801EA
:1009C000B091790126B5A89B05C02F3F19F001967B
:1009D000A11DB11D3FBFBA2FA92F982F8827BC0199
:1009E000CD01620F711D811D911D42E0660F771FC1
:1009F000881F991F4A95D1F708950F931F93CF939E
:100A0000DF93CDB7DEB729970FB6F894DEBF0FBEE0
:100A1000CDBF8091830190918401892B09F47CC022
:100A20000E94D8040091890110918A0120918B01C4
:100A300030918C01601771078207930740F460932F
:100A4000890170938A0180938B0190938C010091AE
:100A5000890110918A0120918B0130918C01601BDA
:100A6000710B820B930B6C32714081059105C0F2C2
:100A7000F89480917E0190917F019A838983E0911F
:100A80008301F0918401DF01119680818987909123
:100A90007A01E0918D01F0918E0180918F0199236F
:100AA00009F445C09081982B98879081809589237F
:100AB0008F838F818C8388E08B8358856F814985F4
:100AC0003B812C8189819A81508347FD252F3A955E
:100AD0002083262F39F0441F00C0000060830000EF
:100AE00000C0F2CF38E04D9160830000019761F7BC
:100AF000F0938E01E0938D0149873B832C839A8389
:100B0000898378940E94D8046093890170938A0144
:100B100080938B0190938C0129960FB6F894DEBFD9
:100B20000FBECDBFDF91CF911F910F91089590819E
:100B3000982B98879081809589238F838F818E83CE
:100B400088E08D8358856F8149853D812E8189811B
:100B50009A81508347FD252F00C000C0208300C02C
:100B600000C000C000C000C060830000262F3A957E
:100B700041F0441F000000C000C000C000C000C021
:100B8000E8CF38E04D9100C0608300C0019709F7BD
:100B9000F0938E01E0938D0149873D832E83AFCF83
:100BA0008F929F92AF92BF92CF92DF92EF92FF927D
:100BB0004B015C010E94D8046B017C010E94D804A7
:100BC0006C197D098E099F09683E73408105910566
:100BD000A8F321E0821A9108A108B10888EEC80E96
:100BE00083E0D81EE11CF11C81149104A104B1041E
:100BF00029F7FF90EF90DF90CF90BF90AF909F903C
:100C00008F90089590910C0189130BC0E2ECF0E0F5
:100C1000E4919FEF90930C01E13049F028F0E2302D
:100C200061F060E00C94A10110926E00FACF9091F7
:100C30006F009D7F90936F00F4CF909170009D7F27
:100C40009093700091E09093B0009091B100987FE4
:100C500094609093B1001092B300E3CFCF92DF92F3
:100C6000EF92FF92CF93DF936B017C01D0E0C0E065
:100C700080917C0190917D01C817D90728F4B701B4
:100C8000A601CE010E94A9002196C430D10581F7AA
:100C9000DF91CF91FF90EF90DF90CF900C94FD0407
:100CA000CF93DF93D62FC72F8F3F910519F014F004
:100CB0008FEF90E097FF02C090E080E0BC0185E0FC
:100CC0000E9469046D2F7C2F6F3F710519F014F09D
:100CD0006FEF70E077FF02C070E060E086E0DF91C8
:100CE000CF910C946904CF93DF93EC0140935701AB
:100CF000509358016093590170935A0190930202E6
:100D0000809301021092530110925201813091059B
:100D100091F410925C0110925B011092000210920B
:100D2000FF01109265011092660110926701109206
:100D3000680160E003C061E00497D9F782E00E9497
:100D4000A10161E0C530D10509F060E084E00E94B6
:100D5000A10124978CE390E0229710F486E490E0C0
:100D6000BC01DF91CF910C94500670E060E090E000
:100D700080E00C9450060E94B50610920202109278
:100D80000102109200021092FF018091FE0188235F
:100D900009F44FC08091FC019091FD01029709F088
:100DA00048C02091FA013091FB018091F8019091A7
:100DB000F901281739072CF568EC70E080E090E025
:100DC0000E94D0058FB7F894409190015091910105
:100DD00060919201709193018FBF8091FA0190917F
:100DE000FB019C012F5F3F4F3093FB012093FA01E1
:100DF000880F991FFC01EC56FE4F808191810C9465
:100E000073061092FE0146E950E060E070E08BE06E
:100E100092E00E940B0266E970E080E090E00E94A0
:100E2000D00546E950E060E070E083E992E00C9480
:100E30000B0208950E94B506109202021092010260
:100E40001092FE0110925601109200021092FF01C2
:100E50001092FD011092FC0110926A01109269013A
:100E600010924E0110924D0160E07FEF80E090E023
:100E70000C942E062F923F924F925F926F927F9228
:100E80008F929F92AF92BF92CF92DF92EF92FF929A
:100E90000F931F93CF93DF93CDB7DEB7CC55D240DE
:100EA0000FB6F894DEBF0FBECDBF48EC50E060E057
:100EB00070E08BE092E00E940B0260E082E00E9412
:100EC000A10161E084E00E94A1018E010F5F1F4F2C
:100ED0007E0129ECE20EF11C6E018FE6C81A8EEF3E
:100EE000D80AC75ADD4FF982E882C955D240C55A9F
:100EF000DD4F0883CB55D240C45ADD4F1883CC5503
:100F0000D240170184E6882E912CA12CB12C66E4E6
:100F100070E086E490E00E94500662E370E080E0BA
:100F200090E00E94D0050E94B5066AE070E080E083
:100F300090E00E94D00580E10E94C604F8018193F0
:100F400091938F0184E10E94C604F70181939193EC
:100F50007F0185E10E94C604F601819391936F01A0
:100F60008FB7F89440909001509091016090920159
:100F7000709093018FBF40917E0150917F0170E08E
:100F800060E080918301909184010E94B614C301B6
:100F9000B201A50194010E948D1123703327809125
:100FA0007C0190917D012817390738F44FEF5FEFEE
:100FB0006FEF70E0C9010E94A9000E94FD04C75AAA
:100FC000DD4F88819981C955D2400817190709F06A
:100FD0009ECF0E941A07C55ADD4F8881CB55D2405B
:100FE000C45ADD4F9881CC55D2400E948E00C10179
:100FF0000E948E00CE018F569E4F0E948E00CD54CF
:10100000DF4F88819981C35BD0408833EFEF9E0723
:101010000CF461C08733F3E09F0714F086E393E09C
:1010200088539F4FF10164897589C558DE4F488107
:101030005981CB57D1409A01261B370B20353105FA
:1010400094F0CB55DE4FE881F981C55AD140CD5B94
:10105000DD4F28813981C354D240D901AE1BBF0B6B
:10106000A035B105DCF50E94B50660E070E08FEFB9
:1010700090E00E942E0648EC50E060E070E086E0D0
:1010800091E00E940B0268EC70E080E090E00E942A
:10109000D00548EC50E060E070E086E091E00E940E
:1010A0000B02C45ADD4F0FB6F894DEBF0FBECDBFA2
:1010B000DF91CF911F910F91FF90EF90DF90CF9034
:1010C000BF90AF909F908F907F906F905F904F9068
:1010D0003F902F90089590E080E0A4CF909301017D
:1010E00080930001CB01840F951F97FD0196959584
:1010F00087959093070180930601CF01820F931F7C
:1011000097FD01969595879590930501809304012D
:10111000709364016093630150930B0140930A0143
:10112000F0936001E0935F0130930901209308017F
:1011300060E07FEF80E090E00E942E0644E650E001
:1011400060E070E083E992E00E940B0264E670E0E8
:1011500080E090E00E94D00544E650E060E070E05E
:1011600080E193E09CCF1F920F920FB60F92112453
:101170002F933F938F939F93AF93BF938091900151
:1011800090919101A0919201B091930130917501DC
:1011900023E0230F2D3758F50196A11DB11D209393
:1011A00075018093900190939101A0939201B09367
:1011B00093018091760190917701A0917801B0918F
:1011C00079010196A11DB11D80937601909377015D
:1011D000A0937801B0937901BF91AF919F918F91C6
:1011E0003F912F910F900FBE0F901F90189526E8FA
:1011F000230F0296A11DB11DD2CF1F920F920FB6E1
:101200000F9211242F933F934F935F936F937F938C
:101210008F939F93AF93BF93EF93FF9380910802B7
:1012200090910902A0910A02B0910B02892B8A2B9E
:101230008B2BD1F190910302E0910402F091050211
:101240008081892780838091080290910902A09172
:101250000A02B0910B02181619061A061B069CF416
:101260008091080290910902A0910A02B0910B02AC
:101270000197A109B1098093080290930902A093F4
:101280000A02B0930B02FF91EF91BF91AF919F9132
:101290008F917F916F915F914F913F912F910F901F
:1012A0000FBE0F901F90189580910C010E940206AE
:1012B000EACFCF92DF92EF92FF920F931F93E82F26
:1012C000F92F05C0015011092109310961F19081FF
:1012D00096239417B9F305C001501109210931096A
:1012E00011F1908196239413F7CFC12CD12CE12CCE
:1012F000F12C0AC08FEFC81AD80AE80AF80A0C15B0
:101300001D052E053F0579F080818623841791F312
:101310006C2D7D2D8E2D9F2D1F910F91FF90EF90A5
:10132000DF90CF90089560E070E080E090E01F9142
:101330000F91FF90EF90DF90CF900895CF93DF93C0
:1013400000D01F92CDB7DEB7789484B5826084BD9B
:1013500084B5816084BD85B5826085BD85B58160B9
:1013600085BD80916E00816080936E001092810037
:1013700080918100826080938100809181008160F2
:1013800080938100809180008160809380008091B3
:10139000B10084608093B1008091B000816080933F
:1013A000B00080917A00846080937A0080917A0006
:1013B000826080937A0080917A00816080937A00C5
:1013C00080917A00806880937A001092C10061E079
:1013D00082E00E94CF0161E085E00E94CF0161E0E0
:1013E00084E00E94CF0161E086E00E94CF0161E0CD
:1013F00083E00E94CF0161E08AE00E94CF0161E0BA
:101400008BE00E94CF0162E087E00E94CF0162E0A2
:1014100088E00E94CF0161E08DE00E94CF0160E092
:101420008CE00E94CF0183E10E94C604BC01990FA9
:10143000880B990B611571058105910511F00E94CA
:101440005211809180019091810197FD6CC161E002
:101450000E94CF0160E0809180010E94A10181E0A3
:1014600080937B01E0910201F0910301EE0FFF1FD9
:10147000E95EFE4F80810E940E010E94FD040E94E1
:101480001A07AA24A394B12C8FB7F894C0909001A6
:10149000D0909101E0909201F09093018FBF8FB7AF
:1014A000F8942090900130909101409092015090DA
:1014B00093018FBF8EE00E94C60421E0843691051F
:1014C0000CF020E080914501281751F02093450150
:1014D00020924001309241014092420150924301DA
:1014E0008091400190914101A0914201B09143014E
:1014F000B201A101481B590B6A0B7B0BDB01CA012E
:101500008397A105B10510F0209344015091440147
:1015100059838FE00E94C60421E0843691050CF0C7
:1015200020E080913F01281751F020933F01209245
:101530003A0130923B0140923C0150923D01809132
:101540003A0190913B01A0913C01B0913D01B20163
:10155000A101481B590B6A0B7B0BDB01CA01839766
:10156000A105B10510F020933E0160903E0187E097
:101570000E94780121E0892B09F020E08091390157
:10158000281751F02093390120923401309235010F
:10159000409236015092370180913401909135018B
:1015A000A0913601B0913701B201A101481B590B3E
:1015B0006A0B7B0BDB01CA018397A105B10510F013
:1015C000209338017090380188E00E94780121E072
:1015D000892B09F020E080913301281751F02093E6
:1015E000330120922E0130922F014092300150920F
:1015F000310180912E0190912F01A0913001B09185
:101600003101B201A101481B590B6A0B7B0BDB01B5
:10161000CA018397A105B10510F0209332012090F3
:10162000320180E10E94C6049B838A8300910001FD
:101630001091010181E06A817B81061717070CF088
:1016400080E080936D01798180902D0181E0882672
:10165000711101C0812C8092510190902C0191E078
:101660009926611001C0912C90926E0140902B013F
:10167000E1E04E26711001C0412C409250013090A3
:101680002A01F1E03F26211001C0312C30924F0198
:10169000298120932D0160922C0170922B012092C0
:1016A0002A0180917401882309F444C0809170015B
:1016B00090917101A0917201B0917301B701A601DF
:1016C000481B590B6A0B7B0BDB01CA01893C910556
:1016D000A105B105B8F0C0927001D0927101E092FD
:1016E0007201F092730180916F0151E08527809320
:1016F0006F018823D9F040E050E0BA0188EE93E012
:101700000E940B02992039F01092740183E00E942C
:1017100002060E941A0780E090E0892B09F4B4CEFB
:101720000E940000B1CE10927B019CCE83E00E940B
:101730000206E8CF80914D0190914E01009701F58E
:1017400060E08AE00E94A10160E08BE00E94A101BC
:101750004A815B81041715070CF04AC0992009F4EF
:1017600047C00E941A0710926C0110926B014CE264
:1017700051E060E070E086E091E00E940B02CBCF88
:1017800060E08130910521F08330910531F461E012
:101790008AE00E94A10161E0D8CF0297C9F680914A
:1017A000470190914801A0914901B0914A01A701D8
:1017B0009601281B390B4A0B5B0BDA01C9018B3FE1
:1017C0009105A105B10520F2C0924701D0924801D0
:1017D000E0924901F0924A017090460131E073268F
:1017E00070924601672D8AE00E94A101672DADCF5E
:1017F0008091FC019091FD01009709F0ECC044201C
:1018000009F4A1C00E943A0784E10E94C6049093A3
:1018100062018093610185E10E94C60490935E019C
:1018200080935D018091010290910202009709F47A
:1018300072CF019709F080C2809165019091660195
:10184000A0916701B0916801A7019601281B390B8F
:101850004A0B5B0BDA01C90180359105A105B10581
:1018600008F46AC2C0926501D0926601E0926701F5
:10187000F092680160E08DE00E94A10183E090E0B9
:101880000197F1F761E08DE00E94A10183E290E011
:101890000197F1F760E08DE00E94A101ECE9F0E032
:1018A0006491EAEBF0E0E491F0E0EE0FFF1FEE58F8
:1018B000FF4F8591949108E813E120E030E0462F36
:1018C0000E945909611571058105910509F42BC222
:1018D0006F5F7F4F8F4F9F4F9F706115710581051F
:1018E000910509F420C22AE330E040E050E00E9474
:1018F0008D11215031094109510927303105410528
:10190000510508F014C28091FF01909100020196E8
:10191000909300028093FF018091FF01909100025B
:1019200002970CF409C2F1E0F093740110920202E4
:10193000109201020E94B50660E070E08FEF90E027
:101940000E942E06E8CE882001F18091020190913C
:101950000301019665E070E00E947013909303010B
:1019600080930201880F991FFC01E95EFE4F808180
:101970000E940E010E94FD0444E650E060E070E029
:101980008AE491E00E940B023FCF992009F43CCFFA
:101990006A817B81061717070CF436CF10926A0113
:1019A0001092690110924C0110924B0184E090E07A
:1019B0009093FD018093FC01B0924E01A0924D01E5
:1019C0006FEF7FEF8FEF90E00E942E0644E650E02D
:1019D00060E070E078C02091690130916A012115C2
:1019E000310509F086C0332009F44DC0B0926C0176
:1019F000A0926B0180914B0190914C01019664E0A3
:101A000070E00E94701390934C0180934B01880FFB
:101A1000991FFC01EF5DFE4F808191819B838A833A
:101A20009093FD018093FC0144E650E060E070E09B
:101A300088E891E00E940B02EA81FB816FEF70E081
:101A400080E090E03297E1F02A813B816FEF70E017
:101A500080E890E02330310599F04A815B8160E0B5
:101A600070E08FEF90E04130510551F06A817B8149
:101A70006430710509F0C8CE60E07FEF8FEF90E031
:101A80000E942E06C1CE992009F4BECE20916B0192
:101A900030916C012130310509F0B6CE81309105CD
:101AA00011F0049799F482E090E090936A0180939A
:101AB0006901E3E0F0E0F0934E01E0934D0148EC62
:101AC00050E060E070E08BE092E05CCF30936A0120
:101AD0002093690122E030E030934E0120934D01C4
:101AE0001092F9011092F8011092550110925401D0
:101AF000E6CF8230910509F43FC0C0F4019709F0A8
:101B000083CE2230310509F07FCE80910102909181
:101B10000202892B09F078CE8110D8C0442009F444
:101B2000F0C0B701A60184E090E087C08330910542
:101B300009F4A2C0049709F067CE2230310509F0FC
:101B400063CE882009F460CE80915601882309F481
:101B5000E0C0109256010E94B50610920202109247
:101B60000102109200021092FF0148EC50E060E088
:101B700070E088E891E006CF2130310509F03FC0E0
:101B8000811018C0411036C088E891E045E050E06F
:101B9000311014C0992009F437CE42E050E0509340
:101BA0006A014093690163E070E070934E016093B5
:101BB0004D0185CF8BE092E041E050E02091F801AB
:101BC0003091F901223331052CF7B9016F5F7F4F56
:101BD0007093F9016093F801220F331FF901EC565D
:101BE000FE4F5183408344E650E060E070E00E9485
:101BF0000B02D0CF8AE491E044E050E0DFCF223006
:101C0000310509F001CE8820D9F08091F80190913A
:101C1000F90118161906A4F48091FE018111F4CD82
:101C200071E07093FE01B092FB01A092FA01B7013E
:101C3000A60180919401909195010E947306E4CDD4
:101C4000992009F4E1CD8091FE018111DDCDB092A2
:101C50006A01A09269011092F9011092F80182E0E4
:101C600090E090934E0180934D0148EC50E060E08D
:101C700070E086E091E086CE2130310599F4442071
:101C800009F488CF80915401909155010196909369
:101C900055018093540144E650E060E070E08AE42E
:101CA00091E0A5CF2230310509F0AECD882099F022
:101CB00080915401909155011816190664F4809191
:101CC00056018111A1CD91E090935601B701A60173
:101CD00081E090E0B2CF992009F496CD8091560131
:101CE000811192CDB0926A01A092690110925501C2
:101CF00010925401E2E0F0E0F0934E01E0934D01C8
:101D0000B4CFB701A60185E090E0332009F47CCD83
:101D100094CFF1E0F0935601B701A60181E090E085
:101D20000E94730653CE20E030E0A901E2CD10926C
:101D300000021092FF01F0CD809101029091020209
:101D40008230910509F4F9C008F0CAC0019709F082
:101D5000E2CC809163019091640180906101909048
:101D6000620140910A0150910B01481B590B4E3101
:101D70005105D4F0D401A81BB90B28EE33E00E9422
:101D800084139A01550F440B550B0E945B113B8342
:101D90002A83293E334024F068EE73E07B836A8314
:101DA0008A819B8197FF02C01B821A8280915F010A
:101DB0009091600100915D0110915E0140910801D8
:101DC00050910901481B590B4E315105ACF0D80117
:101DD000A81BB90B28EE33E00E9484139A01550F1B
:101DE000440B550B0E945B11293E93E0390714F018
:101DF00028EE33E037FF02C030E020E0EA81FB81CB
:101E0000E21BF30BFB83EA83CF014D96CB9710F4D3
:101E10001B821A8280915B0190915C016A817B81B7
:101E2000681B790B072E000C880B990B0E9463121C
:101E30002DEC3CEC4CE45EE30E94EF122B013C01E4
:101E40002A813B81B901330F880B990B0E946312E1
:101E50002DEC3CEC4CEC5DE30E94EF129B01AC01DD
:101E6000C301B2010E94BF110E942B124A815B8103
:101E700050935C0140935B019B016135710514F047
:101E800020E530E0203B5FEF350714F420EB3FEF17
:101E9000B901645C7F4F8CE390E0821B930B0E943E
:101EA00050068091060190910701881599050CF064
:101EB00032CC8091040190910501801791070CF0BC
:101EC0002ACCC0925701D0925801E0925901F09269
:101ED0005A0162E070E070930202609301021BCC31
:101EE0008430910509F481C0059709F014CC8091E4
:101EF000570190915801A0915901B0915A01A70141
:101F00009601281B390B4A0B5B0BDA01C9018C3295
:101F10009140A105B10508F4FECB8091520190914A
:101F20005301009709F0A7C020915D0130915E0137
:101F300080910401909105017CC08091570190919E
:101F40005801A0915901B0915A01A7019601281B8F
:101F5000390B4A0B5B0BDA01C9018B369340A105A3
:101F6000B105E0F1809156018823F9F08091FC01E0
:101F70009091FD0184309105D9F00397B1F48091DF
:101F8000540190915501019790935501809354010C
:101F9000181619066CF0109256014CE251E060E000
:101FA00070E08BE092E00E940B020E94BB06B3CB74
:101FB0000E94031122E030E040E050E00E945B11FB
:101FC000672B39F4B701A60184E090E00E94730604
:101FD000A2CBB701A60185E090E0F8CF6CE370E0FA
:101FE0008CE390E00E94500696CB8091570190912F
:101FF0005801A0915901B0915A01B701A601481B9F
:10200000590B6A0B7B0BDB01CA018C329140A10595
:10201000B10508F480CB8091520190915301009753
:1020200089F42091610130916201809106019091C3
:102030000701821793070CF06ECBB0925301A09268
:10204000520169CB019709F066CB20915D01309177
:102050005E018091040190910501821793070CF0B5
:102060005ACB80915601882309F49FCFB701A6016E
:1020700081E090E0ABCF019709F04DCB2091610159
:10208000309162018091060190910701E6CF109294
:102090007B01109282011092890110928A011092A4
:1020A0008B0110928C0181E08093880180938501DF
:1020B0001092860192E09093870180937A018CE0E0
:1020C00090E090937F0180937E010E949113909302
:1020D000840180938301009789F12CE0FC01119227
:1020E0002A95E9F784E090E090937D0180937C014C
:1020F00089E090E0909381018093800180917B0141
:10210000882341F061E089E00E94CF0160E089E02E
:102110000E94A101E7EBF0E0E491F0E0EE0FFF1F79
:10212000EC55FF4F8591949190938E0180938D0192
:10213000E9E9F0E0E491E0938F01089510927F01C6
:1021400010927E0110927D0110927C01D1CF80917E
:102150008301909184010E942D14809180019091BF
:10216000810197FD03C060E00C94CF0108958F9228
:102170009F92AF92BF92CF92DF92EF92FF92CF9356
:10218000DF93EC01688179818A819B8161157105FA
:102190008105910521F464E279ED8BE597E02DE16D
:1021A00033EF41E050E00E945B1149015A019B016D
:1021B000AC01A7EAB1E40E947A116B017C01ACEE9C
:1021C000B4EFA50194010E948811C60ED71EE81E27
:1021D000F91EF7FE06C081E0C81AD108E10880E8C0
:1021E000F80AC882D982EA82FB82C701B6019F77CA
:1021F000DF91CF91FF90EF90DF90CF90BF90AF90A5
:102200009F908F9008958F929F92AF92BF92CF929E
:10221000DF92EF92FF9260910D0170910E0180911B
:102220000F0190911001611571058105910521F44F
:1022300064E279ED8BE597E02DE133EF41E050E08A
:102240000E945B1149015A019B01AC01A7EAB1E46C
:102250000E947A116B017C01ACEEB4EFA5019401F0
:102260000E948811C60ED71EE81EF91EF7FE06C092
:1022700081E0C81AD108E10880E8F80AC0920D018F
:10228000D0920E01E0920F01F0921001C701B60149
:102290009F77FF90EF90DF90CF90BF90AF909F908F
:1022A0008F90089560930D0170930E0180930F013C
:1022B000909310010895052E97FB1EF400940E9440
:1022C000721157FD07D00E948D1107FC03D04EF408
:1022D0000C94721150954095309521953F4F4F4F7A
:1022E0005F4F089590958095709561957F4F8F4FC2
:1022F0009F4F08950E94AF11A59F900DB49F900D20
:10230000A49F800D911D11240895B7FF0C947A119C
:102310000E947A11821B930B0895A1E21A2EAA1B28
:10232000BB1BFD010DC0AA1FBB1FEE1FFF1FA21785
:10233000B307E407F50720F0A21BB30BE40BF50B82
:10234000661F771F881F991F1A9469F7609570950B
:10235000809590959B01AC01BD01CF010895A29F8E
:10236000B001B39FC001A39F700D811D1124911D69
:10237000B29F700D811D1124911D08955058BB27E7
:10238000AA270E94D6110C94B5120E94A71238F009
:102390000E94AE1220F039F49F3F19F426F40C94F9
:1023A000A4120EF4E095E7FB0C949E12E92F0E9414
:1023B000C61258F3BA17620773078407950720F00F
:1023C00079F4A6F50C94E8120EF4E0950B2EBA2FD2
:1023D000A02D0B01B90190010C01CA01A00111242B
:1023E000FF27591B99F0593F50F4503E68F11A16D7
:1023F000F040A22F232F342F4427585FF3CF469568
:1024000037952795A795F0405395C9F77EF41F1689
:10241000BA0B620B730B840BBAF09150A1F0FF0F53
:10242000BB1F661F771F881FC2F70EC0BA0F621F3F
:10243000731F841F48F4879577956795B795F7952F
:102440009E3F08F0B0CF9395880F08F09927EE0FC4
:102450009795879508950E9432126894B1110C9453
:10246000E91208950E94CE1288F09F5798F0B92F74
:102470009927B751B0F0E1F0660F771F881F991FB9
:102480001AF0BA95C9F714C0B13091F00E94E81261
:10249000B1E008950C94E812672F782F8827B85F71
:1024A00039F0B93FCCF3869577956795B395D9F711
:1024B0003EF490958095709561957F4F8F4F9F4F1B
:1024C0000895E89409C097FB3EF490958095709527
:1024D00061957F4F8F4F9F4F9923A9F0F92F96E970
:1024E000BB279395F695879577956795B795F111E5
:1024F000F8CFFAF4BB0F11F460FF1BC06F5F7F4F82
:102500008F4F9F4F16C0882311F096E911C0772393
:1025100021F09EE8872F762F05C0662371F096E89C
:10252000862F70E060E02AF09A95660F771F881F6B
:10253000DAF7880F9695879597F9089597F99F6729
:1025400080E870E060E008959FEF80EC089500243B
:102550000A941616170618060906089500240A9408
:1025600012161306140605060895092E0394000C8E
:1025700011F4882352F0BB0F40F4BF2B11F460FF1D
:1025800004C06F5F7F4F8F4F9F4F089557FD905846
:10259000440F551F59F05F3F71F04795880F97FB27
:1025A000991F61F09F3F79F08795089512161306E1
:1025B0001406551FF2CF4695F1DF08C01616170610
:1025C0001806991FF1CF8695710561050894089545
:1025D000E894BB2766277727CB0197F908950E94D7
:1025E00002130C94B5120E94A71238F00E94AE128A
:1025F00020F0952311F00C949E120C94A412112437
:102600000C94E9120E94C61270F3959FC1F3950FC6
:1026100050E0551F629FF001729FBB27F00DB11D66
:10262000639FAA27F00DB11DAA1F649F6627B00DF6
:10263000A11D661F829F2227B00DA11D621F739FDF
:10264000B00DA11D621F839FA00D611D221F749FED
:102650003327A00D611D231F849F600D211D822F34
:10266000762F6A2F11249F5750409AF0F1F088235B
:102670004AF0EE0FFF1FBB1F661F771F881F915088
:102680005040A9F79E3F510580F00C949E120C9487
:10269000E9125F3FE4F3983ED4F38695779567950A
:1026A000B795F795E7959F5FC1F7FE2B880F911DB2
:1026B0009695879597F90895AA1BBB1B51E107C012
:1026C000AA1FBB1FA617B70710F0A61BB70B881FC2
:1026D000991F5A95A9F780959095BC01CD01089551
:1026E00097FB072E16F4009407D077FD09D00E94BF
:1026F0005C1307FC05D03EF4909581959F4F08959B
:10270000709561957F4F08950E94AF11B7FF0895AE
:10271000821B930B0895EE0FFF1F0590F491E02D9F
:1027200009940F931F93CF93DF938230910510F498
:1027300082E090E0E0911602F091170230E020E094
:10274000B0E0A0E0309799F42115310509F44AC0B2
:10275000281B390B24303105D8F58A819B816115FE
:10276000710589F1FB0193838283FE0111C04081D1
:1027700051810281138148175907E0F04817590722
:1027800099F4109761F012960C93129713961C937C
:102790003296CF01DF91CF911F910F910895009351
:1027A000160210931702F4CF2115310551F042178C
:1027B000530738F0A901DB019A01BD01DF01F801DF
:1027C000C1CFEF01F9CF9093170280931602CDCFBE
:1027D000FE01E20FF31F8193919322503109398357
:1027E0002883D7CF2091140230911502232B41F476
:1027F000209113013091140130931502209314029B
:1028000020911101309112012115310541F42DB7AC
:102810003EB74091150150911601241B350BE091F4
:102820001402F0911502E217F307A0F42E1B3F0BE0
:102830002817390778F0AC014E5F5F4F2417350732
:1028400048F04E0F5F1F509315024093140281937E
:1028500091939FCFF0E0E0E09CCFCF93DF93009780
:10286000E9F0FC01329713821282A0911602B09116
:102870001702ED0130E020E01097A1F420813181B2
:10288000820F931F209114023091150228173907E7
:1028900009F061C0F0931502E0931402DF91CF912B
:1028A0000895EA01CE17DF07E8F54A815B819E01B2
:1028B00041155105B1F7E901FB83EA83499159912B
:1028C000C40FD51FEC17FD0761F48081918102963A
:1028D000840F951FE90199838883828193819B836B
:1028E0008A83F0E0E0E012968D919C911397009717
:1028F000B9F52D913C911197CD010296820F931F4E
:1029000020911402309115022817390739F63097B3
:1029100051F51092170210921602B0931502A0936F
:102920001402BCCFD383C28340815181840F951F91
:10293000C817D90761F44E5F5F4F88819981480FAE
:10294000591F518340838A819B8193838283211500
:10295000310509F0B0CFF0931702E09316029ECF35
:10296000FD01DC01C0CF13821282D7CFDC0101C090
:102970006D9341505040E0F7089510E0C3E6D0E079
:1029800004C0FE010E948B132196C436D107C9F7FB
:04299000F894FFCFE9
:102994005802020058025802FF03FF03FF0100001F
:1029A400000000180280000A0032006400B400FF36
:0A29B400000400010002000300000F
:00000001FF
