:100000000C9464000C948C000C948C000C948C0068
:100010000C948C000C948C000C948C000C94150A9D
:100020000C948C000C948C000C948C000C948C0020
:100030000C948C000C948C000C948C000C948C0010
:100040000C94CB090C948C000C948C000C948C00B8
:100050000C948C000C948C000C948C000C948C00F0
:100060000C948C000C948C000000000024002700ED
:100070002A000000000023002600290000000008DC
:10008000000201000003040700000000000000005F
:10009000010204081020408001020408102001021F
:1000A0000408102000000000250028002B00040494
:1000B0000404040404040202020202020303030310
:1000C00003030200AE110E1211241FBECFEFD8E0C1
:1000D000DEBFCDBF11E0A0E0B1E0E2E6FCE202C08D
:1000E00005900D92AE32B107D9F722E0AEE2B1E051
:1000F00001C01D92AF31B207E1F710E0C3E6D0E0D6
:1001000004C02197FE010E94F214C236D107C9F73C
:100110000E94B60A0C9424160C9400008F929F92B1
:10012000AF92BF92CF92DF92EF92FF920F931F9305
:10013000FC014B01AA24BB24C52ED62EE72EFF249A
:10014000BC2DA42F90918901B82C992391F0A92F4F
:10015000B0E0A89D9001A99D300DB89D300D1124EF
:10016000B32E9C9D60011124BD2D949F800111240C
:10017000A12F40918F0120918A0130918B018091B4
:100180008C01481324C0CF01880F991F8E0F9F1F29
:10019000820F931FE0918C01E80FF92FF11DB082BF
:1001A000E0918D01E80FF92FF11DB08320918E01B0
:1001B000820F911DFC01A0831F910F91FF90EF9082
:1001C000DF90CF90BF90AF909F908F900895CF0118
:1001D000880F991F880F991F820F931FFC01E40F4E
:1001E000F11D1082D7CF1F93CF93DF9311E0180F2B
:1001F000209189011217A1F1C0918A01D0918B0140
:10020000215070E060E061F08F3FF1F430E050E0A9
:1002100040E06FEF7FEF80E090E00E94C212B901F2
:10022000FE014091850150918601CF018C1B9D0BF1
:100230008417950798F44081469FC001479F900D11
:10024000112490833196EDCF812F90E0982F88274D
:100250000197622F70E00E94C314E2CF10938901CE
:10026000DF91CF911F910895833081F028F4813080
:1002700099F08230A9F008958730A9F08830C9F04C
:100280008430B1F4809180008F7D03C08091800024
:100290008F7780938000089584B58F7784BD08950B
:1002A00084B58F7DFBCF8091B0008F778093B000B5
:1002B00008958091B0008F7DF9CFCF93DF93282FE1
:1002C00030E0F901E458FF4F8491F901E057FF4F06
:1002D000D491F901E255FF4FC491CC23A1F08111D3
:1002E0000E943401EC2FF0E0EE0FFF1FEE58FF4F9D
:1002F000A591B491EC91ED2381E090E009F480E0C8
:10030000DF91CF91089580E090E0FACF1F93CF93D3
:10031000DF93282F30E0F901E458FF4F8491F90171
:10032000E057FF4FD491F901E255FF4FC491CC2320
:10033000A9F0162F81110E943401EC2FF0E0EE0F8E
:10034000FF1FEC55FF4FA591B4918FB7F894EC9136
:10035000111108C0D095DE23DC938FBFDF91CF91C0
:100360001F910895DE2BF8CFCF93DF9390E0FC012F
:10037000E057FF4F249182559F4FFC0184918823C1
:10038000C9F090E0880F991FFC01E859FF4FA59133
:10039000B491FC01EC55FF4FC591D49161110DC092
:1003A0009FB7F8948C91209582238C938881282381
:1003B00028839FBFDF91CF910895623051F49FB79A
:1003C000F8943C91822F809583238C93E8812E2B87
:1003D000EFCF8FB7F894EC912E2B2C938FBFEACFF1
:1003E0004F925F926F927F928F929F92AF92BF9245
:1003F000CF92DF92EF92FF920F931F93CF93DF93F1
:1004000000D000D01F92CDB7DEB78C012A013B018E
:10041000809110018330C9F08F3F09F47FC00F90A5
:100420000F900F900F900F90DF91CF911F910F9130
:10043000FF90EF90DF90CF90BF90AF909F908F9004
:100440007F906F905F904F900895E2ECF0E0849180
:100450008D8387FDE4CF61E083E00E94B4018D814C
:10046000882321F09D81923009F05CC14801B12CB4
:10047000A12C60E072E18AE790E0A50198010E945A
:10048000C21229833A834B835C8369017A0181E03C
:10049000C81AD108E108F1089FEFC916D104E10498
:1004A000F10409F00CF413C160E472E48FE090E011
:1004B000A50198010E94C21269017A0181E0C81A5F
:1004C000D108E108F1089D81923009F098C08FEFC2
:1004D000C816D104E104F10409F00CF4DDC160E9AF
:1004E00070ED83E090E0A50198010E94C2126901BD
:1004F0007A0191E0C91AD108E108F1088FEFC81616
:10050000D104E104F10411F00CF0A3C183E0909157
:10051000B100987F892B8093B100E1C083E0809384
:100520001001E2ECF0E094919D839F3F09F477CFB6
:10053000913029F158F0923009F43FC08D8187FD48
:100540006ECF61E083E00E94B4018CCF14BC15BC77
:1005500084B5826084BD85B5816085BDE1EBF0E046
:10056000E491F0E0EE0FFF1FEC55FF4F8591949161
:10057000E3E9F0E0E491E0930E021D826CCF10926B
:1005800080001092810080918100886080938100BA
:1005900080918100816080938100E1EBF0E0E49143
:1005A000F0E0EE0FFF1FEC55FF4F85919491E3E9CA
:1005B000F0E0E491E0930D024ECF1092B000109263
:1005C000B1008091B00082608093B0008091B10052
:1005D00081608093B100E1EBF0E0E491F0E0EE0F98
:1005E000FF1FEC55FF4F8591949190930C028093DF
:1005F0000B02E3E9F0E0E491E0930A022CCF9FEFD5
:10060000C916D104E104F10409F00CF489C068E4CE
:1006100078EE81E090E0A50198010E94C212690184
:100620007A0181E0C81AD108E108F1089D81992377
:1006300009F428C19FEFC916D104E104F10409F0BF
:100640000CF41EC162E17AE780E090E0A50194011C
:100650000E94C21269017A0181E0C81AD108E1083A
:10066000F1089D81992309F4EBC08FEFC816D104DE
:10067000E104F10411F008F0BFC086E048CF64E265
:1006800074EF80E090E0A50194010E94C21269011C
:100690007A0181E0C81AD108E108F10885E09FEFEE
:1006A000C916D104E104F10409F008F430CF62E185
:1006B0007AE780E090E0A50194010E94C2126901EE
:1006C0007A0191E0C91AD108E108F108CECF81E0A2
:1006D0009D8191111CCF95B5987F892B85BD2FEFFA
:1006E0003FEFA901411451046104710409F043C0B2
:1006F0009D81913009F45EC0923009F46DC0911172
:100700008ECEC7BC20931702309318024093190273
:1007100050931A0280916E00826080936E007FCEAB
:1007200082E0D6CFB12CA12C60E072E18AE790E0A4
:10073000A50198010E94C21269017A0181E0C81ADC
:10074000D108E108F108C114D10491E0E906F104EF
:1007500004F591E08D81813011F680918100887FD0
:10076000892B809381002FEF3FEFA90141145104A1
:1007700061047104F9F0D801AA0FBB1FA301920113
:100780000E94E11228EE33E040E050E00E94F412B3
:10079000AFCF68E478EE81E090E0A50198010E9477
:1007A000C21269017A0181E0C81AD108E108F10892
:1007B00093E0D0CFD0928900C0928800209313029A
:1007C00030931402409315025093160280916F00EB
:1007D000826080936F0023CEC092B30020930F02FB
:1007E00030931002409311025093120280917000D6
:1007F00082608093700013CEC980DA80EB80FC8029
:100800009AE0F594E794D794C7949A95D1F791E03C
:10081000C91AD108E108F10887E079CEC980DA80E9
:10082000EB80FC808AE0F594E794D794C7948A958E
:10083000D1F791E0C91AD108E108F10885E04BCF62
:100840008FEFC816D104E104F10409F038F784E011
:1008500042CF68E478EE81E090E0A50198010E9423
:10086000C21269017A0191E0C91AD108E108F108C0
:100870008FEFC816D104E104F10411F00CF0FFCEA3
:1008800084E045CE8FEFC816D104E104F10411F0E5
:100890000CF0D8CE83E01FCF82E039CE1F93CF93E8
:1008A000DF93182FEB0161E00E94B401209739F427
:1008B00060E0812FDF91CF911F910C948601CF3F93
:1008C000D10511F461E0F5CFE12FF0E0E458FF4FDE
:1008D000E491E33031F140F4E130B1F0E230E1F0A5
:1008E000C038D1057CF7E4CFE73029F1E83059F181
:1008F000E430B1F780918000806280938000D093D3
:100900008B00C0938A0004C084B5806884BDC7BDD5
:10091000DF91CF911F91089584B5806284BDC8BDD9
:10092000F7CF80918000806880938000D093890009
:10093000C0938800EDCF8091B00080688093B000B4
:10094000C093B300E5CF8091B00080628093B00087
:10095000C093B400DDCF8E3008F08E508770806475
:1009600080937C0080917A00806480937A008091EB
:100970007A0086FDFCCF80917800909179000895EF
:100980003FB7F89480917D0190917E01A0917F0105
:10099000B091800126B5A89B05C02F3F19F00196A4
:1009A000A11DB11D3FBFBA2FA92F982F8827BC01C9
:1009B000CD01620F711D811D911D42E0660F771FF1
:1009C000881F991F4A95D1F708950F931F93CF93CE
:1009D000DF93CDB7DEB729970FB6F894DEBF0FBE11
:1009E000CDBF80918A0190918B01892B09F47CC045
:1009F0000E94C004009190011091910120919201F8
:100A000030919301601771078207930740F4609358
:100A100090017093910180939201909393010091C2
:100A20009001109191012091920130919301601BEE
:100A3000710B820B930B6C32714081059105C0F2F2
:100A4000F89480918501909186019A838983E09141
:100A50008A01F0918B01DF01119680818987909145
:100A60008101E0919401F091950180919601992383
:100A700009F445C09081982B9887908180958923AF
:100A80008F838F818C8388E08B8358856F81498524
:100A90003B812C8189819A81508347FD252F3A958E
:100AA0002083262F39F0441F00C00000608300001F
:100AB00000C0F2CF38E04D9160830000019761F7EC
:100AC000F0939501E093940149873B832C839A83AB
:100AD000898378940E94C00460939001709391017F
:100AE000809392019093930129960FB6F894DEBFFC
:100AF0000FBECDBFDF91CF911F910F9108959081CF
:100B0000982B98879081809589238F838F818E83FE
:100B100088E08D8358856F8149853D812E8189814B
:100B20009A81508347FD252F00C000C0208300C05C
:100B300000C000C000C000C060830000262F3A95AE
:100B400041F0441F000000C000C000C000C000C051
:100B5000E8CF38E04D9100C0608300C0019709F7ED
:100B6000F0939501E093940149873D832E83AFCFA5
:100B70008F929F92AF92BF92CF92DF92EF92FF92AD
:100B80004B015C010E94C0046B017C010E94C00407
:100B90006C197D098E099F09683E73408105910596
:100BA000A8F321E0821A9108A108B10888EEC80EC6
:100BB00083E0D81EE11CF11C81149104A104B1044E
:100BC00029F7FF90EF90DF90CF90BF90AF909F906C
:100BD0008F9008959091100189130BC0E2ECF0E022
:100BE000E4919FEF90931001E13049F028F0E2305A
:100BF00061F060E00C94860110926E00FACF909143
:100C00006F009D7F90936F00F4CF909170009D7F57
:100C10009093700091E09093B0009091B100987F14
:100C200094609093B1001092B300E3CFCF92DF9223
:100C3000EF92FF92CF93DF936B017C01D0E0C0E095
:100C40008091830190918401C817D90728F4B701D6
:100C5000A601CE010E948E002196C430D10581F7F5
:100C6000DF91CF91FF90EF90DF90CF900C94E5044F
:100C7000CF93DF93D62FC72F8F3F910519F014F034
:100C80008FEF90E097FF02C090E080E0BC0185E02C
:100C90000E944E046D2F7C2F6F3F710519F014F0E8
:100CA0006FEF70E077FF02C070E060E086E0DF91F8
:100CB000CF910C944E04CF93DF93EC0140935B01F2
:100CC00050935C0160935D0170935E019093090203
:100CD00080930802109257011092560181309105BD
:100CE00091F4109262011092610110920702109229
:100CF000060210926C0110926D0110926E0110921A
:100D00006F0160E003C061E00497D9F782E00E94C0
:100D1000860161E0C530D10509F060E084E00E9401
:100D2000860124978CE390E0229710F486E490E00B
:100D3000BC01DF91CF910C94380670E060E090E048
:100D400080E00C9438060E949D06109209021092D1
:100D50000802109207021092060280910502882371
:100D600009F44FC08091030290910402029709F0A8
:100D700048C020910102309102028091FF019091C0
:100D80000002281739072CF568EC70E080E090E04D
:100D90000E94B8058FB7F89440919701509198013F
:100DA0006091990170919A018FBF80910102909199
:100DB00002029C012F5F3F4F3093020220930102F9
:100DC000880F991FFC01E556FE4F808191810C949C
:100DD0005B061092050246E950E060E070E08BE0AF
:100DE00092E00E94F00166E970E080E090E00E94ED
:100DF000B80546E950E060E070E083E992E00C94C9
:100E0000F00108950E949D061092090210920802B6
:100E10001092050210925A011092070210920602D7
:100E2000109204021092030210927101109270014C
:100E3000109252011092510160E07FEF80E090E04B
:100E40000C94160661507109A9F0FC0130E020E015
:100E500026173707BCF740815181A281B381A417BF
:100E6000B50724F4B183A083538342832F5F3F4FA0
:100E70003296EECF08959F92AF92BF92CF92DF92BB
:100E8000EF92FF920F931F93CF93DF93CDB7DEB70F
:100E900062970FB6F894DEBF0FBECDBFF82E0E944A
:100EA000AB048E010F5F1F4F6E0183E1C80ED11C92
:100EB000902EE12E83EEA82E83E0B82E8F2D0E9477
:100EC000AB04F801819391938F01C5010197F1F76C
:100ED000EC15FD0599F769E070E0892D9E2D0E94C3
:100EE00022070D811E81012E000C220B330B4F8136
:100EF0005885052E000C660B770B400F511F621FA3
:100F0000731F89859A85092E000CAA0BBB0B8C01D7
:100F10009D01040F151F261F371F8B859C85092EE9
:100F2000000CAA0BBB0B080F191F2A1F3B1F8D8536
:100F30009E85092E000CAA0BBB0BBC01CD01600FD6
:100F4000711F821F931F25E030E040E050E00E94B7
:100F5000C212C90162960FB6F894DEBF0FBECDBFB4
:100F6000DF91CF911F910F91FF90EF90DF90CF9085
:100F7000BF90AF909F9008952F923F924F925F92B3
:100F80006F927F928F929F92AF92BF92CF92DF9299
:100F9000EF92FF920F931F93CF93DF93CDB7DEB7FE
:100FA000CC55D2400FB6F894DEBF0FBECDBF48EC93
:100FB00050E060E070E08BE092E00E94F00160E0C1
:100FC00082E00E94860161E084E00E9486018E0139
:100FD0000F5F1F4F7E0189ECE80EF11C6E019FE64A
:100FE000C91A9EEFD90AC75ADD4FF982E882C9555E
:100FF000D240C55ADD4F0883CB55D240C45ADD4F8D
:101000001883CC55D2401701B4E68B2E912CA12C1D
:10101000B12C66E470E086E490E00E94380662E35A
:1010200070E080E090E00E94B8050E949D066AE0B2
:1010300070E080E090E00E94B80580E190E00E94BE
:101040003B07F801819391938F0184E190E00E9426
:101050003B07F701819391937F0185E190E00E9426
:101060003B07F601819391936F018FB7F8944090FD
:101070009701509098016090990170909A018FBFEC
:10108000409185015091860170E060E080918A0175
:1010900090918B010E941D16C301B201A50194011C
:1010A0000E94F41223703327809183019091840170
:1010B0002817390738F44FEF5FEF6FEF70E0C90181
:1010C0000E948E000E94E504C75ADD4F88819981F5
:1010D000C955D2400817190709F09BCF0E94020793
:1010E00064E670E0C55ADD4F8881CB55D240C45AC2
:1010F000DD4F9881CC55D2400E94220764E670E013
:10110000C1010E94220764E670E0CE018F569E4F17
:101110000E942207C354DF4FA880B980CD5BD04026
:1011200098E3A9169FEFB9060CF491C0E7E3AE1659
:10113000E3E0BE0624F0A6E3AA2EA3E0BA2EF8EC64
:10114000AF0EB11CF101A285B385CB57DE4F88806D
:101150009980C558D140C556DE4F68817981CB59F9
:10116000D140C35BDD4F48815981CD54D2409401B9
:101170002A1B3B0BCA01861B970B2E3131058CF4C1
:1011800004811581C557DE4FE880F980CB58D140E6
:101190006701C01AD10A2C153D051CF496014701C0
:1011A000D8018E319105ACF4CB56DE4F0881198100
:1011B000C559D140CD5ADD4FE880F980C355D240A2
:1011C0006701C01AD10A8C159D051CF4C601A70140
:1011D000B801283031051CF088309105DCF50E94FB
:1011E0009D0660E070E08FEF90E00E94160648ECEC
:1011F00050E060E070E086E091E00E94F00168EC71
:1012000070E080E090E00E94B80548EC50E060E0BB
:1012100070E086E091E00E94F001C45ADD4F0FB605
:10122000F894DEBF0FBECDBFDF91CF911F910F911C
:10123000FF90EF90DF90CF90BF90AF909F908F90F6
:101240007F906F905F904F903F902F900895B12CBA
:10125000A12C78CFB0920101A09200018D01080D60
:10126000191D17FF02C00F5F1F4F159507951093AB
:101270000901009308018B01040F151F17FF02C01D
:101280000F5F1F4F159507951093050100930401FB
:10129000B0936B01A0936A0190920F0180920E01AE
:1012A000709367016093660150930D0140930C01A8
:1012B00044E150E0243531052CF4A90155954795BA
:1012C0005595479550930B0140930A0144E150E036
:1012D000843591052CF4AC01559547955595479566
:1012E00050930701409306012E313105ACF121E006
:1012F0004E970CF020E02093630110926001109251
:101300005F01222359F160E070E88FEF90E00E94C6
:10131000160640E550E060E070E083E992E00E944C
:10132000F00164E670E080E090E00E94B80540E5DE
:1013300050E060E070E083E992E00E94F0016CE22E
:1013400071E080E090E00E94B80560E07FEF80E00F
:1013500090E00E94160661CF21E0CDCF60E07FEFE4
:1013600080E090E00E94160644E650E060E070E005
:1013700083E992E00E94F00164E670E080E090E092
:101380000E94B80544E650E060E070E080E193E040
:101390000E94F001DACF1F920F920FB60F92112424
:1013A0002F933F938F939F93AF93BF938091970118
:1013B00090919801A0919901B0919A0130917C018E
:1013C00023E0230F2D3758F50196A11DB11D209361
:1013D0007C018093970190939801A0939901B09319
:1013E0009A0180917D0190917E01A0917F01B09141
:1013F00080010196A11DB11D80937D0190937E0116
:10140000A0937F01B0938001BF91AF919F918F9185
:101410003F912F910F900FBE0F901F90189526E8C7
:10142000230F0296A11DB11DD2CF1F920F920FB6AE
:101430000F9211242F933F934F935F936F937F935A
:101440008F939F93AF93BF93EF93FF9380910F027E
:1014500090911002A0911102B0911202892B8A2B57
:101460008B2BD1F190910A02E0910B02F0910C02CA
:1014700080818927808380910F0290911002A09132
:101480001102B0911202181619061A061B069CF4D6
:1014900080910F0290911002A0911102B09112025E
:1014A0000197A109B10980930F0290931002A093B4
:1014B0001102B0931202FF91EF91BF91AF919F91F2
:1014C0008F917F916F915F914F913F912F910F90ED
:1014D0000FBE0F901F901895809110010E94EA0591
:1014E000EACFCF92DF92EF92FF920F931F93E82FF4
:1014F000F92F05C0015011092109310961F19081CD
:1015000096239417B9F305C0015011092109310937
:1015100011F1908196239413F7CFC12CD12CE12C9B
:10152000F12C0AC08FEFC81AD80AE80AF80A0C157D
:101530001D052E053F0579F080818623841791F3E0
:101540006C2D7D2D8E2D9F2D1F910F91FF90EF9073
:10155000DF90CF90089560E070E080E090E01F9110
:101560000F91FF90EF90DF90CF900895CF93DF938E
:1015700000D000D000D0CDB7DEB7789484B58260BB
:1015800084BD84B5816084BD85B5826085BD85B527
:10159000816085BD80916E00816080936E001092A5
:1015A0008100809181008260809381008091810020
:1015B00081608093810080918000816080938000B1
:1015C0008091B10084608093B1008091B00081600F
:1015D0008093B00080917A00846080937A0080913B
:1015E0007A00826080937A0080917A008160809393
:1015F0007A0080917A00806880937A001092C1000E
:1016000061E082E00E94B40161E085E00E94B401E3
:1016100061E084E00E94B40161E086E00E94B401D0
:1016200061E083E00E94B40161E08AE00E94B401BD
:1016300061E08BE00E94B40162E087E00E94B401A7
:1016400062E088E00E94B40161E08DE00E94B40194
:1016500060E08CE00E94B40183E10E94AB04BC0115
:10166000990F880B990B611571058105910511F092
:101670000E94B912809187019091880197FD76C1EF
:1016800061E00E94B40160E0809187010E948601C0
:1016900081E080938201E0910201F0910301EE0F5D
:1016A000FF1FE55EFE4F80810E94F3000E94E5046B
:1016B0000E940207992493948824839422242394DB
:1016C000312CF2E0AF2EB12C8FB7F894C090970177
:1016D000D0909801E0909901F0909A018FBF8FB758
:1016E000F894409097015090980160909901709003
:1016F0009A018FBF8EE00E94AB0421E084369105F1
:101700000CF020E080914901281751F02093490105
:101710004092440150924501609246017092470107
:101720008091440190914501A0914601B0914701FB
:10173000B301A201481B590B6A0B7B0BDB01CA01E9
:101740008397A105B10510F02093480150914801FD
:101750005C838FE00E94AB0421E0843691050CF09D
:1017600020E080914301281751F0209343014092DB
:101770003E0150923F016092400170924101809180
:101780003E0190913F01A0914001B0914101B30110
:10179000A201481B590B6A0B7B0BDB01CA01839723
:1017A000A105B10510F020934201509142015B83E5
:1017B00087E00E945D0121E0892B09F020E0809103
:1017C0003D01281751F020933D014092380150927D
:1017D000390160923A0170923B01809138019091F9
:1017E0003901A0913A01B0913B01B301A201481B1C
:1017F000590B6A0B7B0BDB01CA018397A105B1056D
:1018000010F020933C0150913C015E8388E00E94DF
:101810005D0121E0892B09F020E080913701281734
:1018200051F020933701409232015092330160927F
:101830003401709235018091320190913301A09171
:101840003401B0913501481A590A6A0A7B0A63E2E9
:10185000461651046104710410F020933601409043
:10186000360180E10E94AB048C01809100019091CF
:1018700001019A83898381E029813A812017310708
:101880000CF080E0809374013C81709031017924E8
:10189000311101C0712C709255014B81442309F420
:1018A00068C05091300159255D836D816093750149
:1018B0007E8160902F016924711101C0612C6092BA
:1018C000540150902E015924411001C0512C5092C6
:1018D00053018C81809331019B81909330012E8143
:1018E00020932F0140922E0180917B01882309F4DF
:1018F00046C08091770190917801A0917901B091D3
:101900007A01B701A601481B590B6A0B7B0BDB015F
:10191000CA01893C9105A105B105B0F0C0927701DB
:10192000D0927801E0927901F0927A01809176016B
:101930008925809376018823F1F040E050E0BA01D8
:1019400088EE93E00E94F0015D81552339F01092FA
:101950007B0183E00E94EA050E94020780E090E09C
:10196000892B09F4B1CE0E940000ABCE1092820107
:1019700092CE1D829ACF83E00E94EA05E5CF809146
:10198000510190915201009709F560E08AE00E94B0
:10199000860160E08BE00E94860149815A814017F0
:1019A00051070CF04BC05D81552309F447C00E94DC
:1019B000020710927301109272014CE251E060E054
:1019C00070E086E091E00E94F001C8CF60E08130D5
:1019D000910521F08330910531F461E08AE00E94A5
:1019E000860161E0D7CF0297C1F680914B019091BB
:1019F0004C01A0914D01B0914E01A7019601281B09
:101A0000390B4A0B5B0BDA01C9018B3F9105A1052C
:101A1000B10518F2C0924B01D0924C01E0924D01F9
:101A2000F0924E0130914A0139253B8330934A01AF
:101A3000632F8AE00E9486016B81ACCF8091030204
:101A400090910402009709F077C0662061F10E942E
:101A5000BC0784E190E00E943B079A8389839093BE
:101A600069018093680185E190E00E943B079093B3
:101A700065018093640120910A0130910B0140912E
:101A800008015091090160916001662309F4F5C1D4
:101A9000421B530B61E029813A81241735070CF072
:101AA000F5C160E0F3C1772001F1809102019091CE
:101AB0000301019665E070E00E94D7149093030142
:101AC00080930201880F991FFC01E55EFE4F808123
:101AD0000E94F3000E94E50444E650E060E070E0FC
:101AE0008AE491E00E94F001B4CF6D81662309F48D
:101AF000B0CF89819A81801791070CF4AACF1092F8
:101B00007101109270011092500110924F0184E007
:101B100090E090930402809303023092520120924D
:101B200051016FEF7FEF8FEF90E00E94160644E6C1
:101B300050E060E070E079C0209170013091710157
:101B40002115310509F085C0552009F44FC03092A8
:101B500073012092720180914F0190915001019682
:101B600064E070E00E94D7149093500180934F017D
:101B7000880F991FFC01EB5DFE4F208131813A8374
:101B80002983309304022093030244E650E060E08E
:101B900070E088E891E00E94F00149815A816FEF7E
:101BA00070E080E090E04230510549F069817A812F
:101BB0006330710539F46FEF70E080E890E00E94C7
:101BC000160647CF89819A81019729F460E070E079
:101BD0008FEF90E0F4CF29813A812430310509F06C
:101BE00038CF60E07FEF8FEF90E0E9CF3D81332386
:101BF00009F42FCF2091720130917301213031050A
:101C000009F027CF8130910511F0049789F4B09243
:101C10007101A092700143E050E050935201409353
:101C2000510148EC50E060E070E08BE092E05ACF68
:101C30003093710120937001B0925201A092510132
:101C4000109200021092FF01109259011092580157
:101C5000E8CF8230910509F43FC0C0F4019709F044
:101C6000F8CE2230310509F0F4CE8091080290912F
:101C70000902892B09F0EDCE7110D8C0662009F455
:101C8000EBC0B701A60184E090E084C083309105E9
:101C900009F49EC0049709F0DCCE2230310509F02A
:101CA000D8CE772009F4D5CE80915A01882309F443
:101CB000DBC010925A010E949D06109209021092F8
:101CC0000802109207021092060248EC50E060E011
:101CD00070E088E891E006CF21303105F1F5711010
:101CE00017C0611035C088E891E045E050E0511020
:101CF00013C05D81552309F4ACCEB0927101A0925E
:101D0000700163E070E0709352016093510189CFDC
:101D10008BE092E041E050E02091FF013091000221
:101D20002233310534F7B9016F5F7F4F70930002A2
:101D30006093FF01220F331FF901E556FE4F5183D7
:101D4000408344E650E060E070E00E94F001D1CFB3
:101D50008AE491E044E050E0DFCF2230310509F021
:101D600078CE7720D1F08091FF0190910002181673
:101D700019069CF48091050281116BCE80920502B8
:101D80003092020220920102B701A60180919B01CC
:101D900090919C010E945B065CCE7D81772309F4C3
:101DA00058CE80910502811154CE3092710120925B
:101DB0007001109200021092FF01B0925201A092A5
:101DC000510148EC50E060E070E086E091E08ACE9E
:101DD00021303105C1F4662089F08091580190913D
:101DE00059010196909359018093580144E650E0BF
:101DF00060E070E08AE491E00E94F0018D81882328
:101E000009F427CE7ACF2230310509F022CE77208F
:101E100091F08091580190915901181619065CF4BF
:101E200080915A01811115CE80925A01B701A60105
:101E300081E090E0AFCF9D81992309F40ACE809193
:101E40005A01811106CE30927101209270011092D8
:101E5000590110925801B1CFB701A60185E090E079
:101E6000552009F4F6CD96CF80925A01B701A6010C
:101E700081E090E00E945B065ACE240F351F61E09E
:101E800049815A81421753070CF40BCE60936001CD
:101E90004091060150910701209104013091050104
:101EA00060915F01662309F495C0241B350B41E066
:101EB000821793070CF440E040935F018091080281
:101EC00090910902009709F449CD019709F08EC05D
:101ED00080916C0190916D01A0916E01B0916F01A4
:101EE000A7019601281B390B4A0B5B0BDA01C901CC
:101EF00080359105A105B10508F478C0C0926C0148
:101F0000D0926D01E0926E01F0926F0160E08DE081
:101F10000E94860183E090E00197F1F761E08DE097
:101F20000E94860183E290E00197F1F760E08DE086
:101F30000E948601ECE9F0E06491EAEBF0E0E491C4
:101F4000F0E0EE0FFF1FEE58FF4F8591949108E8E7
:101F500013E120E030E0462F0E94710A61157105FF
:101F600081059105D1F16F5F7F4F8F4F9F4F9F701C
:101F7000611571058105910581F12AE330E040E0AA
:101F800050E00E94F41221503109410951092730D3
:101F900031054105510528F580910602909107020F
:101FA0000196909307028093060280910602909119
:101FB00007020297DCF080927B01109209021092D6
:101FC00008020E949D0660E070E08FEF90E00E94A2
:101FD0001606C4CC240F351F6ACF20E030E0A901DB
:101FE000D2CF1092070210920602DFCF8091080232
:101FF000909109028230910509F41AC108F0E4C0F9
:10200000019709F0ABCCA0910E01B0910F01809126
:102010006A0190916B012091680130916901AD01D5
:10202000481B590B483051050CF4F7C028173907E5
:102030000CF4F1C02A173B070CF4D901A81BB90B0B
:1020400028EE33E00E94EB149A01550F440B550B18
:102050000E94C21257FDE1C0DA01C901893E33E096
:102060009307A105B10524F088EE93E0A0E0B0E06D
:102070009A838983A0910C01B0910D018091660132
:10208000909167012091640130916501AD01481B79
:10209000590B483051050CF4C5C0281739070CF40A
:1020A000BFC02A173B070CF4D901A81BB90B28EEB7
:1020B00033E00E94EB149A01550F440B550B0E941C
:1020C000C21257FDAFC0293E63E0360741055105F6
:1020D00024F028EE33E040E050E089819A81821BB1
:1020E000930B9A83898380916301882309F49DC0AF
:1020F00080E590E029813A8137FF03C03195219531
:1021000031092817390714F41A8219828091610164
:102110009091620169817A81681B790B072E000C0E
:10212000880B990B0E94CA132DEC3CEC4CE45EE347
:102130000E9456142B013C0129813A81B901330FC9
:10214000880B990B0E94CA132DEC3CEC4CEC5DE320
:102150000E9456149B01AC01C301B2010E942613D8
:102160000E94921349815A81509362014093610108
:102170009B016135710514F020E530E0203B5FEFF5
:10218000350714F420EB3FEFB901645C7F4F8CE31B
:1021900090E0821B930B0E94380680916001882397
:1021A00009F4DCCB80915F01882309F4D7CBC0927E
:1021B0005B01D0925C01E0925D01F0925E01B09211
:1021C0000902A0920802CACB8430910509F488C0A4
:1021D000059709F0C3CB80915B0190915C01A091C0
:1021E0005D01B0915E01A7019601281B390B4A0BD6
:1021F0005B0BDA01C9018C329140A105B10508F4ED
:10220000ADCB8091560190915701009709F0A0C085
:1022100080915F0183C0DC0111CF1A8219822ACF1D
:10222000DC0143CF30E020E058CF8EE190E062CF78
:1022300080915B0190915C01A0915D01B0915E0184
:10224000A7019601281B390B4A0B5B0BDA01C90168
:102250008B369340A105B105E0F180915A018823A6
:10226000F9F0809103029091040284309105D9F035
:102270000397B1F48091580190915901019790937F
:10228000590180935801181619066CF010925A01E2
:102290004CE251E060E070E08BE092E00E94F001DF
:1022A0000E94A3065BCB0E946A1222E030E040E06D
:1022B00050E00E94C212672B39F4B701A60184E0F6
:1022C00090E00E945B064ACBB701A60185E090E052
:1022D000F8CF6CE370E08CE390E00E9438063ECBD0
:1022E00080915B0190915C01A0915D01B0915E01D4
:1022F000B701A601481B590B6A0B7B0BDB01CA0116
:102300008C329140A105B10508F428CB809156018B
:1023100090915701009751F480916001882309F44E
:102320001DCB309257012092560118CB019709F02E
:1023300015CB80915F01882309F410CB80915A015D
:10234000882309F4ADCFB701A60181E090E0B9CFB1
:10235000019709F003CB80916001EDCF10928201CB
:1023600010928901109290011092910110929201A5
:102370001092930181E080938F0180938C011092E1
:102380008D0192E090938E01809381018CE090E02A
:1023900090938601809385010E94F81490938B019D
:1023A00080938A01009789F12CE0FC0111922A9513
:1023B000E9F784E090E0909384018093830189E0C1
:1023C00090E0909388018093870180918201882317
:1023D00041F061E089E00E94B40160E089E00E9480
:1023E0008601E7EBF0E0E491F0E0EE0FFF1FEC5523
:1023F000FF4F859194919093950180939401E9E921
:10240000F0E0E491E0939601089510928601109215
:1024100085011092840110928301D1CF80918A01AD
:1024200090918B010E949415809187019091880171
:1024300097FD03C060E00C94B40108958F929F92C1
:10244000AF92BF92CF92DF92EF92FF92CF93DF9342
:10245000EC01688179818A819B8161157105810513
:10246000910521F464E279ED8BE597E02DE133EFFE
:1024700041E050E00E94C21249015A019B01AC01A7
:10248000A7EAB1E40E94E1126B017C01ACEEB4EF6B
:10249000A50194010E94EF12C60ED71EE81EF91E78
:1024A000F7FE06C081E0C81AD108E10880E8F80A02
:1024B000C882D982EA82FB82C701B6019F77DF9189
:1024C000CF91FF90EF90DF90CF90BF90AF909F9013
:1024D0008F9008958F929F92AF92BF92CF92DF928A
:1024E000EF92FF926091110170911201809113019E
:1024F00090911401611571058105910521F464E243
:1025000079ED8BE597E02DE133EF41E050E00E945B
:10251000C21249015A019B01AC01A7EAB1E40E9431
:10252000E1126B017C01ACEEB4EFA50194010E94B5
:10253000EF12C60ED71EE81EF91EF7FE06C081E098
:10254000C81AD108E10880E8F80AC0921101D092B7
:102550001201E0921301F0921401C701B6019F77B6
:10256000FF90EF90DF90CF90BF90AF909F908F90B3
:102570000895609311017093120180931301909359
:1025800014010895052E97FB1EF400940E94D912A1
:1025900057FD07D00E94F41207FC03D04EF40C94B0
:1025A000D91250954095309521953F4F4F4F5F4F31
:1025B000089590958095709561957F4F8F4F9F4FAF
:1025C00008950E941613A59F900DB49F900DA49F8F
:1025D000800D911D11240895B7FF0C94E1120E9403
:1025E000E112821B930B0895A1E21A2EAA1BBB1BBA
:1025F000FD010DC0AA1FBB1FEE1FFF1FA217B307CF
:10260000E407F50720F0A21BB30BE40BF50B661FE4
:10261000771F881F991F1A9469F7609570958095A8
:1026200090959B01AC01BD01CF010895A29FB0011F
:10263000B39FC001A39F700D811D1124911DB29FF6
:10264000700D811D1124911D08955058BB27AA2794
:102650000E943D130C941C140E940E1438F00E942A
:10266000151420F039F49F3F19F426F40C940B1440
:102670000EF4E095E7FB0C940514E92F0E942D144D
:1026800058F3BA17620773078407950720F079F4A7
:10269000A6F50C944F140EF4E0950B2EBA2FA02D36
:1026A0000B01B90190010C01CA01A0011124FF27FF
:1026B000591B99F0593F50F4503E68F11A16F040FA
:1026C000A22F232F342F4427585FF3CF46953795F9
:1026D0002795A795F0405395C9F77EF41F16BA0BBE
:1026E000620B730B840BBAF09150A1F0FF0FBB1F6C
:1026F000661F771F881FC2F70EC0BA0F621F731FB5
:10270000841F48F4879577956795B795F7959E3F11
:1027100008F0B0CF9395880F08F09927EE0F9795A2
:10272000879508950E9499136894B1110C945014E0
:1027300008950E94351488F09F5798F0B92F992773
:10274000B751B0F0E1F0660F771F881F991F1AF09C
:10275000BA95C9F714C0B13091F00E944F14B1E09E
:1027600008950C944F14672F782F8827B85F39F09D
:10277000B93FCCF3869577956795B395D9F73EF435
:1027800090958095709561957F4F8F4F9F4F0895DD
:10279000E89409C097FB3EF49095809570956195FB
:1027A0007F4F8F4F9F4F9923A9F0F92F96E9BB27B1
:1027B0009395F695879577956795B795F111F8CF2D
:1027C000FAF4BB0F11F460FF1BC06F5F7F4F8F4F98
:1027D0009F4F16C0882311F096E911C0772321F08E
:1027E0009EE8872F762F05C0662371F096E8862F26
:1027F00070E060E02AF09A95660F771F881FDAF77D
:10280000880F9695879597F9089597F99F6780E8BF
:1028100070E060E008959FEF80EC089500240A9432
:102820001616170618060906089500240A941216AB
:102830001306140605060895092E0394000C11F4DE
:10284000882352F0BB0F40F4BF2B11F460FF04C08B
:102850006F5F7F4F8F4F9F4F089557FD9058440FE4
:10286000551F59F05F3F71F04795880F97FB991FEF
:1028700061F09F3F79F087950895121613061406AC
:10288000551FF2CF4695F1DF08C016161706180639
:10289000991FF1CF86957105610508940895E89414
:1028A000BB2766277727CB0197F908950E94691403
:1028B0000C941C140E940E1438F00E94151420F081
:1028C000952311F00C9405140C940B1411240C9402
:1028D00050140E942D1470F3959FC1F3950F50E092
:1028E000551F629FF001729FBB27F00DB11D639FC2
:1028F000AA27F00DB11DAA1F649F6627B00DA11D68
:10290000661F829F2227B00DA11D621F739FB00D0D
:10291000A11D621F839FA00D611D221F749F33277D
:10292000A00D611D231F849F600D211D822F762F16
:102930006A2F11249F5750409AF0F1F088234AF0F3
:10294000EE0FFF1FBB1F661F771F881F915050405F
:10295000A9F79E3F510580F00C9405140C94501477
:102960005F3FE4F3983ED4F3869577956795B795E6
:10297000F795E7959F5FC1F7FE2B880F911D969500
:10298000879597F90895AA1BBB1B51E107C0AA1FA1
:10299000BB1FA617B70710F0A61BB70B881F991F00
:1029A0005A95A9F780959095BC01CD01089597FBA4
:1029B000072E16F4009407D077FD09D00E94C314A7
:1029C00007FC05D03EF4909581959F4F0895709532
:1029D00061957F4F08950E941613B7FF0895821BDB
:1029E000930B0895EE0FFF1F0590F491E02D0994CD
:1029F0000F931F93CF93DF938230910510F482E001
:102A000090E0E0911D02F0911E0230E020E0B0E085
:102A1000A0E0309799F42115310509F44AC0281B2C
:102A2000390B24303105D8F58A819B8161157105F8
:102A300089F1FB0193838283FE0111C040815181A2
:102A40000281138148175907E0F04817590799F494
:102A5000109761F012960C93129713961C9332966E
:102A6000CF01DF91CF911F910F91089500931D0227
:102A700010931E02F4CF2115310551F04217530770
:102A800038F0A901DB019A01BD01DF01F801C1CFD6
:102A9000EF01F9CF90931E0280931D02CDCFFE016E
:102AA000E20FF31F819391932250310939832883D8
:102AB000D7CF20911B0230911C02232B41F420918F
:102AC00017013091180130931C0220931B022091B2
:102AD0001501309116012115310541F42DB73EB78E
:102AE0004091190150911A01241B350BE0911B02F2
:102AF000F0911C02E217F307A0F42E1B3F0B2817DE
:102B0000390778F0AC014E5F5F4F2417350748F066
:102B10004E0F5F1F50931C0240931B0281939193B1
:102B20009FCFF0E0E0E09CCFCF93DF930097E9F0F8
:102B3000FC01329713821282A0911D02B0911E02F5
:102B4000ED0130E020E01097A1F420813181820F67
:102B5000931F20911B0230911C022817390709F09E
:102B600061C0F0931C02E0931B02DF91CF910895A6
:102B7000EA01CE17DF07E8F54A815B819E01411526
:102B80005105B1F7E901FB83EA8349915991C40FDB
:102B9000D51FEC17FD0761F4808191810296840FA7
:102BA000951FE90199838883828193819B838A831E
:102BB000F0E0E0E012968D919C9113970097B9F5A3
:102BC0002D913C911197CD010296820F931F209178
:102BD0001B0230911C022817390739F6309751F53E
:102BE00010921E0210921D02B0931C02A0931B02B1
:102BF000BCCFD383C28340815181840F951FC817F6
:102C0000D90761F44E5F5F4F88819981480F591F42
:102C1000518340838A819B8193838283211531056F
:102C200009F0B0CFF0931E02E0931D029ECFFD018C
:102C3000DC01C0CF13821282D7CFDC0101C06D93BB
:102C400041505040E0F7089510E0C3E6D0E004C0E2
:102C5000FE010E94F2142196C436D107C9F7F894F8
:022C6000FFCFA4
:102C6200580202005802030058020300FF03FF0348
:102C7200FF0100000000001F0280000A0032006411
:0E2C820000B400FF0004000100020003000087
:00000001FF
