:100000000C9464000C948C000C948C000C948C0068
:100010000C948C000C948C000C948C000C94AE0A04
:100020000C948C000C948C000C948C000C94620B3F
:100030000C948C000C948C000C948C000C948C0010
:100040000C94640A0C948C000C94300B0C940A0BE6
:100050000C948C000C948C000C948C000C948C00F0
:100060000C948C000C948C000200000000240027EB
:10007000002A0000000000230026002900000000E4
:100080000800020100000304070000000000000057
:100090000001020408102040800102040810200121
:1000A000020408102000000000250028002B000496
:1000B000040404040404040202020202020303030F
:1000C00003030300630C491B11241FBECFEFD8E0CC
:1000D000DEBFCDBF11E0A0E0B1E0E2E6FEE302C08A
:1000E00005900D92A437B107D9F723E0A4E7B1E05A
:1000F00001C01D92AD32B207E1F710E0C3E6D0E0D7
:1001000004C02197FE010E94EB1DC236D107C9F73A
:100110000E94280D0C94241F0C940000833081F061
:1001200028F4813099F08230A9F008958730A9F041
:100130008830C9F08430B1F4809180008F7D03C095
:10014000809180008F7780938000089584B58F77A9
:1001500084BD089584B58F7DFBCF8091B0008F77EB
:100160008093B00008958091B0008F7DF9CFCF9338
:10017000DF93282F30E0F901E358FF4F8491F90114
:10018000EF56FF4FD491F901E155FF4FC491CC23B5
:10019000A1F081110E948E00EC2FF0E0EE0FFF1F06
:1001A000ED58FF4FA591B491EC91ED2381E090E0E3
:1001B00009F480E0DF91CF91089580E090E0FACFDC
:1001C0001F93CF93DF93282F30E0F901E358FF4FBF
:1001D0008491F901EF56FF4FD491F901E155FF4F9A
:1001E000C491CC23A9F0162F81110E948E00EC2F10
:1001F000F0E0EE0FFF1FEB55FF4FA591B4918FB7C5
:10020000F894EC91111108C0D095DE23DC938FBFD8
:10021000DF91CF911F910895DE2BF8CFCF93DF931D
:1002200090E0FC01EF56FF4F249181559F4FFC0158
:1002300084918823D1F090E0880F991FFC01E75941
:10024000FF4FA591B491FC01EB55FF4FC591D4919F
:1002500061110EC09FB7F8948C91E22FE0958E2328
:100260008C932881E223E8839FBFDF91CF9108958B
:100270008FB7F894EC91E22BEC938FBFF6CF80917F
:1002800001039091020397FD0CC061E00E940E01F2
:1002900060E0809101030E94E00081E08093FC0215
:1002A00008951092FC0280E008958E3008F08E5080
:1002B0008770806480937C0080917A008064809352
:1002C0007A0080917A0086FDFCCF80917800909131
:1002D000790008953FB7F8948091350290913602E5
:1002E000A0913702B091380226B5A89B05C02F3FD8
:1002F00019F00196A11DB11D3FBFBA2FA92F982F4C
:100300008827BC01CD01620F711D811D911D42E046
:10031000660F771F881F991F4A95D1F708950F938D
:100320001F93CF93DF93CDB7DEB729970FB6F8941D
:10033000DEBF0FBECDBF8091040390910503892BD2
:1003400009F47CC00E946A0100910A0310910B031A
:1003500020910C0330910D036017710782079307FA
:1003600040F460930A0370930B0380930C03909303
:100370000D0300910A0310910B0320910C0330919F
:100380000D03601B710B820B930B6C327140810566
:100390009105C0F2F8948091FF02909100039A8336
:1003A0008983E0910403F0910503DF0111968081B8
:1003B00089879091FB02E0910E03F0910F038091E9
:1003C0001003992309F445C09081982B9887908158
:1003D000809589238F838F818C8388E08B835885D8
:1003E0006F8149853B812C8189819A81508347FDAA
:1003F000252F3A952083262F39F0441F00C0000096
:100400006083000000C0F2CF38E04D9160830000AF
:10041000019761F7F0930F03E0930E0349873B8345
:100420002C839A83898378940E946A0160930A03DB
:1004300070930B0380930C0390930D0329960FB6D2
:10044000F894DEBF0FBECDBFDF91CF911F910F910A
:1004500008959081982B98879081809589238F8328
:100460008F818E8388E08D8358856F8149853D819A
:100470002E8189819A81508347FD252F00C000C0BD
:10048000208300C000C000C000C000C06083000026
:10049000262F3A9541F0441F000000C000C000C064
:1004A00000C000C0E8CF38E04D9100C0608300C0BC
:1004B000019709F7F0930F03E0930E0349873D83FB
:1004C0002E83AFCF8F929F92AF92BF92CF92DF9247
:1004D000EF92FF924B015C010E946A016B017C016B
:1004E0000E946A016C197D098E099F09683E73405C
:1004F00081059105A8F321E0821A9108A108B108AD
:1005000088EEC80E83E0D81EE11CF11C8114910412
:10051000A104B10429F7FF90EF90DF90CF90BF9036
:10052000AF909F908F9008952FB7F894609131020B
:100530007091320280913302909134022FBF08955E
:100540009091000189130BC0E8E6F0E0E4919FEF81
:1005500090930001E13049F028F0E23061F060E072
:100560000C94E00010926E00FACF90916F009D7F86
:1005700090936F00F4CF909170009D7F90937000E6
:1005800091E09093B0009091B100987F9460909327
:10059000B1001092B300E3CFAF92BF92CF92DF923F
:1005A000EF92FF920F931F93CF93DF936C017B0128
:1005B0008B01040F151FEB015E01AE18BF08C017B9
:1005C000D10759F06991D601ED91FC910190F0812C
:1005D000E02DC6010995892B79F7C501DF91CF91EF
:1005E0001F910F91FF90EF90DF90CF90BF90AF9051
:1005F000089542E050E061E771E089E392E00C94F5
:10060000CC02FC01538D448D252F30E0842F90E0E7
:10061000821B930B541710F0CF96089501970895FD
:10062000FC01918D828D981761F0A28DAE0FBF2FC6
:10063000B11D5D968C91928D9F5F9F73928F90E01C
:1006400008958FEF9FEF0895FC01918D828D98178B
:1006500031F0828DE80FF11D858D90E008958FEFC8
:100660009FEF0895FC01918D228D892F90E0805C91
:100670009F4F821B91098F739927089589E392E018
:100680000E94320321E0892B09F420E0822F089593
:1006900080E090E0892B29F00E943E0381110C94A8
:1006A00000000895FC01A48DA80FB92FB11DA35A15
:1006B000BF4F2C91848D90E001968F739927848F82
:1006C000A689B7892C93A089B1898C9183708064A5
:1006D0008C93938D848D981306C00288F389E02D46
:1006E00080818F7D80830895EF92FF920F931F93F7
:1006F000CF93DF93EC0181E0888F9B8D8C8D9813D5
:100700001AC0E889F989808185FF15C09FB7F894E0
:10071000EE89FF896083E889F9898081837080642C
:1007200080839FBF81E090E0DF91CF911F910F9177
:10073000FF90EF900895F62E0B8D10E00F5F1F4F86
:100740000F731127E02E8C8D8E110CC00FB607FC95
:10075000FACFE889F989808185FFF5CFCE010E9423
:100760005203F1CFEB8DEC0FFD2FF11DE35AFF4F3C
:10077000F0829FB7F8940B8FEA89FB8980818062B1
:10078000CFCFCF93DF93EC01888D8823B9F0AA896E
:10079000BB89E889F9898C9185FD03C0808186FD3C
:1007A0000DC00FB607FCF7CF8C9185FFF2CF80818B
:1007B00085FFEDCFCE010E945203E9CFDF91CF91AB
:1007C00008959C01225031092C30310598F489306C
:1007D000910581F0FC01EE0FFF1FE75CFE4F2081C9
:1007E0003181232B21F421E030E03183208361E04B
:1007F0000C940E010895682F89E392E00C94740321
:100800008FEF0E94FB0385E50E94FB030C94F90225
:100810000F931F93CF93DF938B01D82FC92F82E0C3
:100820000E94FB03C801AD2FBC2F809379019093E8
:100830007A01A0937B01B0937C010E94FB03812F7E
:100840000E94FB038D2F0E94FB038C2FDF91CF9121
:100850001F910F910C94FB038FEF0E94FB0385E522
:100860000C94FB03CF93C82F60E00E940E010E94FE
:100870002C048C2F0E94B700BC01990F880B990B98
:100880000E94601B0E9408048C2F0E94FB0381E0E1
:100890000E94FB03CF910C94F902CF92DF92EF926A
:1008A000FF92CF93DF936B017C01D42FC22F0E9464
:1008B0002C04C701B6010E9408048D2F0E94FB037F
:1008C0008C2F0E94FB03DF91CF91FF90EF90DF9080
:1008D000CF900C94F902CF93C82F0E942C048C2F38
:1008E0000E945501BC01990F880B990B0E94601B57
:1008F0000E9408048C2F0E94FB0382E00E94FB03ED
:10090000CF910C94F9029C01275031092230310516
:1009100028F0275031092230310510F40C943204AC
:10092000089510922E021092E9011092E80110929F
:10093000E70110922F02E3EBF1E0119281E0E73E34
:10094000F807D9F70895CF92DF92EF92FF926B01EB
:100950007C01809177018823A9F189E392E00E94CC
:100960003203892B29F089E392E00E941003F5CF2E
:1009700089E392E00E94C103E0914B02F0914C02A6
:1009800080818F7E8083E0914B02F0914C028081C8
:10099000877F8083E0914B02F0914C0280818F77BA
:1009A0008083E0914B02F0914C0280818F7D8083A7
:1009B000809153028093520262E070E080E090E008
:1009C0000E9462020E94910410922A0210922B024D
:1009D00010922C0210922D02E0914902F0914A02ED
:1009E00082E08083C11481EED806E104F104A1F015
:1009F00060E079E08DE390E0A70196010E94A71CDA
:100A00002150310941095109569547953795279548
:100A1000211580E13807A8F0E0914902F0914A02DF
:100A2000108260E874E88EE190E0A70196010E94D0
:100A3000A71C215031094109510956954795379511
:100A40002795E0914502F09146023083E0914702FC
:100A5000F0914802208310925102E0914D02F091F2
:100A60004E0286E08083E0914B02F0914C0280813F
:100A700080618083E0914B02F0914C02808188601C
:100A80008083E0914B02F0914C02808180688083EA
:100A9000E0914B02F0914C0280818F7D808381E058
:100AA00080937701C0925501D0925601E092570190
:100AB000F09258010E9494026093EE017093EF014E
:100AC0008093F0019093F101FF90EF90DF90CF9031
:100AD0000895E9E3F1E081E090E08193919321E0D2
:100AE000E535F207D1F710924801109247011092B4
:100AF0004A011092490190932A0180932901909311
:100B00002C0180932B0190933201809331019093BB
:100B100034018093330110922E0110922D01109216
:100B2000300110922F01109236011092350110926F
:100B30003801109237018091550190915601A09192
:100B40005701B091580180389542A105B10531F4A3
:100B500081E080931E0280931D02089510922A0165
:100B60001092290110922C0110922B0110921E025A
:100B700010921D020895CF93DF93A1E1B3E0CEE878
:100B8000D1E0EC918E2F90E0FC01EE0FFF1FE80FFB
:100B9000F91FEA52FD4F808186FF02C08F7B808360
:100BA00019921992139683E0A932B80751F7DF9191
:100BB000CF9108959FB7F8948BB18F798BB984B595
:100BC0008F7084BD18BC17BC9FBF1092740108952C
:100BD000FF920F931F93CF93DF939C018F3F91055B
:100BE00019F014F02FEF30E021308FEF380714F4B4
:100BF00021E03FEF37FF03C0319521953109D22F16
:100C00009B016F3F710519F014F02FEF30E0213098
:100C10008FEF380714F421E03FEF37FF03C0319521
:100C200021953109C22F81E0D11101C080E020E07F
:100C3000C11122E0F22EF82A61F40E94DA05109226
:100C4000760110927501DF91CF911F910F91FF9066
:100C50000895092F001F0027001F172F111F1127AC
:100C6000111F809174018F1109C08091760180134A
:100C700005C08091750130E0811719F00E94DA05F6
:100C800031E086B58830E8F386B5813FD0F72FB7DD
:100C9000F89486B58850893E10F02FBFF2CF8BB103
:100CA0008B7801118460111180618BB9D8BDC7BDEB
:100CB00084B58F70D1118062C1118068311109C073
:100CC00084BD2FBFF09274010093760110937501DB
:100CD000BACF2FBF96B5913FE8F396B59930E8F7B4
:100CE0002FB7F89496B59930A0F7EACF10920B027F
:100CF00010920A02109209021092080210920F023A
:100D000010920E0210920D0210920C02109202022A
:100D100010920102109200021092FF01109218022C
:100D2000109207021092AD011092AC0170E060E0E9
:100D300090E080E00E94E80560E082E00E94E00030
:100D400060E084E00C94E0006F3F710519F014F04E
:100D50006FEF70E061309FEF790714F461E07FEF8F
:100D600090910702992321F1811119C070930B0210
:100D700060930A02709302026093010210920F02C4
:100D800010920E0210920D0210920C0281E08093DC
:100D9000180270E060E090E080E00C94E805709349
:100DA000090260930802709300026093FF01E6CF8E
:100DB00010921802811105C070930B0260930A0211
:100DC0000895709309026093080208950F931F938A
:100DD000E091F601EE23D9F00091F7011091F801AE
:100DE0002091F9013091FA01AB01BC01401B510B7C
:100DF000620B730B77FD0BC01092F6011092F70196
:100E00001092F8011092F9011092FA01E0E08E2F91
:100E10001F910F91089580912502882379F081E038
:100E200040915501509156016091570170915801C0
:100E3000403855426105710509F080E00895EAE106
:100E4000F1E010821482EBE0F1E010821482089548
:100E500061E082E00E940E0161E085E00E940E01E7
:100E600061E084E00E940E0161E086E00E940E01D4
:100E700061E083E00E940E0161E08AE00E940E01C1
:100E800061E08BE00E940E0161E08DE00E940E01A6
:100E900060E08CE00E940E0160E087E00E940E019D
:100EA00060E088E00E940E0160E08EE00E940E018A
:100EB00060E08FE00E940E0160E080E10E940E0180
:100EC00060E081E10E940E0160E084E10E940E0179
:100ED00060E085E10E940E0160E082E00E94E00097
:100EE00060E084E00E94E0000E94DA0560E083E0B8
:100EF0000E94E00060E08AE00E94E00060E08BE099
:100F00000E94E00060E08DE00E94E0000C941F076A
:100F10004F925F926F927F928F929F92AF92BF9209
:100F2000EF92FF920F931F93CF93DF9340910101B4
:100F3000F0E0E0E0CFEFD0E08091FD029091FE0282
:100F4000E817F90708F079C0DF01A855BE4F8C916A
:100F5000489FC0011124BE010E94C31D8B0130E0D7
:100F600020E0980111270027DF01AC55BE4F8C917E
:100F7000489FC0011124BE010E94C31DCB01B0E0F7
:100F8000A0E0BA2FA92F982F8827082B192B2A2BDE
:100F90003B2BDF01A056BE4F8C91489FC00111240E
:100FA000BE010E94C31DCB01B0E0A0E0802B912BBD
:100FB000A22BB32B2D0166247724892E9A2EAB2EDB
:100FC000BB24582D382F60910303242D662391F004
:100FD000E62EF12CE49C8001E59C100DF49C100D94
:100FE0001124212F689D40011124592D689FC001B3
:100FF0001124392FA09109038091040390910503D6
:1010000060910603A6132EC0BF01660F771F6E0FF7
:101010007F1F860F971FA0910603A80FB92FB11D40
:101020002C93A0910703A80FB92FB11D5C932091B9
:101030000803820F911DDC013C933196E430F105E9
:1010400009F07ACFDF91CF911F910F91FF90EF9030
:10105000BF90AF909F908F907F906F905F904F90D8
:101060000C948F01BF01660F771F660F771F860FE5
:10107000971FA80FB92FB11D1C92CDCFFC019585EC
:101080008685891740F16623A9F0943088F443815E
:101090005281292F30E0D901A855BE4F71817C9330
:1010A000D901AC55BE4F5C9320563E4FD9014C93AD
:1010B0009F5FE7CF9430E0F7292F30E0D901A855A2
:1010C000BE4F1C92D901AC55BE4F1C9220563E4FCC
:1010D000D9011C92EDCF0C948807AF92BF92CF92AA
:1010E000DF92EF92FF920F931F93CF93DF93EC0168
:1010F000C701D80182339105A105B10520F482E32F
:1011000090E0A0E0B0E0388169834A832B838D832F
:101110009E83AF83B887332371F06C81CE01DF915A
:10112000CF911F910F91FF90EF90DF90CF90BF90E4
:10113000AF900C943E08A114B104C104D10421F471
:101140000E9494025B016C01A986BA86CB86DC867C
:1011500081E088838C8361E0E1CF50917C004091F5
:101160007A008EE480937C0083E795E00197F1F7A5
:1011700080917A00806480937A0080917A0086FD65
:10118000FCCF80917A00806480937A0080917A000D
:1011900086FDFCCF209178003091790050937C003F
:1011A00040937A0080917A00806480937A008091E5
:1011B0007A0086FDFCCF2115310559F050E040E062
:1011C00064EB7BE281E190E00E947D1CCA01B901E1
:1011D000089528E833E140E050E0F8CF86179707FC
:1011E0003CF4840F951F6817790754F4CB0108C0AD
:1011F000681779072CF4841B950B86179707B4F3AF
:101200000895CF93DF930E947606C0910701D09195
:101210000801CE0102970C9738F48C2F0E94A0028F
:1012200060E08C2F0E94E00083E00E94A00260E05A
:1012300083E00E94E00083E090E0909308018093B7
:10124000070161E08AE00E940E0160E08AE00E94EE
:10125000E00061E08BE00E940E0160E08BE00E9404
:10126000E00060E08AE00E94E00060E08BE00E9425
:10127000E0000E94BB0580910501909106019C0150
:10128000225031092C30310518F460E00E94E00052
:10129000109220021092EA011092EB011092EC01E0
:1012A0001092ED018DE090E090930601809305018E
:1012B0008CE090E090930401809303010E94690503
:1012C0000E9428070E941F078FEF809301010E9450
:1012D0003F0120910303222341F1C0910403D091E7
:1012E00005032150E9F030E050E040E06FEF7FEF80
:1012F00080E090E00E947D1CFE014091FF02509131
:101300000003CF018C1B9D0B8417950760F440816F
:10131000429FC001439F900D112490833196EDCFE1
:1013200030E020E0E9CF10920303E8EAF1E0C4EAFC
:10133000D1E0A0EAB1E0119219921D9281E0EC3A5D
:10134000F807C9F74091FF025091000370E060E098
:1013500080910403909105030E941D1F0E948F013C
:1013600081E0809302011092AE011092AF011092C1
:10137000B0011092B1010E94940260932102709317
:1013800022028093230290932402609319027093A7
:101390001A0280931B0290931C02609326027093A2
:1013A000270280932802909329026093140270937D
:1013B0001502809316029093170210921F02DF917C
:1013C000CF910895CF92DF92EF92FF920F931F93E8
:1013D000F090050160E08F2D0E94E00083E090E036
:1013E0000197F1F761E08F2D0E94E00083E290E029
:1013F0000197F1F760E08F2D0E94E00080910301DA
:10140000909104019927FC01EF56FF4F6491FC0174
:10141000E155FF4FE491F0E0EE0FFF1FED58FF4F55
:101420008591949100E315E720E030E0462F0E947B
:101430001E0C611571058105910529F06F5F7F4FC5
:101440008F4F9F4F9F700E945E1B20E030E048EE60
:1014500051E40E94451D20E030E040E05FE30E943F
:10146000BF1B6B017C0120E030E0A9010E94591BE9
:10147000811121C0C090EA01D090EB01E090EC0115
:10148000F090ED010E942C04C701B6010E940804EF
:10149000809105010E94FB03809103010E94FB03E0
:1014A00087E00E94FB031F910F91FF90EF90DF9068
:1014B000CF900C94F902C092EA01D092EB01E09235
:1014C000EC01F092ED01DECF1F920F920FB60F925A
:1014D00011242F933F938F939F93AF93BF9380914A
:1014E000310290913202A0913302B09134023091D6
:1014F000300223E0230F2D3758F50196A11DB11DB1
:10150000209330028093310290933202A0933302F1
:10151000B09334028091350290913602A091370247
:10152000B09138020196A11DB11D809335029093B0
:101530003602A0933702B0933802BF91AF919F91CA
:101540008F913F912F910F900FBE0F901F90189584
:1015500026E8230F0296A11DB11DD2CF1F920F9234
:101560000FB60F9211242F933F934F935F936F9376
:101570007F938F939F93AF93BF93EF93FF9380914C
:10158000820190918301A0918401B0918501892B02
:101590008A2B8B2BD1F190917D01E0917E01F0910E
:1015A0007F018081892780838091820190918301CE
:1015B000A0918401B0918501181619061A061B0620
:1015C0009CF48091820190918301A0918401B0915B
:1015D00085010197A109B10980938201909383014C
:1015E000A0938401B0938501FF91EF91BF91AF91DA
:1015F0009F918F917F916F915F914F913F912F912B
:101600000F900FBE0F901F901895809100010E94BF
:10161000A002EACF1F920F920FB60F9211242F93C0
:101620003F934F935F936F937F938F939F93AF936A
:10163000BF93EF93FF9389E392E00E945203FF91DF
:10164000EF91BF91AF919F918F917F916F915F913A
:101650004F913F912F910F900FBE0F901F901895B3
:101660001F920F920FB60F9211242F938F939F9377
:10167000EF93FF93E0914902F0914A028081E0915B
:101680004F02F091500282FD1BC090818091520266
:101690008F5F8F7320915302821741F0E0915202C5
:1016A000F0E0E75CFD4F958F80935202FF91EF9140
:1016B0009F918F912F910F900FBE0F901F901895B3
:1016C0008081F4CF1F920F920FB60F9211242F93A7
:1016D0003F934F935F936F937F938F939F93AF93BA
:1016E000BF93CF93DF93EF93FF9380917801C091E5
:1016F000FA02D0E087FF24C0109285001092840087
:10170000809178018F5F8093780180917801082E15
:10171000000C990B8C179D0724F4809178018C3074
:10172000C4F18091840090918500049680349C4996
:1017300008F47AC08091840090918500049676C068
:1017400080917801082E000C990B8C179D07C4F628
:10175000E09178018E2FEE0F990BFC01EE0FFF1F29
:10176000E80FF91FEA52FD4F808186FFC9CFE09153
:1017700078018E2FEE0F990BFC01EE0FFF1FE80F83
:10178000F91FEA52FD4F808160E08F730E94E000F4
:10179000B7CF2091840030918500E09178018E2FA1
:1017A000EE0F990BFC01EE0FFF1FE80FF91FEA5235
:1017B000FD4F81819281820F931F909389008093C6
:1017C0008800E09178018E2FEE0F990BFC01EE0F4F
:1017D000FF1FE80FF91FEA52FD4F808186FF11C0FD
:1017E000E09178018E2FEE0F990BFC01EE0FFF1F99
:1017F000E80FF91FEA52FD4F808161E08F730E946C
:10180000E000FF91EF91DF91CF91BF91AF919F9158
:101810008F917F916F915F914F913F912F910F9099
:101820000FBE0F901F90189580E49CE9909389005B
:10183000809388008FEF80937801E3CFCF92DF927F
:10184000EF92FF920F931F93E82FF92F05C00150DD
:1018500011092109310961F1908196239417B9F397
:1018600005C0015011092109310911F19081962318
:101870009413F7CFC12CD12CE12CF12C0AC08FEF9F
:10188000C81AD80AE80AF80A0C151D052E053F05E6
:1018900079F080818623841791F36C2D7D2D8E2D18
:1018A0009F2D1F910F91FF90EF90DF90CF900895A3
:1018B00060E070E080E090E01F910F91FF90EF906A
:1018C000DF90CF90089510923C0210923B0288EE78
:1018D00093E0A0E0B0E080933D0290933E02A0939D
:1018E0003F02B093400283E691E090933A028093E6
:1018F000390285EC90E0909346028093450284EC97
:1019000090E0909348028093470280EC90E090939F
:101910004A028093490281EC90E090934C028093BC
:101920004B0282EC90E090934E0280934D0286EC45
:1019300090E09093500280934F02109252021092C6
:1019400053021092540210925502E1E1F3E029E2B1
:1019500033E04FEF68EB7BE08091FA028C3008F0C7
:101960006CC091E0980F9093FA02808390E0DC01C4
:10197000AA0FBB1FA80FB91FAA52BD4F12967C9386
:101980006E93119733962E173F0731F71092FC0292
:101990001092030310920A0310920B0310920C038F
:1019A00010920D0381E08093090380930603109247
:1019B000070392E0909308038093FB028CE090E091
:1019C000909300038093FF020E94F81D90930503FB
:1019D00080930403009799F12CE0FC0111922A9561
:1019E000E9F784E090E09093FE028093FD0289E0A5
:1019F00090E090930203809301038091FC0288237E
:101A000041F061E089E00E940E0160E089E00E94FF
:101A1000E000E8EBF0E0E491F0E0EE0FFF1FEB55A3
:101A2000FF4F8591949190930F0380930E03EAE901
:101A3000F0E0E491E093100308954083A3CF109267
:101A400000031092FF021092FE021092FD02CFCF0F
:101A5000CF93DF93CDB7DEB767970FB6F894DEBFAD
:101A60000FBECDBF789484B5826084BD84B581609B
:101A700084BD85B5826085BD85B5816085BD809159
:101A80006E00816080936E001092810080918100D1
:101A900082608093810080918100816080938100C9
:101AA000809180008160809380008091B10084608B
:101AB0008093B1008091B00081608093B0008091EC
:101AC0007A00846080937A0080917A0082608093AB
:101AD0007A0080917A00816080937A0080917A0008
:101AE000806880937A001092C10060E071EE80E01F
:101AF00090E00E94A3040E9428070E943F014091A9
:101B0000FF025091000370E060E080910403909127
:101B100005030E941D1F0E948F010E94AD08709353
:101B20000A01609309016137774130F088E893E159
:101B300090930A01809309010E949402609310021D
:101B400070931102809312029093130262E370E08B
:101B500080E090E00E946202AE014F5F5F4F5E87BF
:101B60004D8764E070E0641B750B7F8B6E8B0E9469
:101B7000940220912F02211104C020912E022F3FA8
:101B8000C1F400912A0210912B0220912C02309175
:101B90002D02011511052105310559F0601B710B4E
:101BA000820B930B653B71058105910510F00E9436
:101BB000910489EC90E09D8B8C8B89E392E00E94EC
:101BC0003203892B11F40C946317AC89BD891197EA
:101BD000BD8BAC8BAB2B11F40C94631789E392E0B3
:101BE0000E9410038F870E94940260932A027093D0
:101BF0002B0280932C0290932D0280912F02811151
:101C000018C080912E028F3F81F4BF85B53569F4ED
:101C100081E080932F0282E08093E9011092E80135
:101C20001092E70110922E02C8CFEF85E0932E02AA
:101C3000C4CF8091E9018230A9F48F8583508F321F
:101C400030F00E949104FF85F0932E02B6CFCF842E
:101C5000C092E801C092E701C092B50183E0809391
:101C6000E901ABCF9091E801992311F0843330F072
:101C70000E949104DF84D0922E029FCFE82FF0E0E3
:101C8000ED54FE4FEF84E0828F5F8093E9018FEF88
:101C9000890F8093E801811190CF10922F0210914B
:101CA000E7018DEF810F8F3208F0C5C0009125024A
:101CB0000111A4C0153009F0BEC08091B701813078
:101CC00009F0B9C08091B801823009F0B4C08091A8
:101CD000B9018111B0C08091BA018A3009F0ABC05E
:101CE0000E9494024B015C01011119C081E08093B4
:101CF00025020E94690510921F021092190210928B
:101D00001A0210921B0210921C020E94940260930D
:101D100021027093220280932302909324028092E6
:101D2000F2019092F301A092F401B092F501E090DB
:101D3000B601E092B201E091B8010091B901A02E84
:101D4000B12CF090B70122E0F21609F4C9C133E0DA
:101D5000F31611F40C94601741E0F4126CC0E730F4
:101D600009F0EEC01091BA0195012250310940915D
:101D70002002812F90E04111A5C0F0922002B09284
:101D80000601A092050190930401809303012C3079
:101D9000310530F02DE030E030930601209305014D
:101DA00002970C9730F08CE090E0909304018093C0
:101DB00003010091050110910601F801EE0FFF1FCC
:101DC000E75CFE4F81E090E091838083E090030127
:101DD000F0900401F701EE0FFF1FE75CFE4F9183C7
:101DE000808361E0802F0E940E0160E08E2D0E94B2
:101DF0000E0160E0802F0E94E0001DC08091B701BD
:101E0000833019F41430B9F46BCF90E0E091B8014D
:101E100081309105C1F4E73029F4163061F48091E6
:101E2000BB015BCFE33020F0E83011F0E43619F469
:101E3000153009F450CFFF85F0932E021092E9017E
:101E40001092E701BACE0297B1F7E150E13198F76D
:101E50000E2E000CFF0BE15DF04F0C94EB1D5A0FA2
:101E60001B0F400F5A0F460F1B0F1B0F1B0F020FAC
:101E7000490F5E0F520F5E0F560F5A0F5E0F020F83
:101E80008BEF810F823008F42BCFD5CF183099F625
:101E900027CF163009F424CF812F8D7F883009F0A9
:101EA000CACF1ECF173009F0C6CF1ACF1B3009F0AA
:101EB000C2CF16CF153009F0BECF12CF163009F0C1
:101EC000BACF0ECF2C30310518F00DE0A02EB12C7A
:101ED00002970C9708F01CE0812F90E020910501FB
:101EE000309106012A153B0541F420910301309100
:101EF00004012817390709F49ECFB0920601A09279
:101F000005019093040180930301F501EE0FFF1F7B
:101F1000E75CFE4F21E030E031832083880F991F7A
:101F2000FC01E75CFE4F3183208361E08A2D0E9433
:101F30000E0160E0812F0E940E0160E08A2D5BCFD0
:101F4000F0E0E130F105E1F4C5010797029740F4B4
:101F5000F501EE0FFF1FE75CFE4F118210826BCF81
:101F60000E940B07882309F466CF0E3019F4F09213
:101F70001E0261CF0F3009F05ECFF0921D025BCFE1
:101F8000E230F105E1F4083008F055CF0E940B076C
:101F9000882311F0023030F0F501EE0FFF1FE75DEE
:101FA000FE4FDBCF802F0E945501BC01990F880B9B
:101FB000990B0E94601B22E030E0A50174C0E4365A
:101FC000F10509F067C0073009F45EC00CF048C0A5
:101FD000033009F455C0063009F454C0023009F04A
:101FE0002ACF80E10E945501BC01990F880B990B03
:101FF0000E94601B5B01F82E192FCB01AF2DB12F72
:102000008093790190937A01A0937B01B0937C0136
:102010008FEF0E94FB0385E50E94FB038AE00E948C
:10202000FB038E2D0E94FB0381E00E94FB0384E6EC
:102030000E94FB03802F0E94FB0382E00E94FB03AF
:102040008A2D0E94FB038B2D0E94FB038F2D0E9483
:10205000FB03812F0E94FB038AE00E94FB03EBCE6F
:102060000F30A1F03CF48EE00E3009F0E4CE0E9477
:10207000B700BACF063461F088E00035C1F3DBCE9B
:1020800081E1B0CF84E1AECF85E1ACCF8FE0EFCF7F
:1020900087E0EDCF309751F430E020E0A50160E01B
:1020A00070E080E89FE30E944D04C5CE389709F0A8
:1020B000C2CE0E9494020E945E1B20E030E04AE7FC
:1020C00054E40E94451D2091AE013091AF01409132
:1020D000B0015091B1010E94D81C28E030E06DCFD2
:1020E0008091050190910601A816B90639F08091FA
:1020F000030190910401A816B90651F41092200230
:102100001092EA011092EB011092EC011092ED0195
:10211000E150E13108F047C00E2E000CFF0BED56E8
:10212000FF4E0C94EB1DA410D3106C114B14001235
:10213000D310D3104E156115F51562167B16FD16DA
:102140008115D215D61060178091BA0181110C94B7
:10215000BF1A023011F00C94351B1092AD01609142
:102160000A0270910B0277FFDCC00C94BA1AC50109
:102170000A97029720F05DE0A516B10441F4C5016D
:102180000E94E103612F802F0E94E0000CC0C50176
:1021900002970C9740F469E0A616B10421F08BEF8A
:1021A000800F823060F70E94000445CE0091BA0192
:1021B00010E0E090BB01F12C8091AD01882319F073
:1021C0001195019511098091AC01882319F0F194C2
:1021D000E194F10810930B0200930A02F0920902B5
:1021E000E09208021093020200930102F0920002B2
:1021F000E092FF0181E0809318020115110569F05A
:10220000809107028823F1F010920F0210920E02C3
:1022100010920D0210920C020FC0E114F10481F72C
:1022200010920F0210920E0210920D0210920C02E8
:10223000109218021092070270E060E090E080E0D7
:102240000C94151B20910E0230910F0221153105BF
:1022500079F00115110561F0232F221F2227221F7B
:1022600081E0912F991F9927991F291301C080E0C0
:1022700020910C0230910D022115310511F40C94BE
:10228000D81AE114F10411F40C94D81A232F221F48
:102290002227221F9F2D991F9927991F291711F473
:1022A0000C94D81A10920F0210920E0210920D0286
:1022B00010920C0281E0809307020E946A01605F25
:1022C000784D8F4F9F4F6093030270930402809369
:1022D000050290930602B0CFC5010597029788F5D5
:1022E0006091BA01163000F160939E018091BB01AC
:1022F00080939F0160919E0170919F016F3F7105D6
:1023000019F014F06FEF70E061308FEF780714F47C
:1023100061E07FEF81E095E0A916B10411F00C9423
:10232000451B80E00C94451B70E08091AD010530A9
:1023300011F08091AC01882369F371956195710961
:10234000E9CFC50102970C9708F02DCF093009F4A9
:102350002ACFC5010E94E1031091BA0161E0802FEC
:102360000E940E01111102C060E00DCF1F3F11F459
:1023700061E009CFF501E358FF4FE491E33021F12B
:1023800038F4E130B9F0E230D1F017FDF1CFECCF05
:10239000E73031F1E83061F1E430B9F78091800045
:1023A000806280938000812F90E090938B008093D7
:1023B0008A00F9CE84B5806884BD17BDF4CE84B59B
:1023C000806284BD18BDEFCE8091800080688093CC
:1023D0008000812F90E09093890080938800E3CE65
:1023E0008091B00080688093B0001093B300DBCE82
:1023F0008091B00080628093B0001093B400D3CE7F
:102400008091BA0180939E018091BB0180939F01CE
:10241000C0909E01D0909F01D98AC88A8091BC014A
:1024200080939E018091BD0180939F01C501029719
:102430000C9708F0B8CE093009F4B5CE20909E0173
:1024400030909F01C5010E94E103809007019090A8
:102450000801A814B90459F0C40102970C9738F484
:10246000882D0E94A00260E0882D0E94E000B092BA
:102470000801A0920701E888F9881E141F040CF0D7
:1024800006C2121413040CF002C28091000108135A
:10249000D0C0E8E6F0E0149117FD85CE61E0802F12
:1024A0000E940E011123C1F0C888D9882601DD0CD5
:1024B0006608770860E072E18AE790E0A301920184
:1024C0000E947D1C49015A0161E0861A9108A10809
:1024D000B108123009F099C1C888D9882601DD0CED
:1024E0006608770860E072E18AE790E0A301920154
:1024F0000E947D1C69017A0149015A0121E0821A7A
:102500009108A108B1083FEF83169104A104B1041A
:1025100009F00CF44EC160E472E48FE090E0A30196
:1025200092010E947D1C49015A0161E0861A9108BE
:10253000A108B108123009F0F3C082E07FEF8716DE
:102540009104A104B10409F00CF46CC060E970EDD1
:1025500083E090E0A30192010E947D1C49015A0191
:1025600081E0881A9108A108B10883E09FEF8916DD
:102570009104A104B10409F00CF454C068E478EEAD
:1025800081E090E0A30192010E947D1C49015A0163
:1025900061E0861A9108A108B10884E07FEF8716F0
:1025A0009104A104B104F1F1ECF164E274EF80E074
:1025B00090E0A30192010E947D1C49015A01E1E0D3
:1025C0008E1A9108A108B10885E0FFEF8F169104DB
:1025D000A104B10439F130F162E17AE780E090E0E2
:1025E000A30192010E947D1C49015A0181E0881AD1
:1025F0009108A108B10886E09FEF89169104A10413
:10260000B10481F078F09AE0F594E794D794C794F8
:102610009A95D1F74601570131E0831A9108A10834
:10262000B10887E09091B100987F892B8093B10029
:10263000C7C08F3F09F0B7CD00930001E8E6F0E096
:1026400014911F3F09F4AFCD113031F150F0123029
:1026500009F442C017FDA7CD61E0802F0E940E0152
:1026600023CF14BC15BC84B5826084BD85B5816060
:1026700085BDF501E155FF4FE491F0E0EE0FFF1F3E
:10268000EB55FF4F85919491F501EF56FF4FE49183
:10269000E093810110E002CF10928000109281003F
:1026A00080918100886080938100809181008160A9
:1026B00080938100F501E155FF4FE491F0E0EE0FCA
:1026C000FF1FEB55FF4F85919491F501EF56FF4F9A
:1026D000E491E0938001E2CE1092B0001092B1003C
:1026E0008091B00082608093B0008091B1008160E1
:1026F0008093B100F501E155FF4FE491F0E0EE0F5A
:10270000FF1FEB55FF4F8591949190937F0180932C
:102710007E01F501EF56FF4FE491E0937D01BECEBF
:10272000AFEF8A169104A104B10409F00CF46BC058
:1027300068E478EE81E090E0A30192010E947D1CA4
:1027400049015A01B1E08B1A9108A108B10884E04F
:1027500011113BCF83E0EFEF8E169104A104B10479
:1027600059F154F162E17AE780E090E0A30192012F
:102770000E947D1C49015A01A1E08A1A9108A10812
:10278000B10884E0BFEF8B169104A104B104A1F05D
:1027900098F02AE0F594E794D794C7942A95D1F756
:1027A0004601570121E0821A9108A108B10885E08D
:1027B00003C081E0111136CF95B5987F892B85BD77
:1027C00028893989220F331FD1010E94F11D28EE7B
:1027D00033E040E050E00E94A71C1130B1F112300C
:1027E00009F445C01111DFCC87BC20938A013093D6
:1027F0008B0140938C0150938D0180916E0082601B
:1028000080936E00D0CC82E0D5CF91E0811491040A
:10281000F1E0AF06B10484F068E478EE81E090E086
:10282000A30192010E947D1C49015A0161E0861AB0
:102830009108A108B10893E0113011F68091810050
:10284000887F892B80938100BBCF909289008092F2
:10285000880020938601309387014093880150932C
:10286000890180916F00826080936F009CCC809280
:10287000B3002093820130938301409384015093ED
:102880008501809170008260809370008CCC802FD5
:102890000E94A00269CD093009F485CC8EEF800F2B
:1028A0008C3008F080CC1091BA01153B08F014EB85
:1028B0000E940B07882341F08091090190910A0141
:1028C000893B9B4008F46FCCEEE8F1E0912C812C21
:1028D00081919191A816B90651F0892B09F0D3C0C6
:1028E000F401EE0FFF1FE257FE4FB182A082740188
:1028F000EE0CFF1CC701880D991DDC01AF5EBC4FBB
:102900005D018C91282F30E0F901EE0FFF1FE20FDF
:10291000F31FEA52FD4F908196FD5CC08C3008F0A9
:1029200059C061E0802F0E940E01F5018081282F9F
:1029300030E0F901EE0FFF1FE20FF31FEA52FD4FE7
:10294000902F9F730081007C092B0083D501119685
:102950001C92119712961C922CE0622F0E94B71DB8
:10296000829FB001112430E020E0AB01420F531FE1
:10297000FA01EE0FFF1FE40FF51FEA52FD4F9081A1
:1029800096FD16C02F5F3F4F2C30310571F7811136
:102990000FC01092800082E0809381001092850029
:1029A00010928400B19A80916F00826080936F00D2
:1029B000F701E80DF91DEF5EFC4FE0818E2F90E0EE
:1029C000FC01EE0FFF1FE80FF91FEA52FD4F808157
:1029D00080648083F701E80DF91DEF5EFC4F0081F4
:1029E0000C3008F0E0CB828128E5A22E22E0B22E46
:1029F000A81AB10887FDB394AA0CBB1CAA0CBB1C77
:102A0000818148E8E42EF12CE81AF10887FDF3945F
:102A1000EE0CFF1CEE0CFF1C27010F2C000C6608AF
:102A2000770895010B2C000C440B550B2419350924
:102A300046095709A12FB0E00E949C1C24EB30E00E
:102A400040E050E00E947D1C420E531E641E751E25
:102A50004E145F042CF075014A145B040CF47201EF
:102A6000B2E0EB1AF108EE0CFF1C8FB7F89410E0FF
:102A7000F801EE0FFF1FE00FF11FEA52FD4FF28247
:102A8000E1828FBF90CB8FEF881A980A98E0891661
:102A9000910409F01DCF912C812C29CF0E94940222
:102AA0000E945E1B20E030E04AE754E40E94451D8E
:102AB0006093AE017093AF018093B0019093B10128
:102AC00072CB80910201811102C00E943F010E94DD
:102AD0001F07E8EAF1E084EA91E040EA51E02CEADD
:102AE00031E01192DC011D92CD01DA011D92AD01A0
:102AF0002E173F07B1F70E94880781E080930201FB
:102B000052CB8091BA013090BC018090BD01909071
:102B1000BE019091BF0190939E019091C00190934E
:102B20009F0140909E0150909F01052C000C66086B
:102B30007708B2E34B1651046104710428F4B2E340
:102B40004B2E512C612C712C823011F08F3FD9F417
:102B50000E949402688B798B8A8B9B8B5B016C0142
:102B600083017201292D482D632D8AE191E00E9495
:102B70006D08A888B988CA88DB88292D482D632D5F
:102B80008BE091E00CC0A12CB12C65018301720196
:102B9000292D482D632D8111F3CF8AE191E00E9408
:102BA0006D0801CB8091BA01823011F08F3F89F41A
:102BB00010921A0110921E0160E08AE191E00E94D9
:102BC0003E0810920B0110920F0160E08BE091E043
:102BD00009C08111F6CF10921A0110921E0160E017
:102BE0008AE191E00E943E08DECA2091BA012E3FA0
:102BF000B1F52091BC011091BD017091BE016091B1
:102C0000BF01E091BB01E43008F0E3E0F0E02430E4
:102C1000E8F430E02E173F07E4F0DF01A855BE4F7F
:102C2000AF014C555E4FCF0180569E4F7C01CD01C8
:102C3000885A9140281739070CF45DCF1D93FA018B
:102C40007193AF01F70161937F01F1CF23E030E091
:102C5000E4CF5E2F4F2FF901252F342FDECF822FA7
:102C600090E08F3F9105C1F44091BB013091BC01D0
:102C70002091BD01E8EAF1E084EA91E060EA71E0C8
:102C80004193DC013D93CD01DB012D93BD01B1E00A
:102C9000EC3AFB07A9F72FCF243008F02CCF209176
:102CA000BD013091BC01FC01E855FE4F4091BB01D4
:102CB0004083FC01EC55FE4F308380569E4FFC0153
:102CC000208319CF8091BA0180939E018091BB012E
:102CD00080939F0180919E0190919F018F3F91056C
:102CE00019F014F08FEF90E097FD80E080930101E0
:102CF0000E94880758CAE090BA01F090BB01F4E046
:102D0000FF1510F4A4E0FA2EB090BC01F8EACF2E23
:102D1000F1E0DF2E1E0129E0220E311C24EA31E011
:102D20002E0145E0440E511C80EA91E0FE013196EF
:102D30000CEA11E0AF01B2014101D601AD906D0185
:102D4000D401AD924D01D901AD909D01DB01AD9251
:102D5000BD01DC01AD90CD01DA01AD92AD013601CE
:102D6000B1E06B1A7108D3011C923901B1E06B1A02
:102D70007108D3011C923C01B1E06B1A7108D301B8
:102D80001C920C151D05C9F630E020E00F2D10E057
:102D9000C9011E14FCF4801B910BB1E0BB121DC0D5
:102DA00064E070E00E94D71D97FD04964081D20137
:102DB0005C91BC0168557E4F6B01D1016C91D601CD
:102DC0006C93DC01AC55BE4F5C9380569E4FDC018A
:102DD0004C9306C0800F911FE0CF8430910530F3F3
:102DE0002F5F3F4F3196BFEF4B1A5B0A4FEF241A0C
:102DF000340A2430310561F67BCF8090BA0180918E
:102E0000BB018370982E88EA91E02E0159E0450EAF
:102E1000511C04EA11E0DE01159640EA51E0ECEAAB
:102E2000AE2EE1E0BE2E9E012F5F3F4FBD0172012D
:102E3000FC017190CF01F70171927F01F80171904F
:102E40008F01FB017192BF01FA017190AF01F9018D
:102E500071929F01A816B90659F741E050E04C0F56
:102E60005D1F4C5F5F4F9E012F5F3F4F892D90E0AC
:102E7000BC01CD84DE846C197D090E891F89081B75
:102E8000190BC80118140CF0CB01820F931F83702B
:102E90009927F901B1909F01AD90F20191902F0116
:102EA000FC01E855FE4F9082FC01EC55FE4FA082DC
:102EB00080569E4FFC01B0824217530711F718CF7E
:102EC0000E94010970C90E9494024B015C0180912B
:102ED0002502882309F431C18091F2019091F30118
:102EE000A091F401B091F50175016401C81AD90AE5
:102EF000EA0AFB0AD701C601803A9F40A105B10545
:102F000040F10E940109109220021092EA011092F1
:102F1000EB011092EC011092ED011092250210923B
:102F2000F2011092F3011092F4011092F5018092D7
:102F3000210290922202A0922302B09224020E94C7
:102F400091048092EE019092EF01A092F001B09274
:102F5000F1010E940B07882309F465C00E949402C6
:102F60004B015C018091FB019091FC01A091FD015E
:102F7000B091FE0175016401C81AD90AEA0AFB0A78
:102F8000D701C6014497A105B10508F44CC0809251
:102F9000FB019092FC01A092FD01B092FE010E9403
:102FA000AD08613727E172078105910524F068E8D3
:102FB00073E180E090E070930A0160930901693B3E
:102FC0007B4088F540E2840E43E0941EA11CB11CB6
:102FD0008092F7019092F801A092F901B092FA0163
:102FE00081E08093F6010E9476060E94BB05009165
:102FF000070110910801C80102970C9738F4802F3F
:103000000E94A00260E0802F0E94E00083E00E9406
:10301000A00260E083E00E94E00083E090E09093F3
:1030200008018093070180911802882369F10E94AA
:1030300094024B015C018091100290911102A091C9
:103040001202B091130275016401C81AD90AEA0A82
:10305000FB0AD701C601843F9140A105B10508F4E0
:10306000D2C00E940B07882309F49AC080910901FD
:1030700090910A01893B9B4008F08CC00E94760623
:10308000809118028111BFC00E9494024B015C0123
:103090008091140290911502A0911602B09117022E
:1030A000B501A401481B590B6A0B7B0BDB01CA015C
:1030B0000A97A105B10508F4A6C080921402909267
:1030C0001502A0921602B092170280911002909100
:1030D0001102A0911202B091130275016401C81A85
:1030E000D90AEA0AFB0AD701C601843F9140A1052B
:1030F000B10508F08BC14AE050E070E060E08091DB
:103100000E0290910F020E94EE088C0190930F0224
:1031100080930E024AE050E070E060E080910C0283
:1031200090910D020E94EE0890930D0280930C0284
:10313000BC01C8010E94E80566C08091EE01909133
:10314000EF01A091F001B091F101881A990AAA0A41
:10315000BB0A3CEB831632E09306A104B10408F4E9
:10316000F8CE8091550190915601A0915701B091F0
:1031700058018115914EA105B10539F460E875E259
:1031800080E090E00E94A304E4CE60E071EE80E075
:1031900090E0F8CFC501B4010E94E60681116ECF20
:1031A0008091070281111FC01092070280910102D5
:1031B0009091020290930B0280930A026091FF01AA
:1031C00070910002709309026093080290930F02BD
:1031D00080930E0270930D0260930C0210921802FD
:1031E0000E94E8054DCF0E946A01009103021091F0
:1031F00004022091050230910602601B710B820BC4
:10320000930B97FFD1CF0E9494024B015C018091F8
:10321000260290912702A0912802B0912902B501BF
:10322000A401481B590B6A0B7B0BDB01CA010A97EF
:10323000A105B10508F46EC0809226029092270283
:10324000A0922802B09229020E9494022B013C0114
:1032500080911A01882369F18091230190912401C2
:10326000A0912501B0912601B301A201481B590B81
:103270006A0B7B0B80911F0190912001A09121018D
:10328000B0912201481759076A077B0790F04092D6
:1032900023015092240160922501709226016091D1
:1032A0001E0181E0682760931E018AE191E00E947F
:1032B0003E0880910B01882369F18091140190915F
:1032C0001501A0911601B0911701B301A201481B8D
:1032D000590B6A0B7B0B8091100190911101A09109
:1032E0001201B0911301481759076A077B0790F044
:1032F00040921401509215016092160170921701CC
:1033000060910F0181E0682760930F018BE091E0ED
:103310000E943E088091550190915601A09157015D
:10332000B0915801803855E29507A105B10509F023
:103330008FC04EE150E060E070E020912502222332
:1033400009F4D1C0009121021091220220912302A0
:103350003091240275016401C01AD10AE20AF30A0D
:1033600097018601041715072607370708F4BBC025
:103370008092210290922202A0922302B092240213
:1033800049E3E42E41E0F42E10E000E0803895425D
:10339000A105B10509F0B7C00E9494022B013C01C0
:1033A000E0911F02309020028091190290911A0240
:1033B000A0911B02B0911C0253014201881A990A84
:1033C000AA0ABB0A00911D0210911E0249E179E18F
:1033D000E72EF12C2E2F30E0C9010196B7010E9493
:1033E000D71D982FEE30C8F5F901EE0FFF1FE75CEF
:1033F000FE4F60817181672B09F06FC080931F02BF
:10340000C9010E9483040E9400046DC00E940B0742
:10341000882331F0C501B4010E94E60681116BCE0C
:1034200060910A0270910B0245E050E080910E021B
:1034300090910F020E94EE088C0190930F028093EE
:103440000E02609108027091090245E050E066CEDC
:1034500044E650E060E070E070CFEE3049F41123B4
:10346000E1F180931F028EE090E00E943204CBCF06
:10347000EF3039F4002389F180931F028FE090E050
:10348000F4CF50EF5E0F583088F420513109F90124
:10349000EE0FFF1FE75DFE4F60817181672BE9F43E
:1034A00080931F02C9010E946B04ADCFE831A9F4DB
:1034B000332099F034E683169104A104B10468F036
:1034C00080931F024092190250921A0260921B02CE
:1034D00070921C020E94E20996CF4150E92F09F038
:1034E00079CF80931F0280E090E0892B11F40C9437
:1034F000B70D0E943E03882311F40C94B70D0E946F
:1035000000000C94B70DD7018D919D917D01892B01
:1035100029F4C8010E9483040E9400040F5F1F4F1A
:103520000E30110581F739E2E32E31E0F32E10E081
:1035300000E0F701819191917F01892B29F4C80165
:103540000E946B040E9400040F5F1F4F083011059A
:1035500081F780912002882331F2BCCF81E08093F3
:10356000AD0160910A0270910B0277FF03C0719563
:10357000619571097195619571090C9491110230F1
:1035800069F311E044E0A416B10411F00C94B710F3
:1035900081E08093AC01609108027091090277FF8D
:1035A00003C07195619571097195619571096CC040
:1035B00081110C9452110E9494024B015C01809184
:1035C000100290911102A0911202B09113022401F5
:1035D0003501481A590A6A0A7B0A0E940B07882398
:1035E00069F08091090190910A01893B9B4008F1A3
:1035F000C501B4010E94E60681111BC0F4EF4F160D
:10360000F1E05F066104710410F40C94041110934E
:103610000F0200930E02F0920D02E0920C02109243
:10362000180210920702B701C8010E94E8050C9425
:10363000D31010920F0210920E0210920D021092EF
:103640000C0210920B0210920A02109209021092C0
:1036500008021092020210920102109200021092CF
:10366000FF01109218020C941C1110E054E0A516F2
:10367000B10411F00C94B7101092AC0160910802E3
:103680007091090277FD90CF81E00E94A4060C940E
:10369000D31080910403909105030E94941E8091A1
:1036A00001039091020397FD03C060E00C940E01AA
:1036B00008950E949B1B08F481E00895E89409C0D6
:1036C00097FB3EF490958095709561957F4F8F4F55
:1036D0009F4F9923A9F0F92F96E9BB279395F6956B
:1036E000879577956795B795F111F8CFFAF4BB0FE9
:1036F00011F460FF1BC06F5F7F4F8F4F9F4F16C04D
:10370000882311F096E911C0772321F09EE8872FD6
:10371000762F05C0662371F096E8862F70E060E092
:103720002AF09A95660F771F881FDAF7880F96950B
:10373000879597F90895990F0008550FAA0BE0E8AF
:10374000FEEF16161706E807F907C0F01216130663
:10375000E407F50798F0621B730B840B950B39F4A3
:103760000A2661F0232B242B252B21F408950A2609
:1037700009F4A140A6958FEF811D811D08950E9437
:10378000D21B0C94431C0E94351C38F00E943C1C38
:1037900020F0952311F00C942C1C0C94321C112455
:1037A0000C94771C0E94541C70F3959FC1F3950FE5
:1037B00050E0551F629FF001729FBB27F00DB11DB5
:1037C000639FAA27F00DB11DAA1F649F6627B00D45
:1037D000A11D661F829F2227B00DA11D621F739F2E
:1037E000B00DA11D621F839FA00D611D221F749F3C
:1037F0003327A00D611D231F849F600D211D822F83
:10380000762F6A2F11249F5750409AF0F1F08823A9
:103810004AF0EE0FFF1FBB1F661F771F881F9150D6
:103820005040A9F79E3F510580F00C942C1C0C943D
:10383000771C5F3FE4F3983ED4F3869577956795C0
:10384000B795F795E7959F5FC1F7FE2B880F911D00
:103850009695879597F9089597F99F6780E870E0A6
:1038600060E008959FEF80EC089500240A941616F6
:10387000170618060906089500240A94121613065E
:10388000140605060895092E0394000C11F48823EC
:1038900052F0BB0F40F4BF2B11F460FF04C06F5F08
:1038A0007F4F8F4F9F4F089557FD9058440F551FDE
:1038B00059F05F3F71F04795880F97FB991F61F0B2
:1038C0009F3F79F087950895121613061406551F29
:1038D000F2CF4695F1DF08C0161617061806991F95
:1038E000F1CF86957105610508940895E894BB278A
:1038F00066277727CB0197F90895052E97FB1EF4CD
:1039000000940E94941C57FD07D00E94A71C07FC3E
:1039100003D04EF40C94941C50954095309521950D
:103920003F4F4F4F5F4F08959095809570956195EB
:103930007F4F8F4F9F4F08950E94C91CA59F900DE8
:10394000B49F900DA49F800D911D11240895A1E2B4
:103950001A2EAA1BBB1BFD010DC0AA1FBB1FEE1F09
:10396000FF1FA217B307E407F50720F0A21BB30B54
:10397000E40BF50B661F771F881F991F1A9469F7D0
:1039800060957095809590959B01AC01BD01CF012C
:103990000895A29FB001B39FC001A39F700D811D28
:1039A0001124911DB29F700D811D1124911D089548
:1039B0005058BB27AA270E94F01C0C94431C0E945D
:1039C000351C38F00E943C1C20F039F49F3F19F45C
:1039D00026F40C94321C0EF4E095E7FB0C942C1C9E
:1039E000E92F0E94541C58F3BA1762077307840723
:1039F000950720F079F4A6F50C94761C0EF4E0956A
:103A00000B2EBA2FA02D0B01B90190010C01CA0198
:103A1000A0011124FF27591B99F0593F50F4503E43
:103A200068F11A16F040A22F232F342F4427585F35
:103A3000F3CF469537952795A795F0405395C9F74D
:103A40007EF41F16BA0B620B730B840BBAF0915005
:103A5000A1F0FF0FBB1F661F771F881FC2F70EC0A4
:103A6000BA0F621F731F841F48F487957795679577
:103A7000B795F7959E3F08F0B0CF9395880F08F063
:103A80009927EE0F9795879508950E94591D0C94DC
:103A9000431C0E943C1C58F00E94351C40F029F445
:103AA0005F3F29F00C942C1C51110C94771C0C9442
:103AB000321C0E94541C68F39923B1F3552391F3EF
:103AC000951B550BBB27AA2762177307840738F08D
:103AD0009F5F5F4F220F331F441FAA1FA9F335D0EA
:103AE0000E2E3AF0E0E832D091505040E695001C9E
:103AF000CAF72BD0FE2F29D0660F771F881FBB1F58
:103B0000261737074807AB07B0E809F0BB0B802D35
:103B1000BF01FF2793585F4F3AF09E3F510578F061
:103B20000C942C1C0C94771C5F3FE4F3983ED4F368
:103B3000869577956795B795F7959F5FC9F7880F35
:103B4000911D9695879597F90895E1E0660F771F87
:103B5000881FBB1F621773078407BA0720F0621B18
:103B6000730B840BBA0BEE1F88F7E0950895991B31
:103B700079E004C0991F961708F0961B881F7A9564
:103B8000C9F780950895AA1BBB1B51E107C0AA1F66
:103B9000BB1FA617B70710F0A61BB70B881F991FEE
:103BA0005A95A9F780959095BC01CD01089597FB92
:103BB000072E16F4009407D077FD09D00E94C31D8C
:103BC00007FC05D03EF4909581959F4F0895709520
:103BD00061957F4F0895EE0FFF1F0590F491E02D42
:103BE00009940E94C91CB7FF0895821B930B089586
:103BF0000F931F93CF93DF938230910510F482E0EF
:103C000090E0E0912B03F0912C0330E020E0B0E055
:103C1000A0E0309799F42115310509F44AC0281B1A
:103C2000390B24303105D8F58A819B8161157105E6
:103C300089F1FB0193838283FE0111C04081518190
:103C40000281138148175907E0F04817590799F482
:103C5000109761F012960C93129713961C9332965C
:103C6000CF01DF91CF911F910F91089500932B0306
:103C700010932C03F4CF2115310551F0421753074F
:103C800038F0A901DB019A01BD01DF01F801C1CFC4
:103C9000EF01F9CF90932C0380932B03CDCFFE013E
:103CA000E20FF31F819391932250310939832883C6
:103CB000D7CF2091290330912A03232B41F420915F
:103CC0005B0130915C0130932A03209329032091FA
:103CD000590130915A012115310541F42DB73EB7F4
:103CE00040915D0150915E01241B350BE091290349
:103CF000F0912A03E217F307A0F42E1B3F0B2817BD
:103D0000390778F0AC014E5F5F4F2417350748F054
:103D10004E0F5F1F50932A03409329038193919381
:103D20009FCFF0E0E0E09CCFCF93DF930097E9F0E6
:103D3000FC01329713821282A0912B03B0912C03C5
:103D4000ED0130E020E01097A1F420813181820F55
:103D5000931F2091290330912A032817390709F06E
:103D600061C0F0932A03E0932903DF91CF91089576
:103D7000EA01CE17DF07E8F54A815B819E01411514
:103D80005105B1F7E901FB83EA8349915991C40FC9
:103D9000D51FEC17FD0761F4808191810296840F95
:103DA000951FE90199838883828193819B838A830C
:103DB000F0E0E0E012968D919C9113970097B9F591
:103DC0002D913C911197CD010296820F931F209166
:103DD000290330912A032817390739F6309751F50E
:103DE00010922C0310922B03B0932A03A093290363
:103DF000BCCFD383C28340815181840F951FC817E4
:103E0000D90761F44E5F5F4F88819981480F591F30
:103E1000518340838A819B8193838283211531055D
:103E200009F0B0CFF0932C03E0932B039ECFFD015C
:103E3000DC01C0CF13821282D7CFDC0101C06D93A9
:103E400041505040E0F7089510E0C3E6D0E004C0D0
:103E5000FE010E94EB1D2196C436D107C9F7F894E4
:023E6000FFCF92
:103E6200FFFF010C000D000300881300000000009A
:103E7200F40100000000000000010000000000F456
:103E8200010000000000000203000000000000002A
:103E9200000100010000000000010001000100011A
:103EA200000100010001000000000001000100010A
:103EB200000100010000E1000000002D038000006D
:103EC2000000007403CC020103C103320310032477
:043ED200030D0A00D2
:00000001FF
