:100000000C9464000C948C000C948C000C948C0068
:100010000C948C000C948C000C948C000C946A064C
:100020000C948C000C948C000C948C000C941E0787
:100030000C948C000C948C000C948C000C948C0010
:100040000C9420060C948C000C94EC060C94C606C0
:100050000C948C000C948C000C948C000C948C00F0
:100060000C948C000C948C000200000000230026ED
:1000700000290000000000240027002A00000000E2
:100080000800020100000304070000000000000057
:100090000001020408102040800102040810200121
:1000A000020408102000000000250028002B000496
:1000B000040404040404040202020202020303030F
:1000C000030303001F088A1411241FBECFEFD8E0DA
:1000D000DEBFCDBF11E0A0E0B1E0EAE2F0E302C094
:1000E00005900D92A037B107D9F722E0A0E7B1E063
:1000F00001C01D92AE3FB207E1F710E0C3E6D0E0C9
:1001000004C02197FE010E94CF16C236D107C9F75D
:100110000E94E4080C9408180C940000833081F0CD
:1001200028F4813099F08230A9F008958730A9F041
:100130008830C9F08430B1F4809180008F7D03C095
:10014000809180008F7780938000089584B58F77A9
:1001500084BD089584B58F7DFBCF8091B0008F77EB
:100160008093B00008958091B0008F7DF9CF1F93E8
:10017000CF93DF93282F30E0F901E358FF4F8491AC
:10018000F901EF56FF4FD491F901E155FF4FC491AA
:10019000CC23A9F0162F81110E948E00EC2FF0E0E5
:1001A000EE0FFF1FEB55FF4FA591B4918FB7F89459
:1001B000EC91111108C0D095DE23DC938FBFDF9145
:1001C000CF911F910895DE2BF8CFCF93DF9390E06E
:1001D000FC01EF56FF4F249181559F4FFC01849104
:1001E0008823D1F090E0880F991FFC01ED58FF4F54
:1001F000A591B491FC01EB55FF4FC591D4916111CC
:100200000EC09FB7F8948C91E22FE0958E238C93CB
:100210002881E223E8839FBFDF91CF9108958FB7B4
:10022000F894EC91E22BEC938FBFF6CF8091D20241
:100230009091D30297FD0CC061E00E94E50060E060
:100240008091D2020E94B70081E08093CD02089590
:100250001092CD0280E008951F93CF93DF93182F63
:10026000EB0161E00E94E500209739F460E0812F06
:10027000DF91CF911F910C94B700CF3FD10511F4BE
:1002800061E0F5CFE12FF0E0E358FF4FE491E33078
:1002900031F140F4E130B1F0E230E1F0C038D105A5
:1002A0007CF7E4CFE73029F1E83059F1E430B1F7D9
:1002B00080918000806280938000D0938B00C093F7
:1002C0008A0004C084B5806884BDC7BDDF91CF912A
:1002D0001F91089584B5806284BDC8BDF7CF809119
:1002E0008000806880938000D0938900C09388004C
:1002F000EDCF8091B00080688093B000C093B300D0
:10030000E5CF8091B00080628093B000C093B400CC
:10031000DDCF3FB7F8948091060290910702A0913B
:100320000802B091090226B5A89B05C02F3F19F01D
:100330000196A11DB11D3FBFBA2FA92F982F882765
:10034000BC01CD01620F711D811D911D42E0660F40
:10035000771F881F991F4A95D1F708950F931F9310
:10036000CF93DF93CDB7DEB729970FB6F894DEBFF2
:100370000FBECDBF0E9489010091DB021091DC020B
:100380002091DD023091DE0260177107820793072A
:1003900040F46093DB027093DC028093DD02909363
:1003A000DE020091DB021091DC022091DD0230912F
:1003B000DE02601B710B820B930B6C327140810566
:1003C0009105C0F2F8948091D0029091D1029A8365
:1003D0008983E091D502F091D602DF0111968081E8
:1003E00089879091CC02E091DF02F091E002809148
:1003F000E102992309F445C09081982B9887908158
:10040000809589238F838F818C8388E08B835885A7
:100410006F8149853B812C8189819A81508347FD79
:10042000252F3A952083262F39F0441F00C0000065
:100430006083000000C0F2CF38E04D91608300007F
:10044000019761F7F093E002E093DF0249873B8375
:100450002C839A83898378940E9489016093DB02BC
:100460007093DC028093DD029093DE0229960FB632
:10047000F894DEBF0FBECDBFDF91CF911F910F91DA
:1004800008959081982B98879081809589238F83F8
:100490008F818E8388E08D8358856F8149853D816A
:1004A0002E8189819A81508347FD252F00C000C08D
:1004B000208300C000C000C000C000C060830000F6
:1004C000262F3A9541F0441F000000C000C000C034
:1004D00000C000C0E8CF38E04D9100C0608300C08C
:1004E000019709F7F093E002E093DF0249873D832B
:1004F0002E83AFCF2FB7F894609102027091030260
:1005000080910402909105022FBF089590910001FF
:1005100089130BC0E8E6F0E0E4919FEF90930001AF
:10052000E13049F028F0E23061F060E00C94B7006F
:1005300010926E00FACF90916F009D7F90936F00A4
:10054000F4CF909170009D7F9093700091E0909314
:10055000B0009091B100987F94609093B100109298
:10056000B300E3CFAF92BF92CF92DF92EF92FF92B0
:100570000F931F93CF93DF936C017B018B01040FCB
:10058000151FEB015E01AE18BF08C017D10759F067
:100590006991D601ED91FC910190F081E02DC601A9
:1005A0000995892B79F7C501DF91CF911F910F91A3
:1005B000FF90EF90DF90CF90BF90AF90089542E012
:1005C00050E06CE671E08AE092E00C94B202FC012B
:1005D000538D448D252F30E0842F90E0821B930BA8
:1005E000541710F0CF96089501970895FC01918D4E
:1005F000828D981761F0A28DAE0FBF2FB11D5D9651
:100600008C91928D9F5F9F73928F90E008958FEFF2
:100610009FEF0895FC01918D828D981731F0828DA6
:10062000E80FF11D858D90E008958FEF9FEF0895FD
:10063000FC01918D228D892F90E0805C9F4F821B61
:1006400091098F73992708958AE092E00E94180318
:1006500021E0892B09F420E0822F089580E090E0CA
:10066000892B29F00E94240381110C940000089525
:10067000FC01A48DA80FB92FB11DA35ABF4F2C9117
:10068000848D90E001968F739927848FA689B7890E
:100690002C93A089B1898C91837080648C93938D05
:1006A000848D981306C00288F389E02D80818F7DA8
:1006B00080830895EF92FF920F931F93CF93DF9360
:1006C000EC0181E0888F9B8D8C8D98131AC0E8898E
:1006D000F989808185FF15C09FB7F894EE89FF895D
:1006E0006083E889F98980818370806480839FBFFB
:1006F00081E090E0DF91CF911F910F91FF90EF90FB
:100700000895F62E0B8D10E00F5F1F4F0F7311270A
:10071000E02E8C8D8E110CC00FB607FCFACFE88945
:10072000F989808185FFF5CFCE010E943803F1CF92
:10073000EB8DEC0FFD2FF11DE35AFF4FF0829FB7B9
:10074000F8940B8FEA89FB8980818062CFCFCF93A9
:10075000DF93EC01888D8823B9F0AA89BB89E889E9
:10076000F9898C9185FD03C0808186FD0DC00FB68F
:1007700007FCF7CF8C9185FFF2CF808185FFEDCF0D
:10078000CE010E943803E9CFDF91CF9108959C01FB
:10079000225031092C30310598F48930910581F0CF
:1007A000FC01EE0FFF1FE85CFE4F20813181232BFF
:1007B00021F421E030E03183208361E00C94E500F6
:1007C0000895682F8AE092E00C945A038FEF0E94FC
:1007D000E10385E50E94E1030C94DF020F931F9370
:1007E000CF93DF938B01D82FC92F82E00E94E103C2
:1007F000C801AD2FBC2F8093700190937101A0931D
:100800007201B09373010E94E103812F0E94E10302
:100810008D2F0E94E1038C2FDF91CF911F910F91BB
:100820000C94E1038FEF0E94E10385E50C94E10352
:10083000A2EEB2E0EC918E2F90E0FC01EE0FFF1FD4
:10084000E80FF91FE955FD4F808186FF02C08F7BBD
:100850008083139682E0AA3FB80761F7089510924B
:10086000E7011092E6011092E5011092E401109266
:10087000EB011092EA011092E9011092E80170E098
:1008800060E085E00E942C0170E060E086E00E945C
:100890002C0160E082E00E94B70060E084E00C94EC
:1008A000B7001F93CF93DF93562F142FDFEFC0E0D5
:1008B00061E081302FEF9207A4F0DFEFC0E060E04D
:1008C0008F3F910509F06CF49C0197FF04C022272B
:1008D0003327281B390BD22FC32F692F661F66279A
:1008E000661F852F0E94B7006D2F7C2F812FDF910F
:1008F000CF911F910C942C01E5E1F1E0108214825C
:10090000E6E0F1E01082148208954F925F926F92B8
:100910007F928F929F92AF92BF92EF92FF920F932E
:100920001F93CF9380910501803208F480E2C0913B
:1009300002018C1708F4C82FF0E0E0E0EE24EA94FE
:10094000F12C8091CE029091CF02E817F90708F0C0
:1009500079C0DF01A056BE4F8C91C89FC001112401
:10096000B7010E94A7168B0130E020E09801112703
:100970000027DF01A456BE4F8C91C89FC0011124EF
:10098000B7010E94A716CB01B0E0A0E0BA2FA92FB3
:10099000982F8827082B192B2A2B3B2BDF01A856D1
:1009A000BE4F8C91C89FC0011124B7010E94A716A9
:1009B000CB01B0E0A0E0802B912BA22BB32B2D011B
:1009C00066247724892E9A2EAB2EBB24482D382FEF
:1009D0006091D402242D662391F0062F10E0049D2F
:1009E000A001059D500D149D500D1124252F689DCB
:1009F00040011124492D689FC0011124392FA09175
:100A0000DA028091D5029091D6025091D702BF01AF
:100A1000A51335C0660F771F6E0F7F1F860F971FB8
:100A2000A091D702A80FB92FB11D2C93A091D80285
:100A3000A80FB92FB11D4C932091D902820F911D9F
:100A4000DC013C933196E430F10509F07ACF8091D6
:100A5000D5029091D602892B11F00E94AE01C0936D
:100A6000DF01CF911F910F91FF90EF90BF90AF905A
:100A70009F908F907F906F905F904F900895660F3A
:100A8000771F660F771F860F971FA80FB92FB11D0D
:100A90001C92C6CFFC0195858685891740F1662397
:100AA000A9F0943088F443815281292F30E0D90194
:100AB000A056BE4F71817C93D901A456BE4F5C9362
:100AC00028563E4FD9014C939F5FE7CF9430E0F713
:100AD000292F30E0D901A056BE4F1C92D901A4564F
:100AE000BE4F1C9228563E4FD9011C92EDCF0C945C
:100AF0008504AF92BF92CF92DF92EF92FF920F9355
:100B00001F93CF93DF93EC01C701D8018233910586
:100B1000A105B10520F482E390E0A0E0B0E03881C7
:100B200069834A832B838D839E83AF83B887332366
:100B300071F06C81CE01DF91CF911F910F91FF90E9
:100B4000EF90DF90CF90BF90AF900C944A05A11426
:100B5000B104C104D10421F40E947A025B016C014A
:100B6000A986BA86CB86DC8681E088838C8361E0A7
:100B7000E1CFCF93DF93E0EAF1E0CCE9D1E0A8E95F
:100B8000B1E0119219921D9281E0E43AF807C9F799
:100B9000DF91CF910C94850450917C0040917A00B4
:100BA0008EE480937C0083E795E00197F1F78091D4
:100BB0007A00806480937A0080917A0086FDFCCF71
:100BC00080917A00806480937A0080917A0086FD1B
:100BD000FCCF209178003091790050937C004093B5
:100BE0007A0080917A00806480937A0080917A0004
:100BF00086FDFCCF2115310559F050E040E064EB53
:100C00007BE281E190E00E94BE15CA01B90108951E
:100C100028E833E140E050E0F8CF861797073CF42E
:100C2000840F951F6817790754F4CB0108C0681723
:100C300079072CF4841B950B86179707B4F3089556
:100C40001F920F920FB60F9211242F933F938F9301
:100C50009F93AF93BF938091020290910302A09162
:100C60000402B09105023091010223E0230F2D37D9
:100C700058F50196A11DB11D209301028093020237
:100C800090930302A0930402B093050280910602A0
:100C900090910702A0910802B09109020196A11D4E
:100CA000B11D8093060290930702A0930802B093AF
:100CB0000902BF91AF919F918F913F912F910F901A
:100CC0000FBE0F901F90189526E8230F0296A11DC6
:100CD000B11DD2CF1F920F920FB60F9211242F93F6
:100CE0003F934F935F936F937F938F939F93AF93B4
:100CF000BF93EF93FF9380917A0190917B01A09134
:100D00007C01B0917D01892B8A2B8B2BD1F19091A5
:100D10007501E0917601F0917701808189278083C8
:100D200080917A0190917B01A0917C01B0917D012D
:100D3000181619061A061B069CF480917A019091E8
:100D40007B01A0917C01B0917D010197A109B109BE
:100D500080937A0190937B01A0937C01B0937D01F5
:100D6000FF91EF91BF91AF919F918F917F916F9183
:100D70005F914F913F912F910F900FBE0F901F9059
:100D80001895809100010E948602EACF1F920F926F
:100D90000FB60F9211242F933F934F935F936F934E
:100DA0007F938F939F93AF93BF93EF93FF938AE0CB
:100DB00092E00E943803FF91EF91BF91AF919F9114
:100DC0008F917F916F915F914F913F912F910F90F4
:100DD0000FBE0F901F9018951F920F920FB60F9293
:100DE00011242F938F939F93EF93FF93E0911A0217
:100DF000F0911B028081E0912002F091210282FD9E
:100E00001BC09081809123028F5F8F7320912402F9
:100E1000821741F0E0912302F0E0E65FFD4F958FED
:100E200080932302FF91EF919F918F912F910F90CB
:100E30000FBE0F901F9018958081F4CF1F920F92D4
:100E40000FB60F9211242F933F934F935F936F939D
:100E50007F938F939F93AF93BF93CF93DF93EF9342
:100E6000FF9380917401C091CB02D0E087FF24C032
:100E70001092850010928400809174018F5F80939E
:100E8000740180917401082E000C990B8C179D073A
:100E900024F4809174018C30C4F18091840090918D
:100EA0008500049680349C4908F47AC080918400BF
:100EB00090918500049676C080917401082E000CF4
:100EC000990B8C179D07C4F6E09174018E2FEE0FDD
:100ED000990BFC01EE0FFF1FE80FF91FE955FD4FBD
:100EE000808186FFC9CFE09174018E2FEE0F990BA0
:100EF000FC01EE0FFF1FE80FF91FE955FD4F808140
:100F000060E08F730E94B700B7CF209184003091CA
:100F10008500E09174018E2FEE0F990BFC01EE0F0E
:100F2000FF1FE80FF91FE955FD4F81819281820F64
:100F3000931F9093890080938800E09174018E2F15
:100F4000EE0F990BFC01EE0FFF1FE80FF91FE9559B
:100F5000FD4F808186FF11C0E09174018E2FEE0F4E
:100F6000990BFC01EE0FFF1FE80FF91FE955FD4F2C
:100F7000808161E08F730E94B700FF91EF91DF9154
:100F8000CF91BF91AF919F918F917F916F915F9121
:100F90004F913F912F910F900FBE0F901F9018957A
:100FA00080E49CE990938900809388008FEF809380
:100FB0007401E3CFCF92DF92EF92FF920F931F93D2
:100FC000E82FF92F05C0015011092109310961F1FC
:100FD000908196239417B9F305C001501109210996
:100FE000310911F1908196239413F7CFC12CD12CA4
:100FF000E12CF12C0AC08FEFC81AD80AE80AF80AC7
:101000000C151D052E053F0579F080818623841778
:1010100091F36C2D7D2D8E2D9F2D1F910F91FF90A3
:10102000EF90DF90CF90089560E070E080E090E076
:101030001F910F91FF90EF90DF90CF900895109245
:101040000D0210920C0288EE93E0A0E0B0E08093D5
:101050000E0290930F02A0931002B09311028EE53E
:1010600091E090930B0280930A0285EC90E09093BC
:1010700017028093160284EC90E0909319028093FB
:10108000180280EC90E090931B0280931A0281EC8E
:1010900090E090931D0280931C0282EC90E090936C
:1010A0001F0280931E0286EC90E0909321028093B1
:1010B0002002109223021092240210922502109214
:1010C0002602E2EEF2E02AEF32E04FEF68EB7BE03F
:1010D0008091CB028C3008F06CC091E0980F909317
:1010E000CB02808390E0DC01AA0FBB1FA80FB91FC1
:1010F000A955BD4F12967C936E93119733962E1778
:101100003F0731F71092CD021092D4021092DB0209
:101110001092DC021092DD021092DE0281E08093D8
:10112000DA028093D7021092D80292E09093D9020B
:101130008093CC028CE090E09093D1028093D00217
:101140000E94DC169093D6028093D502009799F105
:101150002CE0FC0111922A95E9F784E090E090934D
:10116000CF028093CE0289E090E09093D3028093E7
:10117000D2028091CD02882341F061E089E00E9493
:10118000E50060E089E00E94B700E8EBF0E0E49160
:10119000F0E0EE0FFF1FEB55FF4F85919491909378
:1011A000E0028093DF02EAE9F0E0E491E093E102FB
:1011B00008954083A3CF1092D1021092D0021092D2
:1011C000CF021092CE02CFCFCF93DF93CDB7DEB751
:1011D00068970FB6F894DEBF0FBECDBF789484B584
:1011E000826084BD84B5816084BD85B5826085BD23
:1011F00085B5816085BD80916E00816080936E00B1
:1012000010928100809181008260809381008091A2
:101210008100816080938100809180008160809353
:1012200080008091B10084608093B1008091B00013
:1012300081608093B00080917A00846080937A000E
:1012400080917A00826080937A0080917A00816038
:1012500080937A0080917A00806880937A0010925F
:10126000C100E0911A02F0911B0282E08083E091BC
:101270001A02F0911B021082E0911602F0911702FF
:101280001082E0911802F091190280E1808310929F
:101290002202E0911E02F0911F0286E08083E0911D
:1012A0001C02F0911D02808180618083E0911C020C
:1012B000F0911D02808188608083E0911C02F09192
:1012C0001D02808180688083E0911C02F0911D02E4
:1012D00080818F7D808361E082E00E94E50061E093
:1012E00085E00E94E50061E084E00E94E50061E0A5
:1012F00086E00E94E50061E083E00E94E50061E095
:101300008AE00E94E50061E08BE00E94E50061E078
:101310008DE00E94E50060E08CE00E94E50060E066
:1013200087E00E94E50060E088E00E94E50060E060
:101330008EE00E94E50060E08FE00E94E50060E042
:1013400080E10E94E50060E081E10E94E50060E04C
:1013500084E10E94E50060E085E10E94E50060E034
:1013600082E00E94B70060E084E00E94B70070E075
:1013700060E085E00E942C0170E060E086E00E9461
:101380002C0160E083E00E94B70060E08AE00E94E8
:10139000B70060E08BE00E94B70060E08DE00E9443
:1013A000B7000E947C040E9416014091D002509127
:1013B000D10270E060E08091D5029091D6020E9447
:1013C00001188091D5029091D602892B11F00E94CC
:1013D000AE010E94CC057093040160930301685B29
:1013E0007B40693B7B4030F088E893E190930401B7
:1013F000809303010E9489014B015C0162E3C62EC8
:10140000D12CE12CF12C0E948901681979098A09F3
:101410009B09683E734081059105A8F331E0C31A2A
:10142000D108E108F10848EE840E43E0941EA11CA7
:10143000B11CC114D104E104F10429F7CE010196D5
:101440009E878D87A4E0B0E0A81BB90BB88FAF8B47
:1014500059EC252E312C8AE092E00E941803892B4A
:1014600009F41CC7E1E02E1A310809F417C78AE015
:1014700092E00E94F6029091DE01853509F083C06A
:10148000911181C08091DD018F3F29F481E080932B
:10149000DC018093DE018091DC018F5F843308F0F2
:1014A0008FC08093DC018091DE018823A1F28091BE
:1014B000DB018111D0CF8091DC01843060F2109289
:1014C000DE01E091AB010091AC01E02EF12C209106
:1014D000AA01223009F4D3C0233009F4CBC621304D
:1014E00009F04EC0E73009F0ADC0A70142505109E4
:1014F0001091AD013091F801812F90E0311165C05C
:101500002093F801F0922701E092260190932501A3
:10151000809324014C30510530F02DE030E03093C1
:1015200027012093260102970C9730F08CE090E081
:1015300090932501809324010091260110912701A9
:10154000F801EE0FFF1FE85CFE4F81E090E0918311
:101550008083E0902401F0902501F701EE0FFF1F3A
:10156000E85CFE4F9183808361E0802F0E94E5005C
:1015700060E08E2D0E94E50060E0802F0E94B700A1
:101580001092DC0168CF8093DD01992309F483CFA9
:10159000E091DC01E23049F48093DB018093DA01D1
:1015A000F0E0EA55FE4F808376CFE33028F090914B
:1015B000DB0191509093DB01E43308F06CCFF0CF66
:1015C0001092DC011092DE016ECF4C30510518F004
:1015D0002DE0E22EF12C02970C9708F01CE0812FF1
:1015E00090E020912601309127012E153F0539F416
:1015F00020912401309125012817390709F2F09232
:101600002701E09226019093250180932401F701A0
:10161000EE0FFF1FE85CFE4F21E030E031832083B6
:10162000880F991FFC01E85CFE4F3183208361E045
:101630008E2D0E94E50060E0812F0E94E50060E0B1
:101640008E2D9CCFF0E0E130F10569F4C7010797DA
:10165000029708F095CFF701EE0FFF1FE85CFE4FF1
:10166000118210828DCF329709F08ACF083008F0AE
:1016700087CFF701EE0FFF1FE85DFE4FF1CF80919E
:10168000260190912701E816F90639F0809124018E
:1016900090912501E816F90651F41092F801109284
:1016A000F4011092F5011092F6011092F701E15049
:1016B000EF3020F50E2E000CFF0BEF59F44F0C9479
:1016C000CF16700B7E0BA10B4F0E170C7E0B7E0BF3
:1016D000500F530FD60F44105D10DD10610FB30F84
:1016E00011E08091AD01811101C010E0023049F498
:1016F0001093A501612F82E00E94B7000E94E603CB
:101700003FCFF4E0EF16F10429F41093A401612F08
:1017100084E0F2CFC7010A97029720F02DE0E2168D
:10172000F10431F4C7010E94C703612F802FE4CF79
:10173000C70102970C9710F739E0E316F104F1F2B4
:10174000F1CFC7010597029708F05FC08091AD0106
:101750009091DA01973058F1809396018091AE0113
:1017600080939701809196019091970181304FEF7E
:10177000940714F40C9486148F3F910519F014F01B
:101780008FEF90E0053001F12091E4013091E50107
:10179000232B39F421E04091E8015091E901452BD8
:1017A00009F020E09093E5018093E4011FC090E0F0
:1017B0002091A501053011F02091A4012223E1F22E
:1017C000919581959109D8CF2091E6013091E7015B
:1017D000232B39F421E04091EA015091EB01452B94
:1017E00009F020E09093E7018093E601222309F4B9
:1017F00085CF892B09F482CF80910501813608F4C9
:101800007DCF80E68093050179CFC70102970C97C1
:1018100008F074CF093009F471CFC7010E94C703E3
:101820006091AD0170E0802F0E942C0167CF809104
:10183000AD01809396018091AE0180939701A090B5
:101840009601B09097018091AF01809396018091AD
:10185000B00180939701C70102970C9708F04ECF13
:10186000093009F44BCF8090960190909701C70101
:101870000E94C7031A141B040CF00DC2181419049B
:101880000CF009C2809100010813BFC0E8E6F0E047
:10189000149117FD33CF61E0802F0E94E5001123E2
:1018A00019F0123009F0A0C125010B2C000C6608BC
:1018B000770860E072E18AE790E0A30192010E945C
:1018C000BE152F87388B498B5A8B69017A0151E0FD
:1018D000C51AD108E108F1088FEFC816D104E10458
:1018E000F10409F00CF454C160E472E48FE090E07C
:1018F000A30192010E94BE1569017A0191E0C91A03
:10190000D108E108F108123009F0F7C082E0AFEF2A
:10191000CA16D104E104F10409F00CF46FC060E9C7
:1019200070ED83E090E0A30192010E94BE15690171
:101930007A01B1E0CB1AD108E108F10883E0EFEFBA
:10194000CE16D104E104F10409F00CF457C068E4A8
:1019500078EE81E090E0A30192010E94BE1569013A
:101960007A0181E0C81AD108E108F10884E09FEF0C
:10197000C916D104E104F10409F00CF43FC064E29B
:1019800074EF80E090E0A30192010E94BE1569010E
:101990007A0191E0C91AD108E108F10885E03FEF2A
:1019A000C316D104E104F10449F140F162E17AE7A0
:1019B00080E090E0A30192010E94BE1569017A01C6
:1019C000F1E0CF1AD108E108F10886E02FEFC21646
:1019D000D104E104F10491F088F0CF84D888E9883B
:1019E000FA889AE0F594E794D794C7949A95D1F73A
:1019F00021E0C21AD108E108F10887E09091B10016
:101A0000987F892B8093B100CAC08F3F09F076CEB2
:101A100000930001E8E6F0E014911F3F09F46ECE58
:101A2000113031F150F0123009F442C017FD66CE8A
:101A300061E0802F0E94E50034CF14BC15BC84B552
:101A4000826084BD85B5816085BDF701E155FF4F9A
:101A5000E491F0E0EE0FFF1FEB55FF4F859194915D
:101A6000F701EF56FF4FE491E093790110E013CFB7
:101A70001092800010928100809181008860809394
:101A8000810080918100816080938100F701E155A0
:101A9000FF4FE491F0E0EE0FFF1FEB55FF4F8591F4
:101AA0009491F701EF56FF4FE491E0937801F3CE64
:101AB0001092B0001092B1008091B00082608093CB
:101AC000B0008091B10081608093B100F701E155D1
:101AD000FF4FE491F0E0EE0FFF1FEB55FF4F8591B4
:101AE00094919093770180937601F701EF56FF4F21
:101AF000E491E093750112E0CECEFFEFCF16D10452
:101B0000E104F10409F00CF46DC068E478EE81E0C2
:101B100090E0A30192010E94BE1569017A0181E063
:101B2000C81AD108E108F10884E0111138CF83E028
:101B3000EFEFCE16D104E104F10469F164F162E142
:101B40007AE780E090E0A30192010E94BE1569014E
:101B50007A01A1E0CA1AD108E108F10884E0BFEFD8
:101B6000CB16D104E104F104B1F0A8F0CF84D888F9
:101B7000E988FA882AE0F594E794D794C7942A95DF
:101B8000D1F7F1E0CF1AD108E108F10885E003C0F0
:101B900081E0111133CF95B5987F892B85BD9501D3
:101BA000220F331FD4010E94D51628EE33E040E007
:101BB00050E00E94E815113009F44BC0123009F4CE
:101BC0005AC011119BCDC7BC209382013093830171
:101BD000409384015093850180916E0082608093D0
:101BE0006E008CCD82E0D5CF25010B2C000C660851
:101BF000770860E072E18AE790E0A30192010E9419
:101C0000BE1569017A01A1E0CA1AD108E108F108FC
:101C100091E0C114D104B1E0EB06F10484F068E472
:101C200078EE81E090E0A30192010E94BE15690167
:101C30007A01E1E0CE1AD108E108F10893E0113011
:101C400009F0ADCF80918100887F892B809381003E
:101C5000A6CFD0928900C092880020937E01309355
:101C60007F01409380015093810180916F008260D9
:101C700080936F0043CDC092B30020937A013093DC
:101C80007B0140937C0150937D01809170008260C4
:101C90008093700033CD802F0E9486022FCD0930B3
:101CA00009F42CCD8EEF800F8C3008F027CD90906A
:101CB000AD01F4EBF91510F434EB932E8091030190
:101CC000909104018236914108F418CDE6E8F1E0E4
:101CD000D12CC12C81919191E816F90651F0892BF4
:101CE00009F0D3C0F601EE0FFF1FEA57FE4FF18255
:101CF000E0827601EE0CFF1CC7018C0D9D1DDC01FE
:101D0000AE51BD4F5D018C91282F30E0F901EE0FEF
:101D1000FF1FE20FF31FE955FD4F908196FD5CC058
:101D20008C3008F059C061E0802F0E94E500F50179
:101D30008081282F30E0F901EE0FFF1FE20FF31F23
:101D4000E955FD4F902F9F730081007C092B008384
:101D5000D50111961C92119712961C922CE0622FBD
:101D60000E949B16829FB001112430E020E0AB015D
:101D7000420F531FFA01EE0FFF1FE40FF51FE95545
:101D8000FD4F908196FD16C02F5F3F4F2C303105DF
:101D900071F781110FC01092800082E08093810062
:101DA0001092850010928400B19A80916F00826039
:101DB00080936F00F701EC0DFD1DEE51FD4FE081AA
:101DC0008E2F90E0FC01EE0FFF1FE80FF91FE95581
:101DD000FD4F808180648083F701EC0DFD1DEE5185
:101DE000FD4FF0803BE03F1508F488CC828148E548
:101DF000A42E42E0B42EA81AB10887FDB394AA0C11
:101E0000BB1CAA0CBB1C818108E810E0081B11094F
:101E100087FD1395000F111F000F111F2801012EC0
:101E2000000C6608770895010B2C000C440B550B31
:101E30002419350946095709A92DB0E00E94DD157E
:101E400024EB30E040E050E00E94BE15420E531EED
:101E5000641E751E401651062CF085014A145B0461
:101E60000CF4820102501109000F111F2FB7F894D2
:101E70008F2D90E0FC01EE0FFF1FE80FF91FE955D1
:101E8000FD4F128301832FBF39CC3FEFC31AD30A12
:101E900048E0C416D10409F01DCFD12CC12C29CFA4
:101EA0000E947A022BCC80910101811102C00E9414
:101EB00016010E947C040E94B90581E08093010113
:101EC0001DCC8091AD01B091AF01BF878090B00172
:101ED0009090B1019091B201909396019091B301CD
:101EE000909397014090960150909701052C000C1B
:101EF00066087708E2E34E1651046104710428F481
:101F000012E3412E512C612C712C823011F08F3F45
:101F1000D9F40E947A026B8B7C8B8D8B9E8B5B013C
:101F20006C0183017201292D482D6F8585E191E0B7
:101F30000E947905AB88BC88CD88DE88292D482D84
:101F40006F8586E091E00CC0A12CB12C6501830166
:101F50007201292D482D6F858111F3CF85E191E024
:101F60000E947905CBCB8091AD01823011F08F3F7B
:101F700089F4109215011092190160E085E191E059
:101F80000E944A051092060110920A0160E086E064
:101F900091E009C08111F6CF10921501109219013C
:101FA00060E085E191E00E944A05A8CB2091AD0157
:101FB0002E3FA9F52091AF011091B0017091B101B0
:101FC0006091B201E091AE01E43008F0E3E0F0E0AE
:101FD0002430E0F430E02E173F07DCF0DF01A0569C
:101FE000BE4FAF0144565E4FCF0188569E4F7C01D5
:101FF000CD01805A91402817390774F11D93FA01D9
:102000007193AF01F70161937F01F2CF23E030E0DC
:10201000E5CF5E2F4F2FF901252F342FDFCF822FF1
:1020200090E08F3F9105D9F46091AE015091AF01DE
:102030004091B001E0EAF1E08CE991E008E911E0BB
:1020400024EA31E06193DC015D93CD01D8014D9329
:102050008D012E173F07B1F70E9485042ECF243043
:10206000D8F72091B0013091AF01FC01E056FE4F4E
:102070004091AE014083FC01E456FE4F3083885608
:102080009E4FFC012083E8CF8091AD0180939601A3
:102090008091AE0180939701809196019091970174
:1020A0008F3F910519F014F08FEF90E097FD80E0DD
:1020B000809302010E94850421CBF090AD017090C5
:1020C000AE01F4E0F71510F4B4E07B2EE090AF0120
:1020D000E0EAF1E0BE01675F7F4F8CE991E0AE017D
:1020E0004B5F5F4FA8E94A2EA1E05A2E9E012F5F59
:1020F0003F4F4B015A018901D190DB01DD92BD01B7
:10210000DC01DD90CD01DA01DD92AD01D201DD907F
:102110002D01D901DD929D016F01B1E0CB1AD108EB
:10212000D6011C926C01B1E0CB1AD108D6011C92E9
:102130006201B1E0CB1AD108D6011C92B1E0E43AB9
:10214000FB07D1F630E020E0E72DF0E0C9011F14D5
:1021500044F58E1B9F0BCC24C394EC1025C064E087
:1021600070E00E94BB1697FD0496D801A20FB31F22
:102170006C91D501A20FB31F7C91AC0140565E4F0C
:102180006A01A401420F531FDA014C91D6014C930E
:10219000DC01A456BE4F7C9388569E4FDC016C93A5
:1021A00006C08E0F9F1FD7CF84309105F0F22F5FAE
:1021B0003F4F2430310551F67DCFF090AD01809135
:1021C000AE018370E82EE0EAF1E04E01B9E08B0E3B
:1021D000911C0CE911E09E012B5F3F4F48E951E053
:1021E000CE010196B9016401B190D601BD926D0195
:1021F000D801BD908D01DB01BD92BD01DA01BD901A
:10220000AD01DC01BD92CD01B1E0E43AFB0761F71D
:1022100041E050E04C0F5D1F4C5F5F4FFE01319677
:102220008E2D90E0BC01CD84DE846C197D090F8970
:10223000188D081B190BC8011F140CF0CB018E0F51
:102240009F1F83709927E190D901BD909D01D40112
:10225000AD904D01DC01A056BE4FAC92DC01A456FE
:10226000BE4FBC9288569E4FDC01EC924E175F0722
:1022700011F720CF0E942F0483E00E94860260E0C5
:102280008AE00E94B70060E08BE00E94B7000E94E5
:1022900018040E947C040E94B90530CA0E947A0288
:1022A0006B017C018091E0019091E101A091E2013C
:1022B000B091E301A7019601281B390B4A0B5B0B78
:1022C000DA01C9014497A105B10508F449C0C092DB
:1022D000E001D092E101E092E201F092E3010E947C
:1022E000CC058B019C01085B1B4021093109093B8E
:1022F0001B402105310520F068E873E180E090E0A3
:102300007093040160930301693650E1750708F08A
:102310003CC280E48093050180E2C80E83E0D81EB1
:10232000E11CF11CC092EC01D092ED01E092EE01B3
:10233000F092EF010E942F040E94180483E00E9493
:10234000860280910501803208F480E290910201BA
:10235000891708F4982F8091DF0189130E94850462
:102360000E947A020091F0011091F1012091F20196
:102370003091F3016B017C01C01AD10AE20AF30A21
:10238000970186010A3011052105310508F44DC079
:102390006093F0017093F1018093F2019093F30147
:1023A0000091EA011091EB01E090E801F090E90161
:1023B000FC8AEB8A643F21E072078105910570F089
:1023C000C090EC01D090ED01E090EE01F090EF01B3
:1023D0006C197D098E099F0997FFF7C14AE050E00B
:1023E00070E060E0C8010E940D067C019093EB0153
:1023F0008093EA014AE050E070E060E08B899C89BC
:102400000E940D068C019093E9018093E80145E05C
:1024100050E062E070E0C7010E94510446E050E0E5
:1024200064E070E0C8010E9451040E947A026B01CE
:102430007C018091FD019091FE01A091FF01B0917E
:102440000002A7019601281B390B4A0B5B0BDA012E
:10245000C9010A97A105B10508F46EC0C092FD013B
:10246000D092FE01E092FF01F09200020E947A02F7
:102470004B015C0180911501882369F180911E0157
:1024800090911F01A0912001B0912101B501A401FB
:10249000481B590B6A0B7B0B80911A0190911B0111
:1024A000A0911C01B0911D01481759076A077B07CD
:1024B00090F080921E0190921F01A0922001B09294
:1024C00021016091190181E068276093190185E17C
:1024D00091E00E944A0580910601882369F180916C
:1024E0000F0190911001A0911101B0911201B5015D
:1024F000A401481B590B6A0B7B0B80910B01909137
:102500000C01A0910D01B0910E01481759076A07FF
:102510007B0790F080920F0190921001A092110120
:10252000B092120160910A0181E0682760930A016C
:1025300086E091E00E944A058091F9019091FA01AC
:10254000A091FB01B091FC01A7019601281B390B5A
:102550004A0B5B0BDA01C90184369105A105B1056F
:1025600008F403C1C092F901D092FA01E092FB0194
:10257000F092FC0178E3E72E71E0F72E09EF1FEFF0
:10258000D701CD90DD907D01C114D10409F040C088
:102590000230110508F03AC067E0962E900E60E018
:1025A000892D0E94E5000E941204F801EC57FF4FAC
:1025B0008491F801E856FF4FA490F801EA54FF4FC8
:1025C000B490BB2099F081110E948E00EB2DF0E0B9
:1025D000EE0FFF1FE759FF4FA591B491EC91AE228A
:1025E00091E080E009F490E0C92ED82EB601DD0C10
:1025F000880B990B0E94A1140E94EE03892D0E9462
:10260000E10381E00E94E1030E94DF020E94E603F1
:102610000F5F1F4F0730110509F0B2CF48E2E42EDB
:1026200041E0F42E10E0F701819191917F01892B17
:1026300029F50E941204812F806480937C00809190
:102640007A00806480937A0080917A0086FDFCCFC6
:102650006091780070917900072E000C880B990B1F
:102660000E94A1140E94EE03812F0E94E10382E0E8
:102670000E94E1030E94DF020E94E6031F5F183000
:1026800091F68091F801882309F46FC0109126011A
:1026900060E0812F0E94B70083E090E00197F1F79E
:1026A00061E0812F0E94B70083E290E00197F1F78B
:1026B00060E0812F0E94B700809124019091250154
:1026C0009927FC01EF56FF4F6491FC01E155FF4F44
:1026D000E491F0E0EE0FFF1FE759FF4F85919491D1
:1026E00000E315E720E030E0462F0E94DA0761158D
:1026F00071058105910529F06F5F7F4F8F4F9F4FC7
:102700009F700E949F1420E030E048EE51E40E9448
:10271000191620E030E040E05FE30E9400156B01F5
:102720007C0120E030E0A9010E949A148111E5C0EB
:10273000C090F401D090F501E090F601F090F7011F
:102740000E941204C701B6010E94EE038091260187
:102750000E94E103809124010E94E10387E00E942E
:10276000E1030E94DF020E94E60380E090E0892BF3
:1027700011F40C94280A0E942403882311F40C9469
:10278000280A0E9400000C94280A809105016236F4
:1027900091E1790740F4813520F080518093050163
:1027A000D0CD80E4FBCF6E38A2E17A0708F4C9CD22
:1027B0006432734130F0893F10F48A5FEFCF8FEFBE
:1027C000EDCF8D3FE0F78E5FE9CFB0900501EB2CA8
:1027D000F12CA091E601B091E70197010E94D51676
:1027E000412C512C32014A94A30192010E94BE1542
:1027F0002F87388B498B5A8B2F843888A091E4011E
:10280000B091E50197010E94D516A30192010E94A3
:10281000BE1569017A013901410137FE03C0919467
:1028200081949108C60177FE04C0882799278C19E6
:102830009D09880E991E2B2D30E050E040E0205479
:10284000310941095109A6E8B1E00E94DD152FEBDD
:1028500030E040E050E00E94BE1528583F4F4F4FF7
:102860005F4F2837310514F428E730E02815390583
:1028700004F52901330F66087708092C000CAA0813
:10288000BB082F85388949895A89C301B2010E9442
:102890008B16A50194010E94BE151901A70196018E
:1028A000C301B2010E948B16A50194010E94BE15BE
:1028B000390145E050E0B101C8010E940D068C01CC
:1028C0009093EB018093EA0145E050E0B3018B89DE
:1028D0009C890E940D067C019093E9018093E80198
:1028E00045E050E062E070E0C8010E94510446E01B
:1028F00050E064E070E0C70196CDC092F401D09240
:10290000F501E092F601F092F7011ACF81E09FEF16
:102910000C94C20B8091D5029091D6020E94781738
:102920008091D2029091D30297FD03C060E00C9495
:10293000E50008950E94DC1408F481E00895E8940D
:1029400009C097FB3EF490958095709561957F4FF7
:102950008F4F9F4F9923A9F0F92F96E9BB279395A5
:10296000F695879577956795B795F111F8CFFAF4B5
:10297000BB0F11F460FF1BC06F5F7F4F8F4F9F4FE6
:1029800016C0882311F096E911C0772321F09EE844
:10299000872F762F05C0662371F096E8862F70E0AA
:1029A00060E02AF09A95660F771F881FDAF7880F84
:1029B0009695879597F90895990F0008550FAA0BDA
:1029C000E0E8FEEF16161706E807F907C0F0121642
:1029D0001306E407F50798F0621B730B840B950B45
:1029E00039F40A2661F0232B242B252B21F408959A
:1029F0000A2609F4A140A6958FEF811D811D089537
:102A00000E9413150C9484150E94761538F00E94CC
:102A10007D1520F0952311F00C946D150C94731511
:102A200011240C94B8150E94951570F3959FC1F36D
:102A3000950F50E0551F629FF001729FBB27F00D6C
:102A4000B11D639FAA27F00DB11DAA1F649F6627C1
:102A5000B00DA11D661F829F2227B00DA11D621F10
:102A6000739FB00DA11D621F839FA00D611D221FCA
:102A7000749F3327A00D611D231F849F600D211DAE
:102A8000822F762F6A2F11249F5750409AF0F1F031
:102A900088234AF0EE0FFF1FBB1F661F771F881F9A
:102AA00091505040A9F79E3F510580F00C946D1550
:102AB0000C94B8155F3FE4F3983ED4F38695779570
:102AC0006795B795F795E7959F5FC1F7FE2B880F40
:102AD000911D9695879597F9089597F99F6780E8D6
:102AE00070E060E008959FEF80EC089500240A9460
:102AF0001616170618060906089500240A941216D9
:102B00001306140605060895092E0394000C11F40B
:102B1000882352F0BB0F40F4BF2B11F460FF04C0B8
:102B20006F5F7F4F8F4F9F4F089557FD9058440F11
:102B3000551F59F05F3F71F04795880F97FB991F1C
:102B400061F09F3F79F087950895121613061406D9
:102B5000551FF2CF4695F1DF08C016161706180666
:102B6000991FF1CF86957105610508940895E89441
:102B7000BB2766277727CB0197F90895052E97FB8A
:102B80001EF400940E94D51557FD07D00E94E81549
:102B900007FC03D04EF40C94D51550954095309514
:102BA00021953F4F4F4F5F4F0895909580957095B9
:102BB00061957F4F8F4F9F4F08950E940A16A59FE2
:102BC000900DB49F900DA49F800D911D1124089528
:102BD000A1E21A2EAA1BBB1BFD010DC0AA1FBB1F21
:102BE000EE1FFF1FA217B307E407F50720F0A21B93
:102BF000B30BE40BF50B661F771F881F991F1A9400
:102C000069F760957095809590959B01AC01BD0129
:102C1000CF010895A29FB001B39FC001A39F700D83
:102C2000811D1124911DB29F700D811D1124911DD4
:102C300008950E942D160C9484150E947D1558F05D
:102C40000E94761540F029F45F3F29F00C946D1531
:102C500051110C94B8150C9473150E94951568F3D6
:102C60009923B1F3552391F3951B550BBB27AA2745
:102C700062177307840738F09F5F5F4F220F331F7F
:102C8000441FAA1FA9F335D00E2E3AF0E0E832D047
:102C900091505040E695001CCAF72BD0FE2F29D04A
:102CA000660F771F881FBB1F261737074807AB071C
:102CB000B0E809F0BB0B802DBF01FF2793585F4F91
:102CC0003AF09E3F510578F00C946D150C94B815B0
:102CD0005F3FE4F3983ED4F3869577956795B79573
:102CE000F7959F5FC9F7880F911D9695879597F97E
:102CF0000895E1E0660F771F881FBB1F62177307F7
:102D00008407BA0720F0621B730B840BBA0BEE1F0B
:102D100088F7E0950895DB018F939F930E94DD155E
:102D2000BF91AF91A29F800D911DA39F900DB29F67
:102D3000900D11240895991B79E004C0991F9617EE
:102D400008F0961B881F7A95C9F780950895AA1BED
:102D5000BB1B51E107C0AA1FBB1FA617B70710F086
:102D6000A61BB70B881F991F5A95A9F780959095B8
:102D7000BC01CD01089597FB072E16F4009407D0EF
:102D800077FD09D00E94A71607FC05D03EF4909568
:102D900081959F4F0895709561957F4F0895EE0F2F
:102DA000FF1F0590F491E02D09940E940A16B7FFC9
:102DB0000895821B930B08950F931F93CF93DF9376
:102DC0008230910510F482E090E0E091FC02F091F5
:102DD000FD0230E020E0B0E0A0E0309799F421154A
:102DE000310509F44AC0281B390B24303105D8F5C8
:102DF0008A819B816115710589F1FB01938382832F
:102E0000FE0111C040815181028113814817590789
:102E1000E0F04817590799F4109761F012960C9357
:102E2000129713961C933296CF01DF91CF911F9189
:102E30000F9108950093FC021093FD02F4CF211529
:102E4000310551F04217530738F0A901DB019A010F
:102E5000BD01DF01F801C1CFEF01F9CF9093FD0271
:102E60008093FC02CDCFFE01E20FF31F819391937B
:102E70002250310939832883D7CF2091FA0230912B
:102E8000FB02232B41F420915601309157013093DE
:102E9000FB022093FA022091540130915501211533
:102EA000310541F42DB73EB7409158015091590179
:102EB000241B350BE091FA02F091FB02E217F307B5
:102EC000A0F42E1B3F0B2817390778F0AC014E5F9A
:102ED0005F4F2417350748F04E0F5F1F5093FB02DA
:102EE0004093FA02819391939FCFF0E0E0E09CCF72
:102EF000CF93DF930097E9F0FC013297138212829F
:102F0000A091FC02B091FD02ED0130E020E01097AD
:102F1000A1F420813181820F931F2091FA02309118
:102F2000FB022817390709F061C0F093FB02E09318
:102F3000FA02DF91CF910895EA01CE17DF07E8F595
:102F40004A815B819E0141155105B1F7E901FB837F
:102F5000EA8349915991C40FD51FEC17FD0761F41D
:102F6000808191810296840F951FE901998388835E
:102F7000828193819B838A83F0E0E0E012968D91B9
:102F80009C9113970097B9F52D913C911197CD0124
:102F90000296820F931F2091FA023091FB022817AC
:102FA000390739F6309751F51092FD021092FC0264
:102FB000B093FB02A093FA02BCCFD383C2834081BB
:102FC0005181840F951FC817D90761F44E5F5F4F79
:102FD00088819981480F591F518340838A819B8141
:102FE000938382832115310509F0B0CFF093FD0260
:102FF000E093FC029ECFFD01DC01C0CF1382128260
:10300000D7CFDC0101C06D9341505040E0F70895E7
:1030100010E0C3E6D0E004C0FE010E94CF16219666
:0A302000C436D107C9F7F894FFCFBA
:10302A00FF01FF8813600000000000F401000000A7
:10303A0000000000010000000000F4010000000090
:10304A00000002030C000D00000000000000000058
:10305A000100010000000000010001000100010060
:10306A000100010001000000000001000100010050
:10307A00010001000000FE028000000000005A0367
:10308A00B202E702A7031803F6020A030D0A0000B8
:00000001FF
