:100000000C9464000C948C000C948C000C948C0068
:100010000C948C000C948C000C948C000C94A9080B
:100020000C948C000C948C000C948C000C945D0946
:100030000C948C000C948C000C948C000C948C0010
:100040000C945F080C948C000C942B090C940509FB
:100050000C948C000C948C000C948C000C948C00F0
:100060000C948C000C948C000200000000240027EB
:10007000002A0000000000230026002900000000E4
:100080000800020100000304070000000000000057
:100090000001020408102040800102040810200121
:1000A000020408102000000000250028002B000496
:1000B000040404040404040202020202020303030F
:1000C000030303005E0AAB0F11241FBECFEFD8E07D
:1000D000DEBFCDBF11E0A0E0B1E0E4E2F5E202C096
:1000E00005900D92AA31B107D9F722E0AAE1B1E05B
:1000F00001C01D92A137B207E1F710E0C3E6D0E0DE
:1001000004C02197FE010E945311C236D107C9F7DE
:100110000E941C0B0C9485120C9400008F929F92ED
:10012000AF92BF92CF92DF92EF92FF920F931F9305
:10013000FC014B01AA24BB24C52ED62EE72EFF249A
:10014000BC2DA42F90915C02B82C992391F0A92F7B
:10015000B0E0A89D9001A99D300DB89D300D1124EF
:10016000B32E9C9D60011124BD2D949F800111240C
:10017000A12F4091620220915D0230915E02809138
:100180005F02481324C0CF01880F991F8E0F9F1F55
:10019000820F931FE0915F02E80FF92FF11DB082EB
:1001A000E0916002E80FF92FF11DB0832091610208
:1001B000820F911DFC01A0831F910F91FF90EF9082
:1001C000DF90CF90BF90AF909F908F900895CF0118
:1001D000880F991F880F991F820F931FFC01E40F4E
:1001E000F11D1082D7CF833081F028F4813099F04F
:1001F0008230A9F008958730A9F08830C9F08430A2
:10020000B1F4809180008F7D03C0809180008F7752
:1002100080938000089584B58F7784BD089584B558
:100220008F7DFBCF8091B0008F778093B0000895D1
:100230008091B0008F7DF9CFCF93DF93282F30E0EE
:10024000F901E358FF4F8491F901EF56FF4FD49124
:10025000F901E155FF4FC491CC23A1F081110E9417
:10026000F300EC2FF0E0EE0FFF1FED58FF4FA591CC
:10027000B491EC91ED2381E090E009F480E0DF910E
:10028000CF91089580E090E0FACF1F93CF93DF9352
:10029000282F30E0F901E358FF4F8491F901EF5620
:1002A000FF4FD491F901E155FF4FC491CC23A9F040
:1002B000162F81110E94F300EC2FF0E0EE0FFF1FCC
:1002C000EB55FF4FA591B4918FB7F894EC911111B4
:1002D00008C0D095DE23DC938FBFDF91CF911F91B3
:1002E0000895DE2BF8CFCF93DF9390E0FC01EF561B
:1002F000FF4F249181559F4FFC0184918823C9F0C1
:1003000090E0880F991FFC01E759FF4FA591B49128
:10031000FC01EB55FF4FC591D49161110DC09FB702
:10032000F8948C91209582238C93888128232883AC
:100330009FBFDF91CF910895623051F49FB7F89439
:100340003C91822F809583238C93E8812E2BEFCFD5
:100350008FB7F894EC912E2B2C938FBFEACF1F937D
:10036000CF93DF93182FEB0161E00E947301209778
:1003700039F460E0812FDF91CF911F910C944501FA
:10038000CF3FD10511F461E0F5CFE12FF0E0E35864
:10039000FF4FE491E33031F140F4E130B1F0E2306D
:1003A000E1F0C038D1057CF7E4CFE73029F1E8303F
:1003B00059F1E430B1F78091800080628093800031
:1003C000D0938B00C0938A0004C084B5806884BD3C
:1003D000C7BDDF91CF911F91089584B5806284BD20
:1003E000C8BDF7CF80918000806880938000D09353
:1003F0008900C0938800EDCF8091B0008068809321
:10040000B000C093B300E5CF8091B00080628093CC
:10041000B000C093B400DDCF8E50806480937C0028
:1004200080917A00806480937A0080917A0086FDC2
:10043000FCCF809178009091790008953FB7F894AF
:1004400080918E0190918F01A0919001B0919101C6
:1004500026B5A89B05C02F3F19F00196A11DB11D1F
:100460003FBFBA2FA92F982F8827BC01CD01620F5B
:10047000711D811D911D42E0660F771F881F991F16
:100480004A95D1F708950F931F93CF93DF93CDB77C
:10049000DEB729970FB6F894DEBF0FBECDBF8091AF
:1004A0005D0290915E02892B09F47CC00E941E02BD
:1004B00000916302109164022091650230916602FE
:1004C000601771078207930740F46093630270938B
:1004D000640280936502909366020091630210911A
:1004E00064022091650230916602601B710B820BE1
:1004F000930B6C32714081059105C0F2F8948091A4
:100500005802909159029A838983E0915D02F0919B
:100510005E02DF0111968081898790915402E091FB
:100520006702F091680280916902992309F445C03D
:100530009081982B98879081809589238F838F81D4
:100540008C8388E08B8358856F8149853B812C8122
:1005500089819A81508347FD252F3A952083262F44
:1005600039F0441F00C000006083000000C0F2CFDB
:1005700038E04D9160830000019761F7F0936802C5
:10058000E093670249873B832C839A83898378941D
:100590000E941E026093630270936402809365025E
:1005A0009093660229960FB6F894DEBF0FBECDBFBA
:1005B000DF91CF911F910F9108959081982B98878B
:1005C0009081809589238F838F818E8388E08D83AE
:1005D00058856F8149853D812E8189819A8150831B
:1005E00047FD252F00C000C0208300C000C000C010
:1005F00000C000C060830000262F3A9541F0441FE0
:10060000000000C000C000C000C000C0E8CF38E05B
:100610004D9100C0608300C0019709F7F093680214
:10062000E093670249873D832E83AFCF909100010D
:1006300089130BC0E8E6F0E0E4919FEF909300018E
:10064000E13049F028F0E23061F060E00C944501BF
:1006500010926E00FACF90916F009D7F90936F0083
:10066000F4CF909170009D7F9093700091E09093F3
:10067000B0009091B100987F94609093B100109277
:10068000B300E3CF4F925F926F927F928F929F92CF
:10069000AF92BF92CF92DF92EF92FF920F931F9390
:1006A000CF93DF9300D000D01F92CDB7DEB78B0180
:1006B00029013A01909100018917C9F09F3F09F47F
:1006C0007EC00F900F900F900F900F90DF91CF9101
:1006D0001F910F91FF90EF90DF90CF90BF90AF9060
:1006E0009F908F907F906F905F904F900895E8E675
:1006F000F0E094919D8397FDE4CF61E00E94730147
:100700008D81882321F09D81923009F04AC14801F2
:10071000B12CA12C60E072E18AE790E0A50198017C
:100720000E94BB0F29833A834B835C8369017A0162
:1007300081E0C81AD108E108F1089FEFC916D10479
:10074000E104F10409F00CF401C160E472E48FE00B
:1007500090E0A50198010E94BB0F69017A0181E038
:10076000C81AD108E108F1089D81923009F0A2C0B1
:100770008FEFC816D104E104F10409F00CF4E6C1CE
:1007800060E970ED83E090E0A50198010E94BB0F45
:1007900069017A0191E0C91AD108E108F1088FEFE7
:1007A000C816D104E104F10411F00CF07FC183E01C
:1007B0009091B100987F892B8093B100CFC0809336
:1007C0000001E8E6F0E094919D839F3F09F479CF22
:1007D000913041F150F0923009F446C09D8197FD6F
:1007E00070CF61E00E9473018ECF14BC15BC94B52C
:1007F000926094BD95B5916095BD282F30E0F901C8
:10080000E155FF4FE491F0E0EE0FFF1FEB55FF4F76
:1008100045915491F901EF56FF4FE491E09339016E
:100820001D826BCF10928000109281009091810008
:1008300098609093810090918100916090938100E5
:10084000282F30E0F901E155FF4FE491F0E0EE0F81
:10085000FF1FEB55FF4F45915491F901EF56FF4FA4
:10086000E491E093380149CF1092B0001092B100AA
:100870009091B00092609093B0009091B10091601F
:100880009093B100282F30E0F901E155FF4FE4913A
:10089000F0E0EE0FFF1FEB55FF4F45915491509341
:1008A000430140934201F901EF56FF4FE491E09379
:1008B000440123CF9FEFC916D104E104F10409F0EC
:1008C0000CF46DC068E478EE81E090E0A501980139
:1008D0000E94BB0F69017A0181E0C81AD108E108C2
:1008E000F1089D81992309F4FAC08FEFC816D1044D
:1008F000E104F10411F00CF0FBC0EFC064E274EF0E
:1009000080E090E0A50194010E94BB0F69017A018B
:1009100081E0C81AD108E108F10885E09FEFC91607
:10092000D104E104F10409F00CF442CF62E17AE76A
:1009300080E090E0A50194010E94BB0F69017A015B
:1009400081E0C81AD108E108F108E5C081E09D8185
:1009500091112ECF95B5987F892B85BD2FEF3FEF55
:10096000A901411451046104710409F043C09D813F
:10097000913009F45EC0923009F46DC09111A1CE9E
:10098000C7BC20933E0130933F01409340015093F8
:10099000410180916E00826080936E0092CE82E071
:1009A000D6CFB12CA12C60E072E18AE790E0A501DE
:1009B00098010E94BB0F69017A0181E0C81AD10831
:1009C000E108F108C114D10491E0E906F10404F54D
:1009D00091E08D81813011F680918100887F892B93
:1009E000809381002FEF3FEFA9014114510461046E
:1009F0007104F9F0D801AA0FBB1FA30192010E9454
:100A0000DA0F28EE33E040E050E00E94E50FAFCF70
:100A100068E478EE81E090E0A50198010E94BB0FA8
:100A200069017A0181E0C81AD108E108F10893E070
:100A3000D0CFD0928900C092880020933A013093A1
:100A40003B0140933C0150933D0180916F008260D7
:100A500080936F0036CEC092B3002093450130934F
:100A60004601409347015093480180917000826095
:100A70008093700026CE84E09FEFC916D104E10474
:100A8000F10409F008F466CFC980DA80EB80FC80BD
:100A90008AE0F594E794D794C7948A95D1F781E0DA
:100AA000C81AD108E108F10885E054CF68E478EE6F
:100AB00081E090E0A50198010E94BB0F69017A01D5
:100AC00081E0C81AD108E108F1089FEFC916D104E6
:100AD000E104F10411F00CF011CF84E069CE83E061
:100AE0009FEFC916D104E104F10409F00CF432CFF0
:100AF00062E17AE780E090E0A50194010E94BB0FDB
:100B000069017A0181E0C81AD108E108F1089D81E4
:100B1000992309F4B0CF86E09FEFC916D104E10410
:100B2000F10409F008F444CEC980DA80EB80FC803F
:100B30009AE0F594E794D794C7949A95D1F781E019
:100B4000C81AD108E108F10887E032CE82E030CE41
:100B5000AF92BF92CF92DF92EF92FF920F931F93CB
:100B6000CF93DF936C017B018B01040F151FEB0109
:100B70005E01AE18BF08C017D10759F06991D601C0
:100B8000ED91FC910190F081E02DC6010995892B32
:100B900079F7C501DF91CF911F910F91FF90EF90F1
:100BA000DF90CF90BF90AF900895FC01538D448D9E
:100BB000252F30E0842F90E0821B930B541710F008
:100BC000CF96089501970895FC01918D828D981715
:100BD00061F0A28DAE0FBF2FB11D5D968C91928DED
:100BE0009F5F9F73928F90E008958FEF9FEF08951E
:100BF000FC01918D828D981731F0828DE80FF11DE7
:100C0000858D90E008958FEF9FEF0895FC01918D01
:100C1000228D892F90E0805C9F4F821B91098F73FA
:100C20009927089582E991E00E94060621E0892B28
:100C300009F420E0822F089580E090E0892B29F0CC
:100C40000E94120681110C9400000895FC01A48DED
:100C5000A80FB92FB11DA35ABF4F2C91848D90E0DE
:100C600001968F739927848FA689B7892C93A089C1
:100C7000B1898C91837080648C93938D848D98134B
:100C800006C00288F389E02D80818F7D80830895DE
:100C9000EF92FF920F931F93CF93DF93EC0181E0CC
:100CA000888F9B8D8C8D98131AC0E889F989808173
:100CB00085FF15C09FB7F894EE89FF896083E889A6
:100CC000F98980818370806480839FBF81E090E098
:100CD000DF91CF911F910F91FF90EF900895F62E25
:100CE0000B8D10E00F5F1F4F0F731127E02E8C8DBF
:100CF0008E110CC00FB607FCFACFE889F989808104
:100D000085FFF5CFCE010E942606F1CFEB8DEC0FCB
:100D1000FD2FF11DE35AFF4FF0829FB7F8940B8F20
:100D2000EA89FB8980818062CFCFCF93DF93EC018A
:100D3000888D8823B9F0AA89BB89E889F9898C91C3
:100D400085FD03C0808186FD0DC00FB607FCF7CF7F
:100D50008C9185FFF2CF808185FFEDCFCE010E947F
:100D60002606E9CFDF91CF91089510928801109265
:100D70004F01089580913601811114C080915A026B
:100D800090915B0297FD10C061E00E94730160E0EA
:100D900080915A020E94450181E08093550281E0D2
:100DA000809336010C94430210925502F8CF282FFD
:100DB00030E0F901EE5CFE4F8081811104C0275BB9
:100DC0003E4FF901808108957F928F929F92AF925A
:100DD000BF92CF92DF92EF92FF920F931F93CF9328
:100DE000DF938FB7F89480908A0190908B01A09048
:100DF0008C01B0908D018FBF80912E0190912F01B9
:100E0000A0913001B0913101A5019401281B390B4B
:100E10004A0B5B0BDA01C9010297A105B10508F481
:100E200060C080922E0190922F01A0923001B0926A
:100E3000310182E3E82E81E0F82E0AE111E09AE226
:100E4000C92E91E0D92ED0E0C0E077247394C2304F
:100E500079F0C33009F453C08EE0C13009F48FE05B
:100E60000E940C0221E08436910544F020E006C087
:100E700087E00E941C0121E0892BC1F7F6018191D6
:100E80006F01821739F031972083F80180829182B7
:100E9000A282B382F70180818217C9F0F8018081B4
:100EA0009181A281B381B501A401481B590B6A0B42
:100EB0007B0BDB01CA010C97A105B10540F0F701DE
:100EC0002083222321F0FE01E75BFE4F70822196F2
:100ED000FFEFEF1AFF0A0C5F1F4FC430D10509F076
:100EE000B6CFDF91CF911F910F91FF90EF90DF90E0
:100EF000CF90BF90AF909F908F907F90089588E0A3
:100F0000B8CF8F929F92BF92CF92DF92EF92FF92D3
:100F10000F931F93CF93DF9300D000D01F92CDB7D4
:100F2000DEB7E82EF62E142FB22EC32E65EA82E924
:100F300091E00E9448066AE582E991E00E94480635
:100F400082E08983EA82FB821C830D83CE010196B5
:100F50007C014E0196E0890E911C10E0F701D190C2
:100F60007F016D2D82E991E00E9448061D25E8145D
:100F7000F904A1F7EB2CFC2C6701C00ED11CEC147A
:100F8000FD0461F0F70161917F0182E991E00E9427
:100F90004806F701319780811827F1CF612F82E948
:100FA00091E00F900F900F900F900F90DF91CF91E5
:100FB0001F910F91FF90EF90DF90CF90BF909F9087
:100FC0008F900C9448060F931F93CF93DF9300D01C
:100FD00000D01F92CDB7DEB749832A830B831C83D1
:100FE0001D8205E09E012F5F3F4F40E60E94810772
:100FF0000F900F900F900F900F90DF91CF911F9156
:101000000F9108950F93CF93DF931F92CDB7DEB763
:10101000498301E09E012F5F3F4F4FE70E94810708
:101020000F90DF91CF910F9108950F9300E030E082
:1010300020E04EE70E9481070F91089560E08AE06A
:101040000E94450160E08BE00E94450170E060E095
:1010500085E00E94AF0170E060E086E00E94AF0191
:1010600010924E0160E082E00E94450110924D0115
:1010700060E084E00E94450183E00E941603E09155
:101080006A028E2F90E0FC01EE0FFF1FE80FF91FA0
:10109000E15DFD4F808186FF02C08F7B80830E94CF
:1010A000BA06409158025091590270E060E0809178
:1010B0005D0290915E020E947E120C9443021F9288
:1010C0000F920FB60F9211242F933F938F939F93FC
:1010D000AF93BF9380918A0190918B01A0918C0175
:1010E000B0918D013091890123E0230F2D3758F500
:1010F0000196A11DB11D2093890180938A019093CF
:101100008B01A0938C01B0938D0180918E01909101
:101110008F01A0919001B09191010196A11DB11D87
:1011200080938E0190938F01A0939001B0939101D1
:10113000BF91AF919F918F913F912F910F900FBED3
:101140000F901F90189526E8230F0296A11DB11D40
:10115000D2CF1F920F920FB60F9211242F933F936D
:101160004F935F936F937F938F939F93AF93BF93AF
:10117000EF93FF938091450190914601A091470123
:10118000B0914801892B8A2B8B2BD1F1909144018E
:10119000E0914201F0914301808189278083809111
:1011A000450190914601A0914701B0914801181660
:1011B00019061A061B069CF4809145019091460180
:1011C000A0914701B09148010197A109B10980930D
:1011D000450190934601A0934701B0934801FF91C8
:1011E000EF91BF91AF919F918F917F916F915F919F
:1011F0004F913F912F910F900FBE0F901F90189518
:10120000809100010E941603EACF1F920F920FB641
:101210000F9211242F933F934F935F936F937F937C
:101220008F939F93AF93BF93EF93FF9382E991E0E6
:101230000E942606FF91EF91BF91AF919F918F91F0
:101240007F916F915F914F913F912F910F900FBEC2
:101250000F901F9018951F920F920FB60F921124A6
:101260002F938F939F93EF93FF93E091A201F091BF
:10127000A3018081E091A801F091A90182FD1BC02A
:1012800090818091AB018F5F8F732091AC018217A9
:1012900041F0E091AB01F0E0EE56FE4F958F809368
:1012A000AB01FF91EF919F918F912F910F900FBE06
:1012B0000F901F9018958081F4CF1F920F920FB658
:1012C0000F9211242F933F934F935F936F937F93CC
:1012D0008F939F93AF93BF93CF93DF93EF93FF933E
:1012E00080913701C0915302D0E087FF24C0109253
:1012F000850010928400809137018F5F80933701C1
:1013000080913701082E000C990B8C179D0724F44F
:10131000809137018C30C4F18091840090918500D8
:10132000049680349C4908F47AC08091840090919E
:101330008500049676C080913701082E000C990B29
:101340008C179D07C4F6E09137018E2FEE0F990B95
:10135000FC01EE0FFF1FE80FF91FE15DFD4F8081DB
:1013600086FFC9CFE09137018E2FEE0F990BFC015C
:10137000EE0FFF1FE80FF91FE15DFD4F808160E078
:101380008F730E944501B7CF209184003091850072
:10139000E09137018E2FEE0F990BFC01EE0FFF1F2E
:1013A000E80FF91FE15DFD4F81819281820F931F4C
:1013B0009093890080938800E09137018E2FEE0F83
:1013C000990BFC01EE0FFF1FE80FF91FE15DFD4FC8
:1013D000808186FF11C0E09137018E2FEE0F990BAF
:1013E000FC01EE0FFF1FE80FF91FE15DFD4F80814B
:1013F00061E08F730E944501FF91EF91DF91CF91E2
:10140000BF91AF919F918F917F916F915F914F911C
:101410003F912F910F900FBE0F901F90189580E471
:101420009CE990938900809388008FEF8093370127
:10143000E3CFCF92DF92EF92FF920F931F93E82FAB
:10144000F92F05C0015011092109310961F190817D
:1014500096239417B9F305C00150110921093109E8
:1014600011F1908196239413F7CFC12CD12CE12C4C
:10147000F12C0AC08FEFC81AD80AE80AF80A0C152E
:101480001D052E053F0579F080818623841791F391
:101490006C2D7D2D8E2D9F2D1F910F91FF90EF9024
:1014A000DF90CF90089560E070E080E090E01F91C1
:1014B0000F91FF90EF90DF90CF90089510929501DB
:1014C0001092940188EE93E0A0E0B0E08093960142
:1014D00090939701A0939801B09399018BE091E0CC
:1014E000909393018093920185EC90E090939F01FB
:1014F00080939E0184EC90E09093A1018093A001E1
:1015000080EC90E09093A3018093A20181EC90E0A5
:101510009093A5018093A40182EC90E09093A701A1
:101520008093A60186EC90E09093A9018093A80196
:101530001092AB011092AC011092AD011092AE016D
:10154000809153028C3008F06AC091E0980F90931C
:10155000530280936A0290E0FC01EE0FFF1FE80F38
:10156000F91FE15DFD4F88EB9BE092838183109230
:10157000550210925C021092630210926402109263
:1015800065021092660281E08093620280935F029E
:101590001092600292E090936102809354028CE07A
:1015A00090E090935902809358020E9459119093B1
:1015B0005E0280935D02009709F435C02CE0FC01C7
:1015C00011922A95E9F784E090E090935702809376
:1015D000560289E090E090935B0280935A028091DA
:1015E0005502882341F061E089E00E94730160E0C8
:1015F00089E00E944501E8EBF0E0E491F0E0EE0FB5
:10160000FF1FEB55FF4F8591949190936802809353
:101610006702EAE9F0E0E491E093690208958FEF50
:1016200080936A02A4CF109259021092580210922D
:10163000570210925602CDCFCF93DF93CDB7DEB7CE
:1016400065970FB6F894DEBF0FBECDBF789484B512
:10165000826084BD84B5816084BD85B5826085BDAE
:1016600085B5816085BD80916E00816080936E003C
:10167000109281008091810082608093810080912E
:1016800081008160809381008091800081608093DF
:1016900080008091B10084608093B1008091B0009F
:1016A00081608093B00080917A00846080937A009A
:1016B00080917A00826080937A0080917A008160C4
:1016C00080937A0080917A00806880937A001092EB
:1016D000C100E091A201F091A30182E08083E0913A
:1016E0009E01F0919F011082E091A001F091A10173
:1016F0008FEC80831092AA01E091A601F091A701DE
:1017000086E08083E091A401F091A5018081806151
:101710008083E091A401F091A5018081886080839D
:10172000E091A401F091A501808180688083E0911F
:10173000A401F091A50180818F7D808361E082E02A
:101740000E94730161E085E00E94730161E084E022
:101750000E94730161E086E00E94730161E083E012
:101760000E94730161E08AE00E94730161E08BE0F6
:101770000E94730161E08DE00E94730160E08CE0E3
:101780000E94730162E08EE00E94730162E08FE0CC
:101790000E94730162E087E00E94730162E088E0CA
:1017A0000E9473010E94BA060E941E0820E530E0E4
:1017B00040E050E066E071E083E00E9442030E9456
:1017C0001E024B015C0124E6C22ED12CE12CF12C2F
:1017D0000E941E02681979098A099B09683E7340B4
:1017E00081059105A8F321E0C21AD108E108F108AA
:1017F00038EE830E33E0931EA11CB11CC114D1043A
:10180000E104F10429F720E530E040E050E06AE42B
:1018100071E083E00E94420394EB292E312C412C8D
:10182000512C0E94E4060CE0602E82E0782E82E9C2
:1018300091E00E940606181619060CF07FC382E993
:1018400091E00E94E405182FE0918801E11118C091
:10185000853A41F581E08E0F80938801F0E0E05BEE
:10186000FE4F1083833009F590915201923061F15F
:1018700041E060E080E00E9402080E94B50612C0CC
:10188000E13041F78A3531F30E94B506153A51F43B
:10189000E091880181E08E0F80938801F0E0E05BA9
:1018A000FE4F10830E94E406C2CF873069F4909106
:1018B0005601913330F043E060915401809153011F
:1018C000DACF985F90934F01E0914F01EE2309F436
:1018D0003AC18E1708F437C13FEF3E0FA2E5B1E0E1
:1018E00092E080E0931720F42D9182279F5FFACF3A
:1018F000F0905401E0905301F0E0E15BFE4F9081E5
:10190000981721F042E06F2D8E2DB5CF1091560122
:1019100080915501833109F47CC108F0D2C0803137
:1019200009F417C140F4813009F407C1823009F489
:1019300002C144E011C1813109F435C18231C9F7D6
:10194000123008F408C180916A02282F30E0F901B2
:10195000EE0FFF1FE20FF31FE15DFD4F908196FD3B
:1019600056C08C3008F053C01091570161E0812FB0
:101970000E94730180916A02282F30E0F901EE0F76
:10198000FF1FE20FF31FE15DFD4F912F9F73108149
:10199000107C192B108310926B0210926C02662D32
:1019A0000E944711869DA001112430E020E0BA0179
:1019B000620F731FFB01EE0FFF1FE60FF71FE15DC4
:1019C000FD4F908196FD15C02F5F3F4F2C303105A4
:1019D00071F781110EC010928000709281001092F8
:1019E000850010928400B19A80916F00826080938C
:1019F0006F00E0916A028E2F90E0FC01EE0FFF1F56
:101A0000E80FF91FE15DFD4F808180648083A09124
:101A10005801A53B08F0A4EB30916A023D8B3C30A5
:101A200008F08BC080916C0218E5C12E12E0D12E17
:101A3000C81AD10887FDD394CC0CDD1CCC0CDD1C5E
:101A400080916B0208E810E0081B110987FD1395CF
:101A5000000F111F000F111F4801012E000CAA08D2
:101A6000BB0896010D2C000C440B550B28193909A5
:101A70004A095B09B0E00E94DA0FA20191010E94BD
:101A8000BB0F820E931EA41EB51E801691062CF06D
:101A900086018C149D040CF4840102501109000F7E
:101AA000111F2FB7F8943D89832F90E0FC01EE0FB2
:101AB000FF1FE80FF91FE15DFD4F128301832FBF68
:101AC0003CC0813209F4C6C0B8F4843109F489C03D
:101AD000803209F02ECF0E94BA06409158025091F0
:101AE000590270E060E080915D0290915E020E9478
:101AF0007E120E94430221C0813309F462C1823305
:101B000009F4D3C1803309F014CF112321F11091CE
:101B10005701163409F01BC162E087E00E9473018F
:101B200087E00E941C018C0127E041E06F2D8E2D83
:101B30000E94E30706C00E941E086F2D8E2D0E9492
:101B400015080E94B50680918801883308F4AACE52
:101B500094CE123030F445E06F2D8E2D0E94020895
:101B6000F0CF8091570161E08A3049F480915801AB
:101B7000811101C060E08AE00E944501DECF8B3018
:101B800039F480915801811101C060E08BE0F4CFFD
:101B90000E94730161E080915801811101C060E0F1
:101BA00080915701E9CF1230B0F20091580110E056
:101BB00080915701853051F460914E0182E00E947E
:101BC0004501B80185E00E94AF01B7CFB80186306A
:101BD000D1F760914D0184E00E944501B80186E093
:101BE000F2CF123008F4B7CF61E080915801811133
:101BF00001C060E080915701853021F460934E016F
:101C000082E0BACF863009F098CF60934D0184E02E
:101C1000B3CF153008F49FCF8091570160915801E0
:101C20007091590120915A0130915B0116161706E7
:101C30001CF00E94160381CF121613063CF4032EEB
:101C4000000C440B550B0E94420377CF20E030E09C
:101C5000A901F9CF143008F47ECF0E94BA06809112
:101C600057018F3F59F5C0905602D0905702C114CA
:101C7000D10409F43ECF8091580180905901912CF4
:101C8000B12CA12CBA2CA92C982C8824A82A80919C
:101C90005A01882A10E000E0809156029091570284
:101CA0000817190728F4B501A401C8010E948E0085
:101CB0000F5F1F4FC016D10679F71BCF8E3F49F536
:101CC000163008F448CF10915801009159010430A2
:101CD00008F003E0011708F40CCF812F90E0209169
:101CE0005602309157028217930788F420915A01C7
:101CF00040915B0150E070E060E0762F652F542F3B
:101D00004427622B20915C01422B0E948E001F5FB2
:101D1000E1CF843008F0EDCE90E020915602309172
:101D200057028217930708F0E4CE209158014091A2
:101D3000590150E070E060E0762F652F542F442762
:101D4000622B20915A01422B0E948E00D2CE103578
:101D500051F462E088E00E94730188E00E941C0157
:101D60008C0128E0E2CE80E1123031F081E11330C5
:101D700019F0163041F48EE00E940C028C01209183
:101D8000570142E0D3CE173011F48FE0F5CF1E306B
:101D900029F462E08EE00E947301EDCF1F3029F438
:101DA00062E08FE00E947301F0CF90E080E01E308F
:101DB00028F760E0812F0E947301812F0E941C018F
:101DC000DDCF112309F468C0D0905701123008F418
:101DD00065C01091580161E08D2D0E94730160E093
:101DE000812F0E94730160E08D2D0E94450183E0E8
:101DF00090E00197F1F761E08D2D0E94450183E2AB
:101E000090E00197F1F760E08D2D0E944501812F50
:101E100090E0FC01EF56FF4F6491FC01E155FF4F4C
:101E2000E491F0E0EE0FFF1FED58FF4F8591949184
:101E300000E315E720E030E0462F0E94190A611503
:101E400071058105910561F16F5F7F4F8F4F9F4F46
:101E50009F70611571058105910511F10E944C106B
:101E600028E23EE74CE05DE30E94B21020E030E063
:101E700040E05FE30E94B2100E941610611520E856
:101E800072078105910524F06FEF7FE780E090E015
:101E90008B012D2D47E04ACE9DE0D92E1CE09BCF33
:101EA0006CE271E080E090E0F3CF0E94E40680E015
:101EB0000E94D7068823E1F190E080E079822EE04D
:101EC0002A839B838C831D8281E00E94D70688230E
:101ED00091F190E080E07E822FE02F8398878987C0
:101EE0001A8682E00E94D70611E01B8797E09C8744
:101EF00081278D871E861F8683E00E94D706188B58
:101F000098E0998B81278A8B1B8A1C8A04E19E01A9
:101F10002F5F3F4F40E66F2D8E2D0E94810710925C
:101F2000490110924A0110924B0110924C0109CEC6
:101F30009FEF83E0C3CF9FEF83E0CDCF80E090E0C1
:101F4000892B09F46ECC0E941206882309F469CC0F
:101F50000E94000066CC80915D0290915E020E941A
:101F6000F51180915A0290915B0297FD03C060E0E9
:101F70000C9473010895052E97FB1EF400940E94A3
:101F8000D20F57FD07D00E94E50F07FC03D04EF497
:101F90000C94D20F50954095309521953F4F4F4F5F
:101FA0005F4F089590958095709561957F4F8F4F05
:101FB0009F4F08950E940710A59F900DB49F900D0C
:101FC000A49F800D911D11240895A1E21A2EAA1B31
:101FD000BB1BFD010DC0AA1FBB1FEE1FFF1FA217D9
:101FE000B307E407F50720F0A21BB30BE40BF50BD6
:101FF000661F771F881F991F1A9469F7609570955F
:10200000809590959B01AC01BD01CF010895A29FE1
:10201000B001B39FC001A39F700D811D1124911DBC
:10202000B29F700D811D1124911D08950E941D10F5
:102030006894B1110C94AC1008950E94911088F02E
:102040009F5798F0B92F9927B751B0F0E1F0660F7C
:10205000771F881F991F1AF0BA95C9F714C0B130BD
:1020600091F00E94AB10B1E008950C94AB10672F73
:10207000782F8827B85F39F0B93FCCF386957795EC
:102080006795B395D9F73EF49095809570956195D5
:102090007F4F8F4F9F4F0895E89409C097FB3EF400
:1020A00090958095709561957F4F8F4F9F4F9923A5
:1020B000A9F0F92F96E9BB279395F6958795779523
:1020C0006795B795F111F8CFFAF4BB0F11F460FFE3
:1020D0001BC06F5F7F4F8F4F9F4F16C0882311F03B
:1020E00096E911C0772321F09EE8872F762F05C04F
:1020F000662371F096E8862F70E060E02AF09A95EA
:10210000660F771F881FDAF7880F9695879597F9DE
:10211000089557FD9058440F551F59F05F3F71F0D7
:102120004795880F97FB991F61F09F3F79F087953E
:102130000895121613061406551FF2CF4695F1DFC7
:1021400008C0161617061806991FF1CF8695710557
:10215000610508940895E894BB2766277727CB018B
:1021600097F908950E94C5100C9436110E94281109
:1021700038F00E942F1120F0952311F00C941F11BC
:102180000C94251111240C94AC100E94891070F34A
:10219000959FC1F3950F50E0551F629FF001729F0C
:1021A000BB27F00DB11D639FAA27F00DB11DAA1F1B
:1021B000649F6627B00DA11D661F829F2227B00D68
:1021C000A11D621F739FB00DA11D621F839FA00DF3
:1021D000611D221F749F3327A00D611D231F849F43
:1021E000600D211D822F762F6A2F11249F5750409A
:1021F0009AF0F1F088234AF0EE0FFF1FBB1F661F15
:10220000771F881F91505040A9F79E3F510580F0DD
:102210000C941F110C94AC105F3FE4F3983ED4F380
:10222000869577956795B795F795E7959F5FC1F781
:10223000FE2B880F911D9695879597F9089597F92C
:102240009F6780E870E060E008959FEF80EC08955C
:1022500000240A9416161706180609060895002485
:102260000A9412161306140605060895092E0394FF
:10227000000C11F4882352F0BB0F40F4BF2B11F473
:1022800060FF04C06F5F7F4F8F4F9F4F0895991B72
:1022900079E004C0991F961708F0961B881F7A955D
:1022A000C9F780950895EE0FFF1F0590F491E02D7A
:1022B00009940F931F93CF93DF938230910510F40D
:1022C00082E090E0E0916F02F091700230E020E057
:1022D000B0E0A0E0309799F42115310509F44AC027
:1022E000281B390B24303105D8F58A819B81611573
:1022F000710589F1FB0193838283FE0111C0408146
:1023000051810281138148175907E0F04817590796
:1023100099F4109761F012960C93129713961C93F0
:102320003296CF01DF91CF911F910F9108950093C5
:102330006F0210937002F4CF2115310551F042174E
:10234000530738F0A901DB019A01BD01DF01F80153
:10235000C1CFEF01F9CF9093700280936F02CDCF80
:10236000FE01E20FF31F81939193225031093983CB
:102370002883D7CF20916D0230916E02232B41F438
:10238000209103013091040130936E0220936D027D
:1023900020910101309102012115310541F42DB741
:1023A0003EB74091050150910601241B350BE09189
:1023B0006D02F0916E02E217F307A0F42E1B3F0BA3
:1023C0002817390778F0AC014E5F5F4F24173507A7
:1023D00048F04E0F5F1F50936E0240936D02819341
:1023E00091939FCFF0E0E0E09CCFCF93DF930097F5
:1023F000E9F0FC01329713821282A0916F02B09132
:102400007002ED0130E020E01097A1F420813181CD
:10241000820F931F20916D0230916E0228173907A9
:1024200009F061C0F0936E02E0936D02DF91CF91ED
:102430000895EA01CE17DF07E8F54A815B819E0126
:1024400041155105B1F7E901FB83EA83499159919F
:10245000C40FD51FEC17FD0761F4808191810296AE
:10246000840F951FE90199838883828193819B83DF
:102470008A83F0E0E0E012968D919C91139700978B
:10248000B9F52D913C911197CD010296820F931FC2
:1024900020916D0230916E022817390739F6309776
:1024A00051F51092700210926F02B0936E02A093D9
:1024B0006D02BCCFD383C28340815181840F951FAD
:1024C000C817D90761F44E5F5F4F88819981480F23
:1024D000591F518340838A819B8193838283211575
:1024E000310509F0B0CFF0937002E0936F029ECFF8
:1024F000FD01DC01C0CF13821282D7CFDC0101C005
:102500006D9341505040E0F7089510E0C3E6D0E0ED
:1025100004C0FE010E9453112196C436D107C9F7A9
:04252000F894FFCF5D
:10252400FF000071028000000000004806A805D5E5
:0A2534000595060606E405F805000B
:00000001FF
